:100000000C944A000C9474000C9474000C947400CA
:100010000C9474000C9474000C9474000C94740090
:100020000C94E1470C9474000C94BD380C9474004B
:100030000C946E100C9474000C94C6100C94740004
:100040000C94F2100C9474000C9439050C9469060D
:100050000C94C4040C9474000C9474000C947400FC
:100060000C9474000C9474000C9474000C94740040
:100070000C9474000C9474000C94FC040C941F06F3
:100080000C94E0040C9447040C947400B90A5027B3
:10009000EA300E3511241FBECFEFD0E1DEBFCDBF59
:1000A00017E0A0E0B1E0E4E5F5EB00E00BBF02C033
:1000B00007900D92A43CB107D9F71DE0A4ECB7E07E
:1000C00001C01D92A334B107E1F710E0C4E9D0E00C
:1000D00004C02297FE010E943055CC38D107C9F7E1
:1000E0000E943F2B0C94A85A0C94000081E00895C4
:1000F000DF92EF92FF920F931F937C01D62EFC01AB
:1001000080819181642F422F0E94B309F701808181
:1001100091814D2D413108F040E1B8010E94230A40
:1001200081E01F910F91FF90EF90DF900895CF92A3
:10013000DF92EF92FF920F931F937C01262FD42E14
:10014000C52EE42FF52FDF010D900020E9F78D017A
:10015000015010400E1B1F0BFC018081918160E05B
:10016000422F0E94B309D7018D919C91402F0131FC
:1001700008F040E16D2D7C2D0E94230A81E01F9143
:100180000F91FF90EF90DF90CF900895FC01808158
:1001900091810E948B0981E00895FC018081918109
:1001A0000E948B0981E008950F931F938B01CB016F
:1001B0000E948B09C80160E040E00E94B3091F91D2
:1001C0000F9108950F931F938B01CB010E948B0910
:1001D000C80160E040E00E94B3091F910F910895AB
:1001E000FC0117821682118210821382128281E032
:1001F0008087158214820895FC011782168211826D
:1002000010821382128281E0808715821482089501
:10021000FC0120813181828193812817390738F0D0
:100220004081518182819381481B590B0AC04081D2
:1002300051812281338186819781480F591F421B4A
:10024000530B2681378121503040241B350BC901C7
:100250000895FC012081318182819381281739071B
:1002600038F04081518182819381481B590B0AC02B
:10027000408151812281338186819781480F591FA6
:10028000421B530BCA010895AF92BF92CF92DF92E7
:10029000EF92FF920F931F93CF93DF93EC016B01CB
:1002A0005A01288139818A819B812817390738F0C2
:1002B000088119818A819B81081B190B0AC008815A
:1002C00019812A813B818E819F81080F191F021B92
:1002D000130BEE24FF2416C088819981EC81FD81E7
:1002E000E80FF91FD6018D916D0180838881998176
:1002F0006E817F8101960E9493549983888308942C
:10030000E11CF11C9701200F311FEA14FB0430F4AB
:100310008E819F81019728173907F0F2C701DF917D
:10032000CF911F910F91FF90EF90DF90CF90BF90F2
:10033000AF9008950F931F938C010E94080140E035
:10034000F80126813781215030408217930709F444
:1003500041E0842F1F910F910895FC0113821282B6
:10036000118210820895AF92BF92CF92DF92EF92E6
:10037000FF920F931F93CF93DF93EC016B015A0110
:10038000288139818A819B812817390738F00881B3
:1003900019818A819B81081B190B0AC00881198168
:1003A0002A813B818E819F81080F191F021B130B2D
:1003B000EE24FF2416C08A819B81EC81FD81E80F29
:1003C000F91F8081F60181936F018A819B816E8183
:1003D0007F8101960E9493549B838A830894E11C39
:1003E000F11CEA14FB0418F40E151F0521F7C701D0
:1003F000DF91CF911F910F91FF90EF90DF90CF9001
:10040000BF90AF900895CF93DF93DC01EB012D9166
:100410003C91119712968D919C911397281739074B
:1004200050F04D915C91119712968D919C9113977C
:10043000481B590B0FC04D915C91119712962D914D
:100440003C91139716968D919C911797480F591FC1
:10045000421B530B12966D917C9113979A010CC01D
:100460001496ED91FC911597E60FF71F8081899303
:100470006F5F7F4F215030402115310589F7CA0148
:10048000DF91CF9108950F931F93CF93DF93EC01EA
:100490008B01CB010E94A6559D838C83009719F494
:1004A000188680E003C01F830E8381E0DF91CF9127
:1004B0001F910F9108959B01809171008E7F809311
:1004C0007100809171008D7F8093710040E050E059
:1004D00060E47FE180E090E00E94BA54203130F087
:1004E000822F90E0409795958795282F2093700054
:1004F00008950F931F938C0188988998909A919AE8
:10050000DC0196961C921E92959798961C921E92CC
:10051000979760E971E00E945B02E4E7F0E0808178
:1005200084608083D8011C92808181608083808177
:10053000806480831093C5070093C4071F910F91B7
:1005400008950F931F938C0188988998909A919A97
:10055000DC0196961C921E92959798961C921E927C
:10056000979760E971E00E945B02E4E7F0E0808128
:1005700084608083D8011C92808181608083808127
:10058000806480831093C5070093C4071F910F9167
:10059000089580E0411181E06E7F862B8093720088
:1005A0000895FC0176A365A30895FC0170A767A3D5
:1005B0000895E4E7F0E080818F70806A8083089579
:1005C000E4E7F0E080818F70806D808308958091F2
:1005D000740087FFFCCF089560937300E4E7F0E0B8
:1005E00080818F70806880830895662329F08091D0
:1005F00074008F70806C04C0809174008F7080686C
:100600008093740008958091730008958091710023
:100610000895CF93DF93EC01522F932F8881882385
:10062000E9F782E088836E7F69A7DE01252F392FE5
:10063000C901FC0102C081918C9311968E2F851BFC
:100640008417C8F3198A4A8B809174008F70806A6E
:1006500080937400DF91CF910895FC01522F808127
:100660008823E9F783E08083616061A713A244A334
:10067000809174008F70806A8093740080818823D9
:10068000E9F7DF01852F932F9C01F90104C05296F1
:100690008C915297819311968E2F851B8417B8F3F6
:1006A0000895CF93DF93EC0180917100887F8036AD
:1006B00009F492C0813670F5883209F45EC089323F
:1006C00098F4803109F457C0813138F4882309F453
:1006D000D4C0883009F0D8C04EC0883109F44DC06C
:1006E000803209F0D1C0C9C0803409F46CC08134B3
:1006F00038F4803309F4C1C0883309F0C5C055C04F
:10070000803509F457C0883509F445C0883409F0AC
:10071000BBC0B3C0883909F471C08939B0F48837D7
:1007200009F45AC0893738F4883609F455C080373F
:1007300009F0AAC051C0883809F460C0803909F4B2
:100740004FC0803809F0A0C04BC0803B09F46BC09B
:10075000813B38F4803A09F456C0883A09F094C0D5
:1007600062C0803C09F484C0883C09F481C0883BA5
:1007700009F08AC065C089A50BC099898A89981734
:1007800008F07BC0FE01E90FF11D81819F5F998B0D
:100790008093730066C08BA190917300FE01E80FF7
:1007A000F11D938B8F5F8BA368C0809174008F7055
:1007B000806867C08BA190917300FE01E80FF11D66
:1007C000938B8F5F8BA32BA130E08CA190E00197DE
:1007D000281739079CF40FC085E088831BA23CC012
:1007E0008BA190917300FE01E80FF11D938B8F5F39
:1007F0008BA3803118F4CE0161E002C0CE0160E02D
:100800000E94F50241C0809174008F70806C8093CB
:100810007400EDA1FEA13097B1F1BE016D5E7F4F76
:100820008BA1099530C084E08883EFA1F8A53097AB
:1008300031F0BE016F5F7F4F80E109958A8B198A85
:100840009989FE01E90FF11D8181809373009F5FFB
:10085000998B8A89981728F4809174008F70806C26
:1008600004C0809174008F708068809374000CC005
:10087000809174008F70806C04C0809174008F70C0
:10088000806D809374001882DF91CF9108951F923C
:100890000F920FB60F920BB60F9211242F933F9326
:1008A0004F935F936F937F938F939F93AF93BF9378
:1008B000EF93FF938091C4079091C5070E94510365
:1008C000FF91EF91BF91AF919F918F917F916F9128
:1008D0005F914F913F912F910F900BBE0F900FBEE4
:1008E0000F901F901895FC0180810895FC01828172
:1008F000882319F08130F1F51FC080919500826046
:1009000080939500809195008460809395008091FC
:1009100095008B7F8093950080919500877F8093D1
:100920009500809195008F7E809395008091950031
:100930008F7D80939500089580919D0082608093C3
:100940009D0080919D00846080939D0080919D001A
:100950008B7F80939D0080919D00877F80939D0079
:1009600080919D008F7E80939D0080919D008F7D62
:1009700080939D000895E091CC07F091CD07848D80
:10098000813009F4DA9808951F920F920FB60F92F2
:100990000BB60F9211248F93EF93FF93E091CC0746
:1009A000F091CD07848D813009F4DA98FF91EF91B1
:1009B0008F910F900BBE0F900FBE0F901F90189548
:1009C0001F920F920FB60F920BB60F9211248F93B6
:1009D000EF93FF93E091CE07F091CF07848D8130A4
:1009E00009F4DA98FF91EF918F910F900BBE0F9061
:1009F0000FBE0F901F9018951F920F920FB60F9277
:100A00000BB60F9211242F933F934F935F936F93E5
:100A10007F938F939F93AF93BF93EF93FF93DF9356
:100A2000CF930F92CDB7DEB780919C0089838091E0
:100A3000CE079091CF070996BE016F5F7F4F41E0CF
:100A400050E00E9444010F90CF91DF91FF91EF9110
:100A5000BF91AF919F918F917F916F915F914F91D6
:100A60003F912F910F900BBE0F900FBE0F901F90D4
:100A700018951F920F920FB60F920BB60F9211247A
:100A80002F933F934F935F936F937F938F939F9396
:100A9000AF93BF93EF93FF93DF93CF930F92CDB7B5
:100AA000DEB78CB189838091CC079091CD070996F0
:100AB000BE016F5F7F4F41E050E00E9444010F9004
:100AC000CF91DF91FF91EF91BF91AF919F918F9166
:100AD0007F916F915F914F913F912F910F900BBE3E
:100AE0000F900FBE0F901F901895DF93CF930F922A
:100AF000CDB7DEB78CB189838091CC079091CD07BB
:100B00000996BE016F5F7F4F41E050E00E944401B3
:100B10000F90CF91DF910895CF93DF93EC014115B2
:100B20005105A9F06115710591F042960E944401AA
:100B30009C018A81882319F0813059F402C0559AAA
:100B400008C080919A00806280939A0002C020E0E1
:100B500030E0C901DF91CF910895CF92DF92EF92FB
:100B6000FF920F931F93DF93CF930F92CDB7DEB712
:100B70007C018B016115710549F412C08983C7019D
:100B8000B60141E050E00E948C0504C06E0108945B
:100B9000C11CD11CF8010F5F1F4F8491882371F78E
:100BA0000F90CF91DF911F910F91FF90EF90DF9009
:100BB000CF9008958F929F92AF92BF92CF92DF9283
:100BC000EF92FF920F931F93DF93CF930F92CDB7C6
:100BD000DEB76B017A014115510501F1611571050F
:100BE000E9F022E1A22EB12CA80EB91E00E010E01F
:100BF0004E010894811C911CF601E00FF11FE49155
:100C0000E983C501B40141E050E00E9444019C0128
:100C10000F5F1F4FE016F10679F702C020E030E0C9
:100C2000C9010F90CF91DF911F910F91FF90EF902D
:100C3000DF90CF90BF90AF909F908F9008951F92BC
:100C40000F920FB60F920BB60F9211242F933F9372
:100C50004F935F936F937F938F939F93AF93BF93C4
:100C6000EF93FF93DF93CF930F92CDB7DEB7E09171
:100C7000CE07F091CF07848D813009F4DA9ACF0145
:100C80004296BE016F5F7F4F41E050E00E94B3018A
:100C9000882321F0898180939C0005C080919A006F
:100CA0008F7D80939A000F90CF91DF91FF91EF910C
:100CB000BF91AF919F918F917F916F915F914F9174
:100CC0003F912F910F900BBE0F900FBE0F901F9072
:100CD00018951F920F920FB60F920BB60F92112418
:100CE0002F933F934F935F936F937F938F939F9334
:100CF000AF93BF93EF93FF93DF93CF930F92CDB753
:100D0000DEB7E091CC07F091CD07848D813009F4F6
:100D1000DA9ACF014296BE016F5F7F4F41E050E00B
:100D20000E94B301882319F089818CB901C05598BC
:100D30000F90CF91DF91FF91EF91BF91AF919F9174
:100D40008F917F916F915F914F913F912F910F9074
:100D50000BBE0F900FBE0F901F901895DF93CF938F
:100D60000F92CDB7DEB7E091CC07F091CD07848D1F
:100D7000813009F4DA9ACF014296BE016F5F7F4F4E
:100D800041E050E00E94B301882319F089818CB9B9
:100D900001C055980F90CF91DF91089509960E9458
:100DA000B3010895CF92DF92EF92FF920F931F93BA
:100DB000DF93CF93CDB7DEB760970FB6F894DEBF61
:100DC0000FBECDBF6C01FC01468F578F60A371A38E
:100DD0007A018B0154E0EE0CFF1C001F111F5A9585
:100DE000D1F760E072E18AE790E0A80197010E94E4
:100DF000DC5429873A874B875C876D877E878F878E
:100E0000988BDE011196FE01399688E001900D92D3
:100E10008150E1F729813A8116950795F794E79477
:100E20008D819E81AF81B8858E159F05A007B10782
:100E300010F421503040F6018281882319F081306E
:100E400049F404C03093900029B904C0309398004D
:100E50002093990060960FB6F894DEBF0FBECDBF09
:100E6000CF91DF911F910F91FF90EF90DF90CF9086
:100E7000089509960E942901089542960E9408014A
:100E8000089509960E94030208950F931F93DF931C
:100E9000CF93CDB7DEB7CF5FD0400FB6F894DEBFAB
:100EA0000FBECDBF9E01265F3E4F8E010F5F1F4FCD
:100EB000C801C85FDE4F68817981C850D140A9015F
:100EC0000E94AA57F80101900020E9F73197E01B32
:100ED000F10BCA5FDE4F88819981C650D140B801BD
:100EE000AF010E948C05C150DF4F0FB6F894DEBFF2
:100EF0000FBECDBFCF91DF911F910F910895DB0100
:100F00000D900020E9F71197A61BB70BAD010E94C9
:100F10008C05089509960E94AD0108956F927F9205
:100F20008F929F92BF92CF92DF92EF92FF920F9398
:100F30001F93CF93DF93EC01B62E39014A0168016C
:100F40008C01075F1F4FC8010E94FC0062E1E62E82
:100F5000F12CEC0EFD1EC7010E94FC00BA8281E05C
:100F60008D8FC801B6010E944302882309F41D8EAB
:100F7000C701B6010E944302882309F41D8E81E057
:100F80008C8FBB2019F0B81679F407C088ED8AB9A8
:100F9000D093CD07C093CC0707C088ED80939A000B
:100FA000D093CF07C093CE07CE01B401A3010E9416
:100FB000D206198218821B8ED29ADA98DF91CF91CD
:100FC0001F910F91FF90EF90DF90CF90BF909F9077
:100FD0008F907F906F9008956F927F928F929F92E3
:100FE000BF92CF92DF92EF92FF920F931F93CF9316
:100FF000DF93EC01B62E39014A0168018C01075FCD
:101000001F4FC8010E94FC0072E1E72EF12CEC0E8C
:10101000FD1EC7010E94FC00BA8281E08D8FC801CD
:10102000B6010E944302882309F41D8EC701B60150
:101030000E944302882309F41D8E81E08C8FBB201F
:1010400019F0B81679F407C088ED8AB9D093CD07A6
:10105000C093CC0707C088ED80939A00D093CF0748
:10106000C093CE07CE01B401A3010E94D20619821B
:1010700018821B8ED29ADA98DF91CF911F910F912F
:10108000FF90EF90DF90CF90BF909F908F907F90D8
:101090006F9008957F928F929F92AF92BF92CF925E
:1010A000DF92EF92FF920F931F93CF93DF93EC01A8
:1010B000762E49015A0168018C01075F1F4FC80154
:1010C0000E94FC00E2E1EE2EF12CEC0EFD1EC701A9
:1010D0000E94FC007A828E8E9F8EA8A2B9A281E027
:1010E0008D8FC801B6010E944302882309F41D8E2A
:1010F000C701B6010E944302882309F41D8E1C8E8D
:10110000772021F081E0781679F407C088ED8AB95C
:10111000D093CD07C093CC0707C088ED80939A0089
:10112000D093CF07C093CE07CE01B501A4010E9492
:10113000D206198218821B8EDF91CF911F910F91D9
:10114000FF90EF90DF90CF90BF90AF909F908F90E7
:101150007F9008957F928F929F92AF92BF92CF928D
:10116000DF92EF92FF920F931F93CF93DF93EC01E7
:10117000762E49015A0168018C01075F1F4FC80193
:101180000E94FC00F2E1EF2EF12CEC0EFD1EC701D7
:101190000E94FC007A828E8E9F8EA8A2B9A281E066
:1011A0008D8FC801B6010E944302882309F41D8E69
:1011B000C701B6010E944302882309F41D8E1C8ECC
:1011C000772021F081E0781679F407C088ED8AB99C
:1011D000D093CD07C093CC0707C088ED80939A00C9
:1011E000D093CF07C093CE07CE01B501A4010E94D2
:1011F000D206198218821B8EDF91CF911F910F9119
:10120000FF90EF90DF90CF90BF90AF909F908F9026
:101210007F90089508950895DF93CF9300D000D074
:10122000CDB7DEB71CC01A82198211C01C821B8286
:1012300005C08B819C8101969C838B838B819C81D3
:10124000892BB9F389819A8101969A83898389814F
:101250009A81039758F341505040604070404115C7
:10126000510561057105F9F60F900F900F900F90E1
:10127000CF91DF910895DF93CF9300D000D000D0BD
:10128000CDB7DEB788E790E01BC01A82198211C083
:101290001C821B8205C08B819C8101969C838B8361
:1012A0008B819C81892BB9F389819A8101969A83DC
:1012B000898389819A81039758F38D819E81019753
:1012C0009E838D838D819E81892BF9F626960FB69C
:1012D000F894DEBF0FBECDBFCF91DF9108951F936D
:1012E000162F48E750E060E070E00E940C09C498B7
:1012F000C59882B3912F907F8F70982B92BBC69A1E
:10130000C69882B31295107F8F70812B82BBC69ACC
:10131000C6981F9108950F931F938C010E943B095B
:10132000C80161E00E946F091F910F9108951F93FA
:10133000162F48E750E060E070E00E940C09C49A64
:10134000C59882B3912F907F8F70982B92BBC69ACD
:10135000C69882B31295107F8F70812B82BBC69A7C
:10136000C6981F9108950F931F93CF93DF93EC01BD
:10137000162F042F0E943B09013049F0013028F05C
:10138000023039F0033061F406C0105805C0105423
:1013900003C01C5601C01C52CE01612F0E946F0970
:1013A000DF91CF911F910F9108951F93CF93DF93FA
:1013B000EC011FB7F89488E893E128EC30E0F901DC
:1013C0003197F1F70197D9F7CE014CE652E060E092
:1013D00070E00E940C09BD9ABC9ABE9A81B3806FDE
:1013E00081BBC698C498C598CE014CE652E060E037
:1013F00070E00E940C09CE0168E20E946F09CE01E4
:101400006CE10E946F09CE016CE00E946F09CE0171
:1014100061E00E946F09CE0162E00E946F09CE0177
:1014200048E150E160E070E00E940C09CE010E94AA
:101430008B09CE0160E040E00E94B3091FBFDF913D
:10144000CF911F910895CF92DF92EF92FF920F9369
:101450001F93CF93DF937C01062FD72EC42E862FA8
:10146000972F9C01E90110E008C0C7010E943B09C9
:10147000C70169910E9497091F5F1C15B0F3802F67
:101480009D2DDF91CF911F910F91FF90EF90DF90F5
:10149000CF900895FF920F931F938C01F62E0E9418
:1014A0003B09C8016F2D0E9497091F910F91FF9072
:1014B00008950F931F93DF93CF93CDB7DEB7CF5F20
:1014C000D0400FB6F894DEBF0FBECDBFCA5FDE4F6F
:1014D00008811981C650D1409E01235F3E4FCE0145
:1014E0000196C55FDE4F68817981CB50D140A9015B
:1014F0000E94AA57C65FDE4F8881CA50D14081FF43
:1015000003C0C8010E948B09C65FDE4F8881CA50A4
:10151000D14080FF0DC0C801C85FDE4F6881C85050
:10152000D140C75FDE4F4881C950D1400E94B30906
:10153000FE013196DF010D900020E9F71197AE1BF7
:10154000BF0BA031B10510F040E101C04A2FC80126
:10155000BE016F5F7F4F0E94230AC150DF4F0FB65D
:10156000F894DEBF0FBECDBFCF91DF911F910F91D9
:1015700008951092FB071092FF071092FE0708953E
:10158000CF93DF93DA018DB79EB742970FB6F894E9
:101590009EBF0FBE8DBFEDB7FEB73196CDB7DEB79C
:1015A0007A83698380E190E09383828380E091E095
:1015B000958384838C918683178211968C911197E1
:1015C0008087118612968C911297828713861396C4
:1015D0008C9113978487158614968C91149786871F
:1015E000178615968C91808B118A0E943B578DB778
:1015F0009EB742960FB6F8949EBF0FBE8DBFDF9187
:10160000CF910895CF93DF93DA018DB79EB70E97F0
:101610000FB6F8949EBF0FBE8DBFEDB7FEB73196E3
:10162000CDB7DEB77A83698380E190E093838283CC
:101630008EE191E0958384838C9186831782119645
:101640008C9111978087118612968C9112978287C0
:10165000138613968C91848715860E943B578DB70D
:101660009EB70E960FB6F8949EBF0FBE8DBFDF914A
:10167000CF9108958F929F92AF92BF92CF92DF92B7
:10168000EF92FF920F931F93DF93CF93CDB7DEB707
:101690006B970FB6F894DEBF0FBECDBFDE0111967B
:1016A000EAE2F1E08BE101900D928150E1F722E056
:1016B000A22E28E0B22E90E0C92E98E0D92EEE247A
:1016C000FF244E010894811C911CF501608120913A
:1016D000D4073091D507870184E0000F111F8A9548
:1016E000E1F7613128F1F6018081681B080F111DB7
:1016F0000A52184FC90140E02E2D0E947800F601D1
:101700006081F5014081461B8091D4079091D507F7
:101710002E2D84010E947800F601808190E0F50171
:101720006081019670E00E94A754F601808308C092
:101730000A52184FC90160E140E02E2D0E94780046
:101740000894E11CF11C0894A11CB11C0894C11C54
:10175000D11CF2E0EF16F10409F0B7CF1092FB07AD
:101760001092FF071092FE076B960FB6F894DEBF3B
:101770000FBECDBFCF91DF911F910F91FF90EF90E2
:10178000DF90CF90BF90AF909F908F900895E6ED3F
:10179000F7E0DF010D900020E9F71197AE1BBF0BBA
:1017A000A0930208109200087096DF010D900020AF
:1017B000E9F77097A75EB740A0930308109201085D
:1017C0008081882309F480E2819387E0E63FF8076F
:1017D000B9F70895FC0181E591E091838083148A33
:1017E000138A108A1786128A118A108E178A168A0F
:1017F000158A168E158E128E118E148E138E12A2CD
:1018000011A210A2178E0895FC0181E591E0918349
:101810008083148A138A108A1786128A118A108E7E
:10182000178A168A158A168E158E128E118E148EB0
:10183000138E12A211A210A2178E08950895FC0112
:10184000128A118A108A1786168A158A0895FC0151
:10185000258D368D878D90A1281B390BC9010895E0
:10186000FC01858996890895CF92DF92EF92FF92CD
:101870000F931F93DF93CF930F92CDB7DEB77C0109
:101880008B016115710571F417C08983D701ED9142
:10189000FC910280F381E02DC701B60141E050E0E8
:1018A000099504C06E010894C11CD11CF8010F5F9A
:1018B0001F4F8491882349F70F90CF91DF911F919B
:1018C0000F91FF90EF90DF90CF900895FC01438738
:1018D0005487658776870895AF92BF92CF92DF9243
:1018E000EF92FF920F931F93DF93CF930F92CDB799
:1018F000DEB78C015B016A014115510509F447C04F
:101900006115710509F443C0EE24FF24F501EE0DC5
:10191000FF1DE491E9834FB7F894D8015F962D91AC
:101920003C9190975D968D919C915E972817390711
:1019300018F020E030E022C0D8019196ED91FC91A2
:10194000929759968D919C915A97E80FF91F89812A
:10195000808359968D919C915A975D966D917C915B
:101960005E9701960E949354F801928F818F878D24
:1019700090A1019690A3878F21E030E04FBF08949B
:10198000E11CF11CCE14DF0409F0C0CF02C020E03E
:1019900030E0C9010F90CF91DF911F910F91FF901F
:1019A000EF90DF90CF90BF90AF900895EF92FF92AD
:1019B0000F931F93CF93DF93EC017B018A014115B5
:1019C000510511F40C811D8120E030E018C0E8853C
:1019D000F9858A819B81E80FF91F80818C938A8128
:1019E0009B816C817D8101960E9493549B838A83A5
:1019F0002F5F3F4F8E819F8101979F838E83D701F9
:101A0000A20FB31F2017310720F48E819F81892BED
:101A1000F1F6C901DF91CF911F910F91FF90EF90E7
:101A200008950F9640E050E00E94D60C08950F965E
:101A30000E94D60C0895CF93DF93DB010D90002018
:101A4000E9F71197A61BB70BEC01E881F981028039
:101A5000F381E02DAD010995DF91CF910895EF92CB
:101A6000FF920F931F93DF93CF93CDB7DEB7CF5F76
:101A7000D0400FB6F894DEBF0FBECDBFC85FDE4FBB
:101A8000E880F980C850D1409E01245F3E4F8E010E
:101A90000F5F1F4FC801C65FDE4F68817981CA5052
:101AA000D140A9010E94AA57D8010D900020E9F762
:101AB0001197A01BB10BF70180819181FC0122815C
:101AC0003381C701B801AD01F9010995C150DF4F5C
:101AD0000FB6F894DEBF0FBECDBFCF91DF911F913F
:101AE0000F91FF90EF9008950F931F93CF93DF9383
:101AF000EC018B016F3F710509F028F4CB010E94C6
:101B0000A6558F8B988F8F89988D892BC9F01C8B48
:101B10000B8B0F3F110509F028F4C8010E94A65550
:101B200089A39AA389A19AA1892B49F01E8F0D8FB1
:101B300081E08A87DF91CF911F910F910895FFCFA8
:101B4000FFCFFC01128681E00895FC0113A614A6C4
:101B500015A616A681E080AF0895CF92DF92EF928E
:101B6000FF920F931F93CF93DF93EC016B017A01E8
:101B70004FB7F89400E010E018C0E885F985888137
:101B80009981E80FF91F8C918083888199816C81FC
:101B90007D8101960E949354998388830F5F1F4F24
:101BA0008E819F8101969F838E83D601A00FB11FE6
:101BB0000E151F0538F42E813F818C819D812817D9
:101BC0003907D8F24FBFC801DF91CF911F910F9114
:101BD000FF90EF90DF90CF9008954115510541F0AF
:101BE0006115710529F049960E94AD0D9C0102C056
:101BF00020E030E0C9010895AF92BF92CF92DF920A
:101C0000EF92FF920F931F93CF93DF93EC018BA181
:101C10000E94EF3A282F8CA19DA1835F9D4109F07E
:101C2000FFCF233109F4BDC0243120F4222309F46D
:101C3000A7C0BEC0273121F02C3109F0B9C099C02E
:101C40008EA99FA90F8D18A18017910708F48C0108
:101C500001151105A1F1ECA8FDA820E030E018C0A5
:101C6000E9A1FAA18B8D9C8DE80FF91F80818C93DF
:101C70008B8D9C8D6D8D7E8D01960E9493549C8FD3
:101C80008B8F2F5F3F4F8F8D98A1019798A38F8FD8
:101C9000D701A20FB31F2017310720F48F8D98A111
:101CA000892BF1F66CA97DA92EA93FA940E050E04F
:101CB0008BA10E9477341BA61CA61DA61EA68BA175
:101CC0000E94463C5B016C0161157105810591051F
:101CD00079F18B899C892D893E89821B930B9C010C
:101CE00040E050E08EA99FA9A0E0B0E082179307E2
:101CF000A407B50710F49C01AD0179018A01A21671
:101D0000B306C406D50610F4860175016CA97DA939
:101D10008BA1A80197010E94DB326CA97DA9CE019D
:101D20000F96A7010E94AD0D1BA61CA61DA61EA600
:101D300088AD882371F08BA59CA5ADA5BEA506979F
:101D4000A105B10530F08BA10E9405318BA10E9445
:101D500070318FA51FA6882359F18BA59CA5ADA531
:101D6000BEA50196A11DB11D8BA79CA7ADA7BEA7BF
:101D70001FC08BA10E9405318BA10E94703118C039
:101D80008F8D98A1892BA1F01BA61CA61DA61EA6AF
:101D90008BA161E043EF5DE120E030E00E947C3107
:101DA00007C08BA1A796BE0143EF5DE10E941131F0
:101DB000DF91CF911F910F91FF90EF90DF90CF9027
:101DC000BF90AF9008950F931F93CF93DF93EC01D3
:101DD0008B016F3F710509F028F4CB010E94A655D5
:101DE0008887998788859985892B41F01D830C8385
:101DF00081E0DF91CF911F910F910895FFCF9F92C6
:101E0000AF92BF92CF92DF92EF92FF920F931F9308
:101E1000CF93DF93EC01942E59010E94EA0B8DE5DC
:101E200091E0998388831FA61BAA1AAA9BA2BDA230
:101E3000ACA281E08A87DFAACEAAC114D104C1F086
:101E4000CE010F96B6010E94E30E882309F41A868C
:101E5000CE014996B6010E94E30E882309F41A8642
:101E6000C6010E94A6559DAB8CAB009709F41A865B
:101E70001B821A82198681E08EA3EFA2F8A609A719
:101E80001AA7892D0E940531892D0E9470318EE19B
:101E900090E099AB88ABBE01615D7F4F88E49AE02A
:101EA0000E94963018AEDF91CF911F910F91FF9055
:101EB000EF90DF90CF90BF90AF909F9008959F924A
:101EC000AF92BF92CF92DF92EF92FF920F931F9348
:101ED000CF93DF93EC01942E59010E94EA0B8DE51C
:101EE00091E0998388831FA61BAA1AAA9BA2BDA270
:101EF000ACA281E08A87DFAACEAAC114D104C1F0C6
:101F0000CE010F96B6010E94E30E882309F41A86CB
:101F1000CE014996B6010E94E30E882309F41A8681
:101F2000C6010E94A6559DAB8CAB009709F41A869A
:101F30001B821A82198681E08EA3EFA2F8A609A758
:101F40001AA7892D0E940531892D0E9470318EE1DA
:101F500090E099AB88ABBE01615D7F4F88E49AE069
:101F60000E94963018AEDF91CF911F910F91FF9094
:101F7000EF90DF90CF90BF90AF909F900895DC01DD
:101F80001296EC911297F0E060831596EC911597FC
:101F9000F0E080818E7F80831596EC911597F0E0BC
:101FA0008081826080831696EC91F0E08081877F4B
:101FB00080830895FC01613051F0613018F0623087
:101FC00089F40BC0E085F0E080818E7F04C0E0855D
:101FD000F0E080818D7F80830895E085F0E080814E
:101FE0008D7F80830895FC01613051F0613018F0DD
:101FF000623089F40BC0E085F0E08081816004C02C
:10200000E085F0E08081826080830895E085F0E0E3
:102010008081826080830895FC01708B67870895BA
:10202000CF93DF93EC01EA81F0E0208189899A89DE
:10203000AB89BC89820F911DA11DB11D898B9A8B23
:10204000AB8BBC8B29853A854B855C8582179307C2
:10205000A407B507A0F0EF85F889309729F0198A11
:102060001A8A1B8A1C8A09958E85882321F4CE0141
:102070000E94EF1604C0198A1A8A1B8A1C8ADF91F3
:10208000CF9108951F920F920FB60F920BB60F9239
:1020900011242F933F934F935F936F937F938F936D
:1020A0009F93AF93BF93EF93FF9380910808909114
:1020B00009080E941010FF91EF91BF91AF919F917D
:1020C0008F917F916F915F914F913F912F910F90E1
:1020D0000BBE0F900FBE0F901F9018951F920F927E
:1020E0000FB60F920BB60F9211242F933F934F937D
:1020F0005F936F937F938F939F93AF93BF93EF9370
:10210000FF9380910608909107080E941010FF919C
:10211000EF91BF91AF919F918F917F916F915F915F
:102120004F913F912F910F900BBE0F900FBE0F90CC
:102130001F9018951F920F920FB60F920BB60F9229
:1021400011242F933F934F935F936F937F938F93BC
:102150009F93AF93BF93EF93FF9380910408909167
:1021600005080E941010FF91EF91BF91AF919F91D0
:102170008F917F916F915F914F913F912F910F9030
:102180000BBE0F900FBE0F901F9018951F920F92CD
:102190000FB60F920BB60F9211242F933F934F93CC
:1021A0005F936F937F938F939F93AF93BF93EF93BF
:1021B000FF9380910608909107080E941010FF91EC
:1021C000EF91BF91AF919F918F917F916F915F91AF
:1021D0004F913F912F910F900BBE0F900FBE0F901C
:1021E0001F9018951F920F920FB60F920BB60F9279
:1021F00011242F933F934F935F936F937F938F930C
:102200009F93AF93BF93EF93FF93809104089091B6
:1022100005080E941010FF91EF91BF91AF919F911F
:102220008F917F916F915F914F913F912F910F907F
:102230000BBE0F900FBE0F901F901895DC011996E2
:102240004D935D936D937C931C9751961D921D92B7
:102250001D921C92549750963C932E931F9717965D
:10226000EC91F0E010820E94E3160895FC01418792
:10227000528763877487118A128A138A148AA78106
:10228000B0E01C920E94E3160895EF92FF920F9324
:102290001F938C01E62EF22E0E945B16D801189631
:1022A000EC911897F0E0808181608083EE2DF0E062
:1022B000EE0FFF1FEC5FF74F118300831E96FC9219
:1022C0001E971296EC911297F0E08FEF8083509654
:1022D0001C921E921F971F910F91FF90EF900895EF
:1022E000EF92FF920F931F938C01E62EF22E0E9425
:1022F0005B16D8011896EC911897F0E08081816008
:102300008083EE2DF0E0EE0FFF1FEC5FF74F11839F
:1023100000831E96FC921E971296EC911297F0E0A5
:102320008FEF808350961C921E921F971F910F91E2
:10233000FF90EF900895FC01440F40837283618306
:102340000895FC01440F4083728361830895CF9206
:10235000DF92EF92FF920F931F93FC01D22EC02EBB
:1023600070E09B01225030401216130624F09B01AE
:10237000265F3F4F31977F01F694E794F694E794F8
:10238000CF0160E971E00E949354E60EF71EE40E5F
:10239000F11CCF0164E670E00E949354E61AF70A3C
:1023A0008FE691E0AC01249FC001259F900D349FE2
:1023B000900D11246CE070E00E94A754E60EF71E09
:1023C00000E010E0BF0180E090E02DE631E040E069
:1023D00050E00E9468546B587A4F8A409040E60E55
:1023E000F71E081F191FC801B70128E130E040E0BF
:1023F00050E00E9468546D0D711D811D911D2CE3EC
:1024000030E040E050E00E9468549B01AC012C0D8C
:10241000311D411D511DB901CA011F910F91FF903E
:10242000EF90DF90CF9008950F931F93DF93CF939A
:10243000CDB7DEB728970FB6F894DEBF0FBECDBF7D
:102440008C01FB0119823681832F6AE00E94875438
:10245000282F2295207F832F0E948754290F2068E0
:102460002A833581832F0E948754282F2295207F2D
:10247000832F0E948754290F2F772B833481832F3A
:102480000E948754282F2295207F832F0E948754F3
:10249000290F2F732C8387E08D833381832F0E9434
:1024A0008754282F2295207F832F0E948754290F3D
:1024B0002F732E833281832F0E948754282F2295D9
:1024C000207F832F0E948754290F2F712F83208113
:1024D0003181205D3740C9016AE070E00E94935469
:1024E000462F4295407FC9016AE070E00E949354F4
:1024F000480F4887F80181819281608148E09E0100
:102500002F5F3F4F0E94090381E028960FB6F89491
:10251000DEBF0FBECDBFCF91DF911F910F91089508
:10252000CF92DF92EF920F93DF93CF93CDB7DEB7C9
:1025300028970FB6F894DEBF0FBECDBF6C01FB012C
:10254000198280E88A838E2D6AE00E948754382F92
:102550003295307F8E2D0E948754390F3F773B8311
:10256000802F0E948754382F3295307F802F0E9411
:102570008754390F3F733C838FEF8D83822F0E94E6
:102580008754382F3295307F822F0E948754390F1D
:102590003F733E83842F0E948754282F2295207FEB
:1025A000842F0E948754290F2F712F83E05DF740FD
:1025B000CF016AE070E00E949354262F2295207F7D
:1025C000CF016AE070E00E949354280F2887F6013B
:1025D00081819281608148E09E012F5F3F4F0E9480
:1025E000090381E028960FB6F894DEBF0FBECDBF79
:1025F000CF91DF910F91EF90DF90CF900895CF9220
:10260000DF92EF92FF920F931F93DF93CF93CDB79B
:10261000DEB762970FB6F894DEBF0FBECDBF8C0158
:102620006B011982FC0181819281608141E07E0110
:102630000894E11CF11C97010E940903F8018181B3
:102640009281608147E097010E942D034981842F88
:1026500090E08F779070F4E095958795FA95E1F783
:102660009C01E3E0220F331FEA95E1F7880F991FE1
:10267000280F391F4F70420FF60146834A81842F7D
:1026800090E08F77907064E0959587956A95E1F773
:102690009C0153E0220F331F5A95E1F7880F991FD1
:1026A000280F391F4F70420F45834B81842F90E0D4
:1026B0008F73907014E0959587951A95E1F79C01BA
:1026C000B3E0220F331FBA95E1F7880F991F280F47
:1026D000391F4F70420F44834D81842F90E08F73D8
:1026E000907074E0959587957A95E1F79C0163E089
:1026F000220F331F6A95E1F7880F991F280F391FA2
:102700004F70420F43834E81842F90E08F71907001
:1027100004E0959587950A95E1F79C0113E0220F57
:10272000331F1A95E1F7880F991F280F391F4F7033
:10273000420F42838F8190E0AC014F705070405344
:10274000584FA4E095958795AA95E1F79C0173E011
:10275000220F331F7A95E1F7880F991F280F391F31
:10276000420F531F5183408381E062960FB6F89465
:10277000DEBF0FBECDBFCF91DF911F910F91FF90B4
:10278000EF90DF90CF9008952F923F924F925F92FB
:102790006F927F928F929F92AF92BF92CF92DF9271
:1027A000EF92FF920F931F93DF93CF93CDB7DEB7D6
:1027B00064970FB6F894DEBF0FBECDBF5C017C8B73
:1027C0006B8B1A012901380147011982FC018181B3
:1027D0009281608141E08E010F5F1F4F98010E943E
:1027E0000903F50181819281608147E098010E948F
:1027F0002D034981842F90E08F779070F4E09595B8
:102800008795FA95E1F79C01E3E0220F331FEA95E3
:10281000E1F7880F991F280F391F4F70420FF601FB
:1028200040834A81842F90E08F77907064E0959583
:1028300087956A95E1F79C0153E0220F331F5A9563
:10284000E1F7880F991F280F391F4F70420FF401CD
:1028500040834B81842F90E08F73907014E09595A6
:1028600087951A95E1F79C01B3E0220F331FBA95C3
:10287000E1F7880F991F280F391F4F70420FF3019E
:1028800040834D81842F90E08F739070F4E0959594
:102890008795FA95E1F79C01E3E0220F331FEA9553
:1028A000E1F7880F991F280F391F4F70420FF2016F
:1028B00040834E81842F90E08F71907064E09595F5
:1028C00087956A95E1F79C0153E0220F331F5A95D3
:1028D000E1F7880F991F280F391F4F70420FF10140
:1028E00040838F8190E0AC014F7050704053584F3F
:1028F00014E0959587951A95E1F79C01B3E0220FB6
:10290000331FBA95E1F7880F991F280F391F420F1F
:10291000531FEB89FC895183408381E064960FB695
:10292000F894DEBF0FBECDBFCF91DF911F910F9105
:10293000FF90EF90DF90CF90BF90AF909F908F90DF
:102940007F906F905F904F903F902F900895AF923F
:10295000BF92CF92DF92EF92FF920F931F93DF937C
:10296000CF93CDB7DEB727970FB6F894DEBF0FBE73
:10297000CDBF5B01BE016A5F7F4FAE014F5F5F4F0E
:102980009E012E5F3F4F8E010D5F1F4FB4E0EB2E77
:10299000F12CEC0EFD1EA5E0CA2ED12CCC0EDD1EB6
:1029A0000E94C4138AED97E061E041E020E000E07E
:1029B0000E94A7116B017C018E819F8169814A81F0
:1029C0002B810C810E94A7116C197D098E099F092A
:1029D0002CE330E040E050E00E9468542D81620F0B
:1029E000711D811D911DF501608371838283938325
:1029F00081E027960FB6F894DEBF0FBECDBFCF9112
:102A0000DF911F910F91FF90EF90DF90CF90BF90DB
:102A1000AF9008954F925F926F927F928F929F92A4
:102A2000AF92BF92CF92DF92EF92FF920F931F93DC
:102A3000DF93CF93CDB7DEB762970FB6F894DEBFC2
:102A40000FBECDBF6C012B013A014901580119821B
:102A5000FC0181819281608141E08E010F5F1F4FF7
:102A600098010E940903F60181819281608147E00B
:102A700098010E942D034A81842F90E08F779070F7
:102A800074E0959587957A95E1F79C0163E0220FB4
:102A9000331F6A95E1F7880F991F280F391F4F7070
:102AA000420FF70140834B81842F90E08F73907029
:102AB00004E0959587950A95E1F79C0113E0220FB4
:102AC000331F1A95E1F7880F991F280F391F4F7090
:102AD000420FF50140834D81842F90E08F739070F9
:102AE000A4E095958795AA95E1F79C01F3E0220F64
:102AF000331FFA95E1F7880F991F280F391F4F7080
:102B0000420FF40140834E81842F90E08F719070CA
:102B100074E0959587957A95E1F79C0163E0220F23
:102B2000331F6A95E1F7880F991F280F391F4F70DF
:102B3000420FF30140838F8190E0AC014F705070E1
:102B40004053584F24E0959587952A95E1F79C01CD
:102B500003E0220F331F0A95E1F7880F991F280F12
:102B6000391F420F531FF2015183408381E0629667
:102B70000FB6F894DEBF0FBECDBFCF91DF911F918E
:102B80000F91FF90EF90DF90CF90BF90AF909F900C
:102B90008F907F906F905F904F900895AF92BF920B
:102BA000CF92DF92EF92FF920F931F93DF93CF9319
:102BB00000D000D000D0CDB7DEB75B01BE016B5FA7
:102BC0007F4FAE014F5F5F4F9E012E5F3F4F8E01E3
:102BD0000D5F1F4FE4E0EE2EF12CEC0EFD1E0E9467
:102BE0000A1589ED97E065E049E020E000E00E94E9
:102BF000A7116B017C018D819E8169814A812B81A6
:102C00000C810E94A7116C197D098E099F09F5019D
:102C1000608371838283938381E026960FB6F89454
:102C2000DEBF0FBECDBFCF91DF911F910F91FF90FF
:102C3000EF90DF90CF90BF90AF900895EF92FF920A
:102C40000F931F93DF93CF93CDB7DEB762970FB685
:102C5000F894DEBF0FBECDBF8C011982FC018181CB
:102C60009281608141E07E010894E11CF11C970192
:102C70000E940903F80181819281608141E09701FE
:102C80000E942D03898180688A831982F8018181DD
:102C90009281608142E097010E94090362960FB61B
:102CA000F894DEBF0FBECDBFCF91DF911F910F9182
:102CB000FF90EF900895FC01418360836130A1F0A3
:102CC000613028F0623001F16330A9F52DC083E551
:102CD0008583868382E5878381E5828383838AE097
:102CE00098E0848387E51EC08FE485838EE4868325
:102CF0008CE487838AE4828388E4838386E4848304
:102D00008FE680871DBC17C083EB828384EB8383AF
:102D10008AE098E0848380EB858381EB868382EB75
:102D2000878380E7808707C012821382148215820E
:102D3000168217821086E781F0E010820895FC0168
:102D4000418360836130A1F0613028F0623001F18D
:102D50006330A9F52DC083E58583868382E587836B
:102D600081E5828383838AE098E0848387E51EC0BF
:102D70008FE485838EE486838CE487838AE4828370
:102D800088E4838386E484838FE680871DBC17C034
:102D900083EB828384EB83838AE098E0848380EBF7
:102DA000858381EB868382EB878380E7808707C0FA
:102DB0001282138214821582168217821086E7818E
:102DC000F0E010820895DC011696EC911697F0E081
:102DD0008081887F11969C91892B80830895DC01E6
:102DE0001696EC91F0E08081887F80830895AF9201
:102DF000BF92CF92DF92EF92FF920F931F93A0E0CA
:102E0000B0E0BC01CD010E94FA515B016C012BEADC
:102E10003AEA4AE250E40E94704F7B018C0120E0C4
:102E200030E040E85FE30E947651882314F461E0CB
:102E300054C0C801B70120E030E04FE753E40E94DE
:102E4000165118160CF045C0C601B50120E030E05F
:102E50004AE754E40E946A505B016C0120E030E0D4
:102E60004AEF54E40E94704F7B018C0120E030E077
:102E700040E85FE30E94765188231CF461E070E033
:102E800024C0C801B70120E03FEF4FE757E40E949C
:102E900016511816B4F4C601B50120E030E040E246
:102EA00051E40E94704F0E949A4D88EC90E005C05A
:102EB000FC013197F1F76150704061157105C1F760
:102EC0000EC0C801B7010E949A4DCB010197F1F7DE
:102ED00006C0C801B7010E949A4D6A95F1F71F918B
:102EE0000F91FF90EF90DF90CF90BF90AF9008953B
:102EF000CF93DF93EC0105C088EE93E00E94F716B4
:102F000021972097C9F7DF91CF910895CF93DF9351
:102F1000EC0105C08AE090E00E9478172197209785
:102F2000C9F7DF91CF9108958091260890912708E5
:102F3000A0912808B09129080196A11DB11D809388
:102F4000260890932708A0932808B093290808958D
:102F50000895FF920F931F93DF93CF93CDB7DEB702
:102F600060970FB6F894DEBF0FBECDBFF82E8B0171
:102F7000DE011196EAE9F1E080E101900D928150C5
:102F8000E1F788E796E5A4E3B2E180932E089093F9
:102F90002F08A0933008B093310810920B081092BC
:102FA0000C0810920D0810920E081092C50C109289
:102FB000C60C1092C70C1092C80C1092C90C10923B
:102FC000CA0C1092CB0C1092CC0C0E942D3E8BE0C0
:102FD00098E00E94CD39C8010E947D39BE016F5F23
:102FE0007F4FCB010E94243D8F2D62E044E450E0EE
:102FF00020E030E00E947C31F092320820E030E0A6
:10300000882311F021E030E0C90160960FB6F894F2
:10301000DEBF0FBECDBFCF91DF911F910F91FF900B
:103020000895FC014115510539F483E398E190932B
:10303000100880930F0804C05093100840930F08A5
:103040002115310539F488EA97E1909312088093AD
:10305000110804C03093120820931108862FBF0175
:103060000E94A91708950F931F93DF93CF93CDB7B5
:10307000DEB728970FB6F894DEBF0FBECDBF8C0128
:10308000DE011196EAEAF1E088E001900D928150AC
:10309000E1F70E942D3EC8010E947D3985EC9CE03D
:1030A0000E94953989EC9CE00E94B1398BE098E050
:1030B0000E94CD39BE016F5F7F4FCB010E94243D3E
:1030C00028960FB6F894DEBF0FBECDBFCF91DF912B
:1030D0001F910F910895BF92CF92DF92EF92FF92CE
:1030E0000F931F93DF93CF9300D000D0CDB7DEB7FF
:1030F000B82E7B0180E091E19093340880933308EF
:1031000010921308109214081092150810921608C5
:1031100010921708109218081092190810921A08A5
:10312000E0E0F091340884E292E0DF019C011D921E
:1031300021503040E1F7E0913308F0913408DD246C
:10314000D394D082E0913308F0913408D182E09199
:103150003308F091340886E0C82EC282E09133082B
:10316000F091340813820091330810913408609173
:103170002E0870912F0880913008909131080E949C
:103180004D3FD80114966D937D938D939C93179723
:10319000009133081091340880E090E00E94503F85
:1031A000F80191878087009133081091340880E0FE
:1031B00090E80E94503FD8011B969C938E931A97DB
:1031C000E0913308F0913408D7018C91848FE0911D
:1031D0003308F091340811968C911197858FE09106
:1031E0003308F091340812968C911297868FE091F3
:1031F0003308F091340813968C911397878FE091E0
:103200003308F091340814968C91149780A3E091C0
:103210003308F091340815968C91159781A3E091AD
:103220003308F0913408E451FF4F93E69083E09126
:103230003308F0913408E351FF4F82E88083E09136
:103240003308F0913408E251FF4F83E58083E09129
:103250003308F0913408E151FF4F9083E091330837
:10326000F0913408E051FF4F85E38083E09133080B
:10327000F0913408EF50FF4FD082E0913308F09185
:103280003408EE50FF4FD082E0913308F0913408BB
:10329000ED50FF4F8DE38083E0913308F0913408C7
:1032A000EC50FF4F87E08083E0913308F0913408C1
:1032B000EB50FF4FD082E0913308F0913408EA5090
:1032C000FF4F8C918083E0913308F0913408E950EE
:1032D000FF4F11968C9111978083E0913308F09104
:1032E0003408E850FF4F12968C9112978083E0913A
:1032F0003308F0913408E750FF4F13968C911397E1
:103300008083E0913308F0913408E650FF4F149623
:103310008C9114978083E0913308F0913408E55044
:10332000FF4F15968C918083E0913308F09134081B
:10333000E450FF4F8CE08083E0913308F091340833
:10334000E350FF4F89E080838091330890913408E7
:1033500082509F4F65E671E00E94D356E09133089A
:10336000F0913408EC5FFE4FD70113968C911397C0
:103370008083E0913308F0913408EB5FFE4F1496A0
:103380008C9114978083E0913308F0913408EA5FC0
:10339000FE4F15968C918083E0913308F0913408AC
:1033A000E95FFE4F87E38083E0913308F0913408B2
:1033B000E85FFE4FC082E0913308F0913408E75F88
:1033C000FE4FD082E0913308F0913408E65FFE4F63
:1033D00083E08083E0913308F0913408E55FFE4F8D
:1033E000C082E0913308F0913408E45FFE4F8FE033
:1033F0008083E0913308F0913408E35FFE4F8AE365
:103400008083E0913308F0913408E25FFE4F8BE354
:103410008083E0913308F0913408E15FFE4F8FEF35
:10342000808389838A838B838C8360913308709136
:1034300034088B2D44E252E09E012F5F3F4F03E49E
:1034400010E00E944332892B39F4E0911108F09189
:103450001208309709F009950F900F900F900F9078
:10346000CF91DF911F910F91FF90EF90DF90CF9060
:10347000BF900895DF92EF92FF920F931F93DF9317
:10348000CF9300D000D0CDB7DEB7D82E7B01E0E0DF
:10349000F1E1F0933408E093330884E292E0DF0135
:1034A0009C011D9221503040E1F7E0913308F091EA
:1034B000340881E08083E0913308F09134088183FF
:1034C000E0913308F091340886E08283E09133087C
:1034D000F091340813820091330810913408609100
:1034E0002E0870912F0880913008909131080E9429
:1034F0004D3FD80114966D937D938D939C931797B0
:10350000009133081091340880E090E00E94503F11
:10351000F8019187808780911F08009133081091EE
:103520003408833050F480E090E80E94503FD80186
:103530001B969C938E931A971BC0F80113861286D4
:1035400080910B088487E0913308F09134088091D2
:103550000C088587E0913308F091340880910D08BC
:103560008687E0913308F091340880910E088787B0
:10357000E0913308F0913408D7018C91848FE09169
:103580003308F091340811968C911197858FE09152
:103590003308F091340812968C911297868FE0913F
:1035A0003308F091340813968C911397878FE0912C
:1035B0003308F091340814968C91149780A3E0910D
:1035C0003308F091340815968C91159781A3E091FA
:1035D0003308F0913408E451FF4F93E69083E09173
:1035E0003308F0913408E351FF4F82E88083E09183
:1035F0003308F0913408E251FF4F83E58083E09176
:103600003308F0913408E151FF4F9083E091330883
:10361000F0913408E051FF4F85E38083E091330857
:10362000F0913408EF50FF4F91E09083E091330820
:10363000F0913408EE50FF4F83E08083E09133082F
:10364000F0913408ED50FF4F8DE38083E091330813
:10365000F0913408EC50FF4F87E08083E09133080D
:10366000F0913408EB50FF4F9083E0913308F091D4
:103670003408EA50FF4F8C918083E0913308F09139
:103680003408E950FF4F11968C9111978083E09197
:103690003308F0913408E850FF4F12968C9112973E
:1036A0008083E0913308F0913408E750FF4F139680
:1036B0008C9113978083E0913308F0913408E650A1
:1036C000FF4F14968C9114978083E0913308F0910A
:1036D0003408E550FF4F15968C91808380911F0828
:1036E000833018F000E110E069C0E0913308F091F8
:1036F0003408E450FF4F82E38083E0913308F09177
:103700003408E350FF4F94E09083E0913308F09148
:103710003408E250FF4F80910B088083E09133081A
:10372000F0913408E150FF4F80910C088083E091C4
:103730003308F0913408E050FF4F80910D088083EA
:10374000E0913308F0913408EF5FFE4F80910E084E
:103750008083E0913308F0913408EE5FFE4F86E3FA
:103760008083E0913308F0913408ED5FFE4F908341
:10377000E0913308F0913408EC5FFE4F809113081C
:103780008083E0913308F0913408EB5FFE4F809125
:1037900014088083E0913308F0913408EA5FFE4F0B
:1037A000809115088083E0913308F0913408E95F37
:1037B000FE4F8091160880830CE110E0E091330801
:1037C000F0913408E00FF11FE451FF4F8CE080834B
:1037D000E0913308F0913408E00FF11FE351FF4FFF
:1037E00089E08083980122513F4F80913308909166
:1037F0003408820F931F65E671E00E94D356E09172
:103800003308F0913408E00FF11FEC50FF4FD7015F
:1038100013968C9113978083E0913308F0913408CC
:10382000E00FF11FEB50FF4F14968C91149780839B
:10383000E0913308F0913408E00FF11FEA50FF4F98
:1038400015968C918083E0913308F0913408E00F55
:10385000F11FE950FF4F87E38083E0913308F09137
:103860003408E00FF11FE850FF4F88E08083E091BB
:103870003308F0913408E00FF11FE750FF4F81E06B
:103880008083E0913308F0913408E00FF11FE65097
:10389000FF4F83E08083E0913308F0913408E00F1C
:1038A000F11FE550FF4F86E08083E0913308F091EF
:1038B0003408E00FF11FE450FF4F8FE08083E09168
:1038C0003308F0913408E00FF11FE350FF4F8AE313
:1038D0008083E0913308F0913408E00FF11FE2504B
:1038E000FF4F8BE38083E0913308F0913408E00FC1
:1038F000F11FE150FF4F8FE1808398012C5E3F4F15
:10390000E0913308F0913408E20FF31FE451FF4FC8
:1039100081E28083E0913308F0913408E20FF31FD5
:10392000E351FF4F9FEF908380911F08833028F46D
:1039300099839A839B839C830CC08091130889830D
:10394000809114088A83809115088B8380911608D2
:103950008C8360913308709134088D2D44E252E0DD
:103960009E012F5F3F4F03E410E00E944332892BFA
:1039700039F4E0911108F0911208309709F0099597
:103980000F900F900F900F90CF91DF911F910F919B
:10399000FF90EF90DF9008951F93BC01E091200805
:1039A000E33008F03FC020912A0830912B08409165
:1039B0002C0850912D088091260890912708A091FD
:1039C0002808B0912908281739074A075B0708F02B
:1039D00048C01092260810922708109228081092CA
:1039E000290885E090E0A0E0B0E080932A08909359
:1039F0002B08A0932C08B0932D08EF5FE0932008CC
:103A000080911F08823049F0843039F0813049F5C7
:103A1000809132080E946B1824C0809132080E9465
:103A20003A1A1FC0109226081092270810922808F0
:103A30001092290885E090E0A0E0B0E080932A0889
:103A400090932B08A0932C08B0932D081092200877
:103A500011E010932108809132080E946B18109396
:103A60001F081F9108952F923F924F925F927F926D
:103A70008F929F92AF92BF92CF92DF92EF92FF927E
:103A80000F931F93DF93CF93CDB7DEB72C970FB66D
:103A9000F894DEBF0FBECDBF782E5B0127E028175C
:103AA00008F44DC10E94EF3A882309F448C1872DDC
:103AB0000E94463C9B01AC016115710509F447C1A8
:103AC00080E099E1909334088093330847E0842E96
:103AD000912C8C0E9D1E872D60E079E1A901940147
:103AE0008E010F5F1F4F0E942B336C010091330832
:103AF00010913408D8018C91823009F028C1898155
:103B00009A818334910509F022C1C8014C96B50110
:103B100046E050E00E94AB56009709F018C1F8014A
:103B2000E480F5800681178160912E0870912F083E
:103B300080913008909131080E944D3FE616F706BB
:103B40000807190709F003C1E0901308F090140862
:103B50000091150810911608E114F10401051105F2
:103B6000C1F0D4012D913D914D915C918091170848
:103B700090911808A0911908B0911A08821793071C
:103B8000A407B50731F0E216F3060407150709F09C
:103B9000DEC0E0913308F091340880899189A289D0
:103BA000B38980930B0890930C08A0930D08B093F1
:103BB0000E08DF01A051BF4F2F014C0C5D1C992452
:103BC000882427E0222E312C2C0E3D1EB3C08D01FF
:103BD0000F5F1F4F8C91863009F440C0873048F446
:103BE0008130D9F0813008F4A2C0833009F09CC044
:103BF00025C0853369F0863320F4833309F094C0FF
:103C00003FC0863309F44EC08F3F09F08DC0A0C07D
:103C1000F80191908F0180808AC0D8019D908D011C
:103C20008D919D910D90BC91A02D8093C90C909386
:103C3000CA0CA093CB0CB093CC0C79C0F801919036
:103C40008F0180819181A281B3818093C50C909373
:103C5000C60CA093C70CB093C80C69C011969C9079
:103C60000F5F1F4FF80180819181A281B381809302
:103C7000960190939701A0939801B093990157C032
:103C8000D8019D908D016D917D918D919C910E94A7
:103C9000623F6093220870932308809324089093D6
:103CA000250845C0F80191908F01C0901308D0906D
:103CB0001408E0901508F0901608C114D104E1042E
:103CC000F104B9F0D1012D913D914D915C9180911C
:103CD000170890911808A0911908B0911A08821736
:103CE0009307A407B50729F0C216D306E406F50624
:103CF000F1F4F80180819181A281B381809313084E
:103D000090931408A0931508B0931608F1018081D0
:103D10009181A281B3818093170890931808A09392
:103D20001908B0931A0803C0D8019D908D01D801DD
:103D3000A90DB11DA415B50508F449CF08C0872DFC
:103D400062E044E450E020E030E00E947C318824CE
:103D500080911F08823071F1833020F4813009F0A6
:103D6000D3C207C0833009F4E7C1843009F0CCC264
:103D700047C2B2E08B1609F0C0C21092260810921A
:103D80002708109228081092290885E090E0A0E00A
:103D9000B0E080932A0890932B08A0932C08B0934E
:103DA0002D0810922008872DB5010E943A1A8092A2
:103DB0001F08AAC2E5E08E1609F0B9C110922608C4
:103DC00010922708109228081092290885E090E0A8
:103DD000A0E0B0E080932A0890932B08A0932C08D1
:103DE000B0932D0810922008809132086CE671E0A3
:103DF00041E150E02BE038E008E813E10E94433253
:103E0000892B09F490C1E0903208E0E0F1E1F093F1
:103E10003408E093330884E292E0DF019C011D92B4
:103E200021503040E1F7E0913308F0913408FF244D
:103E3000F394F082E0913308F0913408F182E0913C
:103E40003308F091340886E08283E0913308F091E2
:103E500034081382009133081091340860912E08C1
:103E600070912F0880913008909131080E944D3F49
:103E7000D80114966D937D938D939C931797009121
:103E800033081091340880E090E00E94503FF80120
:103E900091878087E0913308F09134081386128669
:103EA000D5018C91848FE0913308F09134081196FC
:103EB0008C911197858FE0913308F0913408129618
:103EC0008C911297868FE0913308F0913408139605
:103ED0008C911397878FE0913308F09134081496F2
:103EE0008C91149780A3E0913308F09134081596D3
:103EF0008C91159781A3E0913308F0913408E45137
:103F0000FF4F93E69083E0913308F0913408E3513A
:103F1000FF4F82E88083E0913308F0913408E2514A
:103F2000FF4F83E58083E0913308F0913408E1513D
:103F3000FF4F9083E0913308F0913408E051FF4F38
:103F400085E38083E0913308F0913408EF50FF4F10
:103F5000F082E0913308F0913408EE50FF4F94E086
:103F60009083E0913308F0913408ED50FF4F8DE3DA
:103F70008083E0913308F0913408EC50FF4F87E0E4
:103F80008083E0913308F0913408EB50FF4FF082CA
:103F9000E0913308F0913408EA50FF4F8C91808310
:103FA000E0913308F0913408E950FF4F11968C915D
:103FB00011978083E0913308F0913408E850FF4F67
:103FC00012968C9112978083E0913308F091340817
:103FD000E750FF4F13968C9113978083E09133083D
:103FE000F0913408E650FF4F14968C91149780831B
:103FF000E0913308F0913408E550FF4F15968C910D
:104000008083E0913308F0913408E450FF4F86E359
:104010008083E0913308F0913408E350FF4F9083A0
:10402000E0913308F0913408E250FF4F809113087B
:104030008083E0913308F0913408E150FF4F809184
:1040400014088083E0913308F0913408E050FF4F6A
:10405000809115088083E0913308F0913408EF5F78
:10406000FE4F809116088083E0913308F091340868
:10407000EE5FFE4F82E38083E0913308F0913408D5
:10408000ED5FFE4F9083E0913308F0913408EC5FD0
:10409000FE4F80910B088083E0913308F091340843
:1040A000EB5FFE4F80910C088083E0913308F09124
:1040B0003408EA5FFE4F80910D088083E091330859
:1040C000F0913408E95FFE4F80910E088083E09103
:1040D0003308F0913408E85FFE4F8FEF80838B83C5
:1040E0008C838D838E8360913308709134088E2D7C
:1040F00044E252E09E012D5F3F4F03E410E00E9436
:104100004332892B39F4E0911108F091120830976D
:1041100009F00995E0911108F0911208309709F41F
:10412000F0C00995EEC0C5010E943318CAC0B6E0C0
:104130008B1609F0E2C0CAC02091220830912308F2
:1041400040912408509125082F3FEFEF3E07EFEFF5
:104150004E07EFEF5E0709F4D7C0569547953795A0
:1041600027958091260890912708A0912808B09162
:104170002908281739074A075B0708F0C5C080914E
:104180000B0890910C08A0910D08B0910E08809337
:104190001B0890931C08A0931D08B0931E088091E3
:1041A0002E0890912F08A0913008B0913108019607
:1041B000A11DB11D80932E0890932F08A093300865
:1041C000B0933108872DB5010E943A1A84E080939C
:1041D0001F081092260810922708109228081092A3
:1041E000290885E090E0A0E0B0E080932A08909351
:1041F0002B08A0932C08B0932D081092200884C09F
:10420000F5E08F1609F05FC08BE198E06BE078E095
:1042100044E050E00E94AB560097E9F160911B0822
:1042200070911C0880911D0890911E080E94623FA9
:104230000E94F7418C0160910B0870910C088091ED
:104240000D0890910E080E94623F0E94F74100D035
:1042500000D000D0EDB7FEB731962EE731E0ADB714
:10426000BEB712963C932E931197138302839583C6
:1042700084830E94F456E0910F08F09110082DB746
:104280003EB72A5F3F4F0FB6F8943EBF0FBE2DBF1B
:10429000309709F00995109226081092270810927D
:1042A00028081092290885E090E0A0E0B0E0809313
:1042B0002A0890932B08A0932C08B0932D081092F5
:1042C000200883E01FC036E08316B9F41092260858
:1042D00010922708109228081092290885E090E093
:1042E000A0E0B0E080932A0890932B08A0932C08BC
:1042F000B0932D081092200804C0C5010E94CC1C68
:1043000003C081E080931F082C960FB6F894DEBF9F
:104310000FBECDBFCF91DF911F910F91FF90EF9016
:10432000DF90CF90BF90AF909F908F907F905F90E5
:104330004F903F902F900895CF93DF93EC018091A1
:104340003208BE010E946B1881E080931F08109212
:10435000260810922708109228081092290885E054
:1043600090E0A0E0B0E080932A0890932B08A093FF
:104370002C08B0932D081092200880E090E064E9AA
:1043800077E10E940E391092210810C08091210817
:10439000813039F480E090E00E941E3920E030E066
:1043A0000BC080913208BE010E94331D80911F080E
:1043B000833061F721E030E0C901DF91CF910895AA
:1043C0000F931F93DF93CF93CDB7DEB7CE5FD3406C
:1043D0000FB6F894DEBF0FBECDBFBC01009719F435
:1043E00000E010E014C08E010F5F1F4FC8010E9453
:1043F000D356C80162EB71E00E94DA3E8C0165EB96
:1044000071E00E94CA56009711F00F5F1F4FC8015C
:10441000C250DC4F0FB6F894DEBF0FBECDBFCF91B8
:10442000DF911F910F9108950F931F93CF93DF9307
:104430008C01CB0167EB71E00E94DA3EEC01009742
:1044400009F446C069EB71E00E94CA56009739F042
:10445000CE016DEB71E00E94CA56009711F481E025
:104460000FC0CE0161EC71E00E94CA56009739F08E
:10447000CE0166EC71E00E94CA56009759F482E0C2
:10448000F801808380E090E067EB71E00E94DA3E03
:10449000EC011CC0CE016BEC71E00E94CA56009783
:1044A00039F0CE0160ED71E00E94CA56009759F4D0
:1044B00080E090E065ED71E00E94DA3EEC0183E07F
:1044C000F801808303C0F801108205C0209719F419
:1044D000F801108205C0C8010296BE010E94D356A1
:1044E000DF91CF911F910F9108950F931F93CF9359
:1044F000DF938C01EB01CB0167ED71E00E94DA568E
:10450000009709F079C0CE016CED71E00E94DA5697
:10451000009711F082E071C0CE0161EE71E00E945F
:10452000DA56009709F058C0CE0167EE71E00E949C
:10453000DA56009709F050C0CE016CEE71E00E948F
:10454000DA56009739F4CE0162EF71E00E94DA5634
:10455000009711F084E051C0CE0167EF71E00E9436
:10456000DA56009711F085E048C0CE016CEF71E09B
:104570000E94DA56009739F4CE0162E072E00E94A0
:10458000DA56009711F086E038C0CE0167E072E09D
:104590000E94DA56009711F087E02FC0CE016CE040
:1045A00072E00E94DA56009739F4CE0161E172E0C0
:1045B0000E94DA56009711F088E01FC0CE0166E134
:1045C00072E00E94DA56009739F4CE016AE172E097
:1045D0000E94DA56009711F083E00FC0CE016EE121
:1045E00072E00E94DA56009739F4CE0163E272E07D
:1045F0000E94DA56009721F081E0F801808302C022
:10460000F8011082DF91CF911F910F910895CF9201
:10461000DF92EF92FF920F931F93DF93CF93CDB76B
:10462000DEB72A970FB6F894DEBF0FBECDBF6C0180
:10463000613029F4A8E2EA2EA2E0FA2E29C0623005
:1046400029F4F3E6EF2EF2E0FF2E22C0633029F4C6
:10465000EEE9EE2EE2E0FE2E1BC0643029F47AED86
:10466000E72E72E0F72E14C0653029F466E1E62EDD
:1046700063E0F62E0DC0663029F495E6E92E93E04E
:10468000F92E06C0673021F481EAE82E83E0F82E87
:104690008DB79EB708970FB6F8949EBF0FBE8DBF1B
:1046A000EDB7FEB731968E010F5F1F4FADB7BEB7A6
:1046B00012961C930E93119782EE93E0938382835C
:1046C00024833583468357830E9479578DB79EB7DD
:1046D00008960FB6F8949EBF0FBE8DBFC601B701F6
:1046E0000E94D356C601B8010E94BF56C60166EEAD
:1046F00073E00E94BF562A960FB6F894DEBF0FBE35
:10470000CDBFCF91DF911F910F91FF90EF90DF9080
:10471000CF9008958F929F92AF92BF92CF92DF92E7
:10472000EF92FF921F93CF93DF934C015C01CC2457
:10473000DD24EE24FF241DC0F5018083853281F441
:1047400089810E94433E182F8A810E94433E129520
:10475000107F180FF501108382E090E0E80EF91E3B
:104760000894C11CD11C0894E11CF11C0894A11CE4
:10477000B11CE401CE0DDF1D88818823E9F6C80C49
:10478000D91CF6011082DF91CF911F91FF90EF901D
:10479000DF90CF90BF90AF909F908F900895EF9251
:1047A000FF920F931F93DF93CF93CDB7DEB7CE5F0A
:1047B000D3400FB6F894DEBF0FBECDBF9C017B0186
:1047C000009741F16115710529F18E010F5F1F4FAF
:1047D000C801B9010E94D356C801B7010E94DA5638
:1047E0008C010097C9F0F70101900020E9F7EE195C
:1047F000FF098E0F9F1F6BEE73E00E94DA3E8C0163
:10480000009751F00E948A23C8016BE240E20E94A7
:104810000E3F02C000E010E0C801C250DC4F0FB6EE
:10482000F894DEBF0FBECDBFCF91DF911F910F91E6
:10483000FF90EF900895F89480EC85BF80E480931A
:104840006D0078940895FFCFAF92BF92CF92DF9220
:10485000EF92FF920F931F93CF93DF93EC018B01A5
:104860006A01590186EDE82E87E0F82EC70160E263
:1048700070E040E250E00E94B8560115110529F1A0
:104880008DB79EB708970FB6F8949EBF0FBE8DBF29
:10489000EDB7FEB73196ADB7BEB71296FC92EE9269
:1048A000119780E190E09383828382EF93E0958378
:1048B0008483178306830E943B578DB79EB7089663
:1048C0000FB6F8949EBF0FBE8DBFC114D10429F15D
:1048D000ADB7BEB718970FB6F894BEBF0FBEADBF49
:1048E000EDB7FEB7319686EE97E012969C938E93C5
:1048F000119780E190E09383828382EF93E0958328
:104900008483D782C6820E943B578DB79EB7089694
:104910000FB6F8949EBF0FBE8DBFE881F98101905C
:10492000F081E02DCE010995E881F9810280F381C3
:10493000E02DCE010995B50180E090E00E94FA518A
:104940005B016C0120E030E04AEF54E40E94704FBC
:104950007B018C0120E030E040E85FE30E9476516B
:1049600088231CF461E070E024C0C801B70120E096
:104970003FEF4FE757E40E9416511816B4F4C601F2
:10498000B50120E030E040E251E40E94704F0E9407
:104990009A4D88EC90E005C0FC013197F1F7615029
:1049A000704061157105C1F707C0C801B7010E94C9
:1049B0009A4DCB010197F1F7DF91CF911F910F91A4
:1049C000FF90EF90DF90CF90BF90AF900895AF929F
:1049D000BF92CF92DF92EF92FF920F931F93CF93EC
:1049E000DF936C01E091F907F091FA0783AD88231A
:1049F00029F033E0E32E31E0F32E03C02BE2E22E68
:104A0000F12CEE0EFF1EC6EDD7E0CE0160E270E0A5
:104A100040E250E00E94B8568DB79EB708970FB697
:104A2000F8949EBF0FBE8DBFADB7BEB71196EDB760
:104A3000FEB7D283C18390E1A92EB12C1396BC920C
:104A4000AE92129785EF93E015969C938E931497F0
:104A5000E091F907F091FA07818D928D17969C935A
:104A60008E9316970E943B578DB79EB708960FB648
:104A7000F8949EBF0FBE8DBFD60112968C918330E5
:104A800009F4A7C0843050F4813009F449C09E0174
:104A9000205F3F4F823008F06BC00AC0853009F4B8
:104AA000ECC0853008F4C2C0863009F05CC128C172
:104AB000A091F707B091F807CDB7DEB760970FB6B2
:104AC000F894DEBF0FBECDBFEDB7FEB731963A8387
:104AD0002983B382A28282E094E0958384838D91BE
:104AE0009C9111979783868312968C911297808759
:104AF000118613968C9113978287138614968C9146
:104B000014978487158615968C91868717860E9440
:104B10003B5781E0F60182838DB79EB7409653C024
:104B20000DEC1CE04091F9075091FA074B5D5F4F87
:104B3000C601B8010E94020BADB7BEB718970FB6F9
:104B4000F894BEBF0FBEADBFEDB7FEB7319660960D
:104B50001296DC93CE931197B382A2828BE194E0FC
:104B600095838483178306830E943B5782E053C05A
:104B70008DB79EB708970FB6F8949EBF0FBE8DBF36
:104B8000ADB7BEB71196CDB7DEB73A83298313967A
:104B9000BC92AE92129783E294E015969C938E930A
:104BA0001497E091F907F091FA0781A592A517965D
:104BB0009C938E9316970E943B5783E0F601828365
:104BC0008DB79EB708960FB6F8949EBF0FBE8DBFE7
:104BD000CAC00DEC1CE0C601B801A7010E94020B7F
:104BE000ADB7BEB718970FB6F894BEBF0FBEADBF36
:104BF000EDB7FEB7319660961296DC93CE9311977F
:104C0000B382A28280E394E0958384831783068332
:104C10000E943B5784E0E6018A83EDB7FEB73896E1
:104C20000FB6F894FEBF0FBEEDBF9DC00DEC1CE0AB
:104C300084E090E0E80EF91EC601B801A7010E94C9
:104C4000020BADB7BEB718970FB6F894BEBF0FBE34
:104C5000ADBFEDB7FEB7319660961296DC93CE935A
:104C60001197B382A28282EF93E0958384831783A6
:104C700006830E943B5785E0CECFD70150968C919A
:104C80009E01205F3F4F8823D9F000D000D000D094
:104C9000EDB7FEB73196CDB7DEB73A832983B3823D
:104CA000A28286E394E0958384830E943B57EDB70C
:104CB000FEB736960FB6F894FEBF0FBEEDBF1CC010
:104CC00000D000D000D0EDB7FEB73196ADB7BEB77B
:104CD00012963C932E931197B382A2828FE394E0B5
:104CE000958384830E943B57CDB7DEB726960FB6D7
:104CF000F894DEBF0FBECDBF86E0F601828333C0DD
:104D00008DB79EB708970FB6F8949EBF0FBE8DBFA4
:104D1000ADB7BEB711966096EDB7FEB7D283C1832B
:104D20001396BC92AE92129789E494E015969C93E8
:104D30008E931497E091F907F091FA07E651FF4F2F
:104D40008081918117969C938E9316970E943B5772
:104D5000D60112961C92CDB7DEB728960FB6F894FE
:104D6000DEBF0FBECDBFC6010E94C70BDF91CF9142
:104D70001F910F91FF90EF90DF90CF90BF90AF9079
:104D80000895CF92DF92EF92FF920F931F93DF93DC
:104D9000CF93CDB7DEB760970FB6F894DEBF0FBEE6
:104DA000CDBF6C0180914908823049F0833061F0B9
:104DB000813081F4CE01019663E574E009C0CE0133
:104DC00001966CE574E004C0CE01019666E674E0DD
:104DD0000E94D35606ED17E0C80160E270E040E2A1
:104DE00050E00E94B8568DB79EB708970FB6F8945A
:104DF0009EBF0FBE8DBFEDB7FEB73196ADB7BEB744
:104E000012961C930E93119770E1E72EF12CF3820A
:104E1000E2828CE694E095838483CE0101969783A9
:104E200086830E943B572091350830913608409187
:104E300037085091380800D0EDB7FEB73196005FC3
:104E40001F4FADB7BEB712961C930E931197F38206
:104E5000E28283E794E095838483CA01AA27BB2773
:104E600097838683318720870E943B578DB79EB7F3
:104E70000A960FB6F8949EBF0FBE8DBFC6010E9462
:104E8000C70B60960FB6F894DEBF0FBECDBFCF91B3
:104E9000DF911F910F91FF90EF90DF90CF900895D9
:104EA0004F925F926F927F928F929F92AF92BF923A
:104EB000CF92DF92EF92FF920F931F93CF93DF93E6
:104EC0009FB7F89480EC85BF80E480936D001092CA
:104ED00051081092520810925308109254089FBF24
:104EE0001092550810925908109258088AE598E0D7
:104EF0000E94790214E8412E18E0512EC2016AE5A1
:104F000078E04FE60E94A11187E898E00E94C04334
:104F1000B8E88B2EB8E09B2EC40167E878E00E94C9
:104F20009B4C1091A5080091A6081092A60910921A
:104F3000A5091092A2091092A1091092A409109239
:104F4000A3091092AA091092A9091092A809109217
:104F5000A7091092B0091092AF091092AC091092F3
:104F6000AB091092AE091092AD091092B4091092DB
:104F7000B3091092B2091092B109CEE9D9E0CE017D
:104F80000E941A48CE0164E043ED0E948044CE01A5
:104F900065E041E90E948044CE01612F0E94A74450
:104FA000CE01602F0E94954480E690E00E94A655B5
:104FB0009093AA098093A909009709F4EFC0A8E08B
:104FC0006A2E712C7092A6096092A5098CE090E07F
:104FD0000E94A6559093B4098093B309009709F4F1
:104FE000DCC081E090E09093B0098093AF0910920B
:104FF000A00910929E0910929F0989EB99E00E94E6
:105000000B090AEB19E0C80169EB79E00E94D400B2
:1050100089E491E09093BF098093BE0984EE94E007
:105020009093C1098093C0091092C2091093D507CB
:105030000093D4071092F6079092FA078092F9072E
:1050400081E39AE09093F8078093F70710920008A5
:1050500010920108FEE1AF2EB12CB092FD07A09294
:10506000FC078CEE94E09093C4098093C3092091CF
:10507000B1083091B208E090AD08F090AE08009110
:10508000AF081091B00885EC99E041E050E060E095
:1050900070E0E0E8CE2ED12C0E94FF0EE090A10837
:1050A000F090A2080091A3081091A4081092080A99
:1050B00010920C0A10920B0A1092170A1092160AFC
:1050C0001092130A1092120A1092150A1092140AE2
:1050D00010921B0A10921A0A1092190A1092180ABA
:1050E0009092100A80920F0AD0930E0AC0930D0A74
:1050F00080EE90E00E94A65590931B0A80931A0AB6
:10510000009709F449C07092170A6092160AE0925B
:10511000000AF092010A0093020A1093030A109207
:10512000040A1092050A1092060A1092070A509279
:10513000FF094092FE09B0920A0AA092090A88E487
:105140009AE068E07AE00E9496308CE19AE062E0B2
:1051500047E021E001E00E94BD2F83E29AE062E097
:1051600048E021E00E94BD2F8AE29AE062E048E038
:1051700021E00E94BD2FDF91CF911F910F91FF90F1
:10518000EF90DF90CF90BF90AF909F908F907F90E7
:105190006F905F904F900895FFCFFFCFFFCFDF93C9
:1051A000CF93CDB7DEB728970FB6F894DEBF0FBE0A
:1051B000CDBFDE011196E0EFF4E088E001900D92A2
:1051C0008150E1F70E942D3E80E49CE90197F1F7C0
:1051D00087EA98E00E947D398BEB98E00E94953930
:1051E00087EB98E00E94B13983EB98E00E94CD39BB
:1051F000BE016F5F7F4FCB010E94243D28960FB602
:10520000F894DEBF0FBECDBFCF91DF9108950F930D
:105210001F93DF93CF9300D000D000D0CDB7DEB77F
:105220008091AC0889838091AB088A838091AA0819
:105230008B838091A9088C838091A8088D838091AD
:10524000A7088E838EEB99E06DE774E04AE854E09E
:1052500028EC30E00E9424248E010F5F1F4FC8010C
:1052600060E040E050E020E030E00E941118C8010A
:105270000E949C21892BF9F087EA98E00E94693905
:1052800083E999E00E9487398FE899E00E94A33969
:105290008BE899E00E94BF3981E080939B098EEBF7
:1052A00099E06DE774E043E954E028EC30E00E94B7
:1052B000242481E00BC08EEB99E06DE774E04DE9AA
:1052C00054E028EC30E00E94242480E026960FB6BB
:1052D000F894DEBF0FBECDBFCF91DF911F910F912C
:1052E00008958091C308882321F00E94072988230C
:1052F000B1F48EEB99E067EA74E041EB54E028ECFE
:1053000030E00E9424240E94CF288EEB99E067EAC7
:1053100074E045EB54E028EC30E00E94242408952A
:10532000CF92DF92EF92FF920F931F93CF93DF9371
:10533000EC016A014115510511F4CC80DD807B013F
:1053400000E010E029C02A813B81C901880F991F24
:10535000820F931F880F991F880F991FE885F98581
:10536000D701E80FF91F8CE001900D928150E1F711
:105370008CE090E0E80EF91E8A819B816C817D8132
:1053800001960E9493549B838A830F5F1F4F8E81E7
:105390009F8101979F838E830C151D0520F48E81BC
:1053A0009F81892B81F6C801DF91CF911F910F91C9
:1053B000FF90EF90DF90CF9008958F929F92AF92E1
:1053C000BF92CF92DF92EF92FF920F931F93DF93E2
:1053D000CF93CDB7DEB72C970FB6F894DEBF0FBED4
:1053E000CDBF89B7806889BF7E010894E11CF11C9C
:1053F0007AEB872E74E0972E62ECA62E64E0B62E30
:1054000058ECC52E54E0D52E8091A0098823E1F3F5
:105410001092A00981EA99E0B70141E050E00E94B2
:10542000902900D0ADB7BEB712969C928E9211977C
:105430000E94F45600E010E00F900F9019C000D0C9
:1054400000D0EDB7FEB73196ADB7BEB71296BC929D
:10545000AE921197D701A00FB11F8C918283138256
:105460000E94F4560F5F1F4F0F900F900F900F90F8
:10547000898190E00817190714F3EDB7FEB7389744
:105480000FB6F894FEBF0FBEEDBF3196ADB7BEB7F5
:105490001296DC92CE9211978A85828313828B8535
:1054A000848315828E81868317820E94F456EDB71D
:1054B000FEB738960FB6F894FEBF0FBEEDBFA4CF6F
:1054C0000F931F93F89480EC85BF80E480936D0068
:1054D000789409EB19E0C8010E94D509C8010E941F
:1054E000D509C8010E94D50904E818E0C8010E9446
:1054F0001E16C80161E37AE00E94FF128DE390E07E
:1055000090935708809356081F910F9108958091AA
:10551000550810925508882331F084E898E061E33B
:105520007AE00E94FF1208950F931F93DF93CF93A9
:10553000CDB7DEB72C970FB6F894DEBF0FBECDBF48
:105540008EEF99E00E9411368091A7099091A809E9
:10555000892B79F081EA99E08E010F5F1F4FB80126
:1055600041E050E00E9490298EEF99E0B8010E943E
:10557000B6378091180A9091190A892B09F474C0E2
:105580008091140A9091150A2CE130E0AC01429F01
:10559000C001439F900D529F900D1124E0911A0A73
:1055A000F0911B0AA5E3B8E0E80FF91F8CE1019028
:1055B0000D928150E1F78091140A9091150A609143
:1055C000160A7091170A01960E9493549093150A37
:1055D0008093140A8091180A9091190A0197909368
:1055E000190A8093180A80914908823081F48CE16D
:1055F0009AE00E94583080E197E228EC30E0F9010F
:105600003197F1F70197D9F78CE19AE023C0833005
:1056100081F483E29AE00E94583080E197E228EC1E
:1056200030E0F9013197F1F70197D9F783E29AE079
:1056300011C0843089F48AE29AE00E94583080E1F7
:1056400097E228EC30E0F9013197F1F70197D9F7AB
:105650008AE29AE00E94463083EC99E00E94C126DB
:1056600083EC99E00E943A0B2C960FB6F894DEBFBB
:105670000FBECDBFCF91DF911F910F9108950E9472
:10568000602A88E49AE065E578E00E9496308CE133
:105690009AE00E94463083E29AE00E9446308AE215
:1056A0009AE00E944630789480EC99E09093BD098E
:1056B0008093BC0988E49AE06BEF77E00E94963013
:1056C00088E49AE00E94C93089B7806889BF0E9447
:1056D000942AFDCFFC011286089520E0FC0182850A
:1056E000893009F421E0822F08951F93CF93DF932F
:1056F000FC01162F862F84568B3968F06387F89447
:10570000C0E4D0E0CE01612F0E94FB592196C03643
:10571000D105C1F77894DF91CF911F910895CF9271
:10572000DF92EF92FF920F931F93DF93CF93CDB74A
:10573000DEB728970FB6F894DEBF0FBECDBF1D822F
:105740001E821F821886F8946E010894C11CD11C19
:10575000760100E410E0C8010E94E959F701819345
:105760007F010F5F1F4F04341105A9F785E0E82E74
:10577000F12CEC0EFD1E9601D701A70110C080810F
:10578000891719F48C918F5F8C9331964E175F07B0
:10579000B1F72F5F3F4F11964217530721F0F901E0
:1057A0009081F601ECCF30E0DD2480E090E0BE0196
:1057B0006B5F7F4FAE014F5F5F4FFB01E80FF91F3B
:1057C0002081321710F0232F04C0FA01E80FF91FCF
:1057D000D08001968430910511F0322FEECF00E495
:1057E00010E0F7018081853020F4C8016D2D0E9402
:1057F000FB590894E11CF11C0F5F1F4F0434110585
:1058000081F778948D2D28960FB6F894DEBF0FBEE1
:10581000CDBFCF91DF911F910F91FF90EF90DF905F
:10582000CF900895CF92DF92EF92FF920F93DF9384
:10583000CF93CDB7DEB727970FB6F894DEBF0FBE74
:10584000CDBF7C0169018AE589830A83802F809519
:105850008B834C83F70183858D836E83C901602F11
:1058600070E00E9446488F83F70180819181BE01DC
:105870006F5F7F4F47E050E00E948C05F701808109
:105880009181B601402F50E00E948C0527960FB6FB
:10589000F894DEBF0FBECDBFCF91DF910F91FF9087
:1058A000EF90DF90CF900895CF93DF93EC016FB727
:1058B000F8942D853E854F8558898B819C81AD81DB
:1058C000BE8182179307A407B50728F41A861D86A0
:1058D0001E861F86188A6FBF8A85843009F47FC0B0
:1058E000853060F4813009F445C08130D0F08230D9
:1058F00009F44EC0833009F0FCC063C0873009F45E
:10590000CDC0883038F4853009F477C0863009F08E
:10591000F0C081C0883009F4B0C0893009F0E9C016
:10592000E0C0BE016F5E7F4F8881998141E050E009
:105930000E94CE06019709F0DDC089898A3509F0F9
:10594000D9C01A8281E08A878FB7F8941D861E8697
:105950001F86188A8FBF2F81388540E050E060E0B5
:105960007BE388E598E00E94DC542B833C834D83E5
:105970005E83C0C0BE016E5E7F4F8881998141E029
:1059800050E00E94CE06019709F0B4C082E017C033
:10599000BE016D5E7F4F8881998141E050E00E9499
:1059A000CE06019709F0A6C02B8930E08A8990E0E5
:1059B000282739272F3F310509F09BC083E08A87CC
:1059C00099C0BE016C5E7F4F8881998141E050E0B3
:1059D0000E94CE06019709F08DC084E0F0CFBE0191
:1059E0006B5E7F4F8881998141E050E00E94CE0636
:1059F000019709F07FC085E0E2CFBE016A5E7F4F6C
:105A00008881998141E050E00E94CE06019709F01B
:105A100071C086E0D4CFBE01695E7F4F88819981D5
:105A200041E050E00E94CE06019709F063C01A825F
:105A30008FB7F8941D861E861F86188A8FBF6A89C5
:105A400070E080E090E020E03DE241E351E00E9420
:105A500068542F81388540E050E00E94DC542B834D
:105A60003C834D835E839C898B85981711F0992325
:105A700011F487E0A4CF88E0A2CF688D798D88816A
:105A8000998141E050E00E94CE06019799F58A8104
:105A90008F5F8A839A89891769F52BC08A81688DFF
:105AA000798D680F711D8881998141E050E00E94D5
:105AB000CE060197F9F46A816F5F6A838A89681755
:105AC000C9F4888D998D70E00E9446489F89891796
:105AD00081F49C898B85981711F0992351F489E002
