:100000000C944A000C9474000C9474000C947400CA
:100010000C9474000C9474000C9474000C94740090
:100020000C940B4E0C9474000C94E73E0C947400EA
:100030000C94C30E0C9474000C941B0F0C9474005D
:100040000C94470F0C9474000C9423330C9474009C
:100050000C9474000C9474000C9474000C94740050
:100060000C9474000C9474000C9474000C94740040
:100070000C9474000C9474000C94AA330C947400C7
:100080000C9474000C944B040C94740029069D2568
:100090000833183B11241FBECFEFD0E1DEBFCDBF28
:1000A00018E0A0E0B1E0E8E7F2EC00E00BBF02C02E
:1000B00007900D92A63DB107D9F71EE0A6EDB8E076
:1000C00001C01D92AB38B107E1F710E0C4E9D0E000
:1000D00004C02297FE010E945A5BCC38D107C9F7B1
:1000E0000E94E82D0C943A610C94000081E0089580
:1000F000DF92EF92FF920F931F937C01D62EFC01AB
:1001000080819181642F422F0E942305F701808115
:1001100091814D2D413108F040E1B8010E949305D5
:1001200081E01F910F91FF90EF90DF900895CF92A3
:10013000DF92EF92FF920F931F937C01262FD42E14
:10014000C52EE42FF52FDF010D900020E9F78D017A
:10015000015010400E1B1F0BFC018081918160E05B
:10016000422F0E942305D7018D919C91402F013190
:1001700008F040E16D2D7C2D0E94930581E01F91D8
:100180000F91FF90EF90DF90CF900895FC01808158
:1001900091810E94FB0481E00895FC01808191819E
:1001A0000E94FB0481E008950F931F938B01CB0104
:1001B0000E94FB04C80160E040E00E9423051F91FB
:1001C0000F9108950F931F938B01CB010E94FB04A5
:1001D000C80160E040E00E9423051F910F9108953F
:1001E000FC011086178211821082138212821682FD
:1001F000158214820895FC011086178211821082E4
:10020000138212821682158214820895FC012081C5
:100210003181828193812817390738F040815181DB
:1002200082819381481B590B0AC0408151812281F0
:10023000338187819085480F591F421B530B2781BB
:10024000308521503040241B350BC9010895FC0135
:1002500020813181828193812817390738F04081CC
:10026000518182819381481B590B0AC04081518181
:100270002281338187819085480F591F421B530B80
:10028000CA010895AF92BF92CF92DF92EF92FF9290
:100290000F931F93CF93DF93EC016B015A018E8173
:1002A000882319F400E010E03CC0288139818A815C
:1002B0009B812817390738F0E880F9808A819B8173
:1002C000E81AF90A0AC0E880F9802A813B818F8107
:1002D0009885E80EF91EE21AF30A00E010E015C056
:1002E00088819981EC81FD81E80FF91FD6018D91FC
:1002F0006D018083888199816F81788501960E9444
:10030000BD5A998388830F5F1F4F98012E0D3F1DA3
:100310000A151B0530F48F81988501972817390736
:10032000F8F2C801DF91CF911F910F91FF90EF90EC
:10033000DF90CF90BF90AF9008950F931F938C01E3
:100340000E94060140E0F8012781308521503040AD
:100350008217930709F441E0842F1F910F910895AC
:10036000FC0113821282118210820895AF92BF9213
:10037000CF92DF92EF92FF920F931F93CF93DF9371
:10038000EC016B015A01288139818A819B812817F0
:10039000390738F0088119818A819B81081B190B64
:1003A0000AC0088119812A813B818F819885080FB5
:1003B000191F021B130BEE24FF2416C08A819B8198
:1003C000EC81FD81E80FF91F8081F60181936F01B7
:1003D0008A819B816F81788501960E94BD5A9B839B
:1003E0008A830894E11CF11CEA14FB0418F40E152E
:1003F0001F0521F7C701DF91CF911F910F91FF904A
:10040000EF90DF90CF90BF90AF900895CF93DF93A0
:10041000DC01EB012D913C91119712968D919C91ED
:1004200013972817390750F04D915C911197129648
:100430008D919C911397481B590B0FC04D915C9166
:10044000119712962D913C91139717968D919C912F
:100450001897480F591F421B530B12966D917C91B0
:1004600013979A010CC01496ED91FC911597E60F25
:10047000F71F808189936F5F7F4F21503040211596
:10048000310589F7CA01DF91CF9108950F931F932A
:10049000CF93DF93EC018B01CB010E94D05B9D8356
:1004A0008C83009719F41E8280E004C081E08E8363
:1004B00018870F83DF91CF911F910F9108959B01B2
:1004C000809171008E7F80937100809171008D7F8B
:1004D0008093710040E050E060E47FE180E090E0D4
:1004E0000E94E45A203130F0822F90E04097959599
:1004F0008795282F2093700008950F931F938C01E8
:1005000088988998909A919ADC0196961C921E92EE
:10051000959798961C921E92979760E971E00E94B9
:100520005F02E4E7F0E0808184608083D8011C9260
:100530008081816080838081806480831093D7086C
:100540000093D6081F910F9108950F931F938C016C
:1005500088988998909A919ADC0196961C921E929E
:10056000959798961C921E92979760E971E00E9469
:100570005F02E4E7F0E0808184608083D8011C9210
:100580008081816080838081806480831093D7081C
:100590000093D6081F910F91089580E0411181E0EA
:1005A0006E7F862B809372000895FC0176A365A36D
:1005B0000895FC0170A767A30895E4E7F0E0808147
:1005C0008F70806A80830895E4E7F0E080818F7007
:1005D000806D808308958091740087FFFCCF08951B
:1005E00060937300E4E7F0E080818F70806880831F
:1005F0000895662329F0809174008F70806C04C088
:10060000809174008F708068809374000895809149
:1006100073000895809171000895CF93DF93EC01EA
:10062000522F932F88818823E9F782E088836E7F99
:1006300069A7DE01252F392FC901FC0102C0819174
:100640008C9311968E2F851B8417C8F3198A4A8BB9
:10065000809174008F70806A80937400DF91CF91D5
:100660000895FC01522F80818823E9F783E080837D
:10067000616061A713A244A3809174008F70806AA7
:100680008093740080818823E9F7DF01852F932F01
:100690009C01F90104C052968C9152978193119656
:1006A0008E2F851B8417B8F30895CF93DF93EC0149
:1006B00080917100887F803609F492C0813670F590
:1006C000883209F45EC0893298F4803109F457C049
:1006D000813138F4882309F4D4C0883009F0D8C0B7
:1006E0004EC0883109F44DC0803209F0D1C0C9C074
:1006F000803409F46CC0813438F4803309F4C1C00B
:10070000883309F0C5C055C0803509F457C0883515
:1007100009F445C0883409F0BBC0B3C0883909F476
:1007200071C08939B0F4883709F45AC0893738F470
:10073000883609F455C0803709F0AAC051C08838FE
:1007400009F460C0803909F44FC0803809F0A0C0B6
:100750004BC0803B09F46BC0813B38F4803A09F40C
:1007600056C0883A09F094C062C0803C09F484C045
:10077000883C09F481C0883B09F08AC065C089A51E
:100780000BC099898A89981708F07BC0FE01E90F90
:10079000F11D81819F5F998B8093730066C08BA14F
:1007A00090917300FE01E80FF11D938B8F5F8BA377
:1007B00068C0809174008F70806867C08BA1909131
:1007C0007300FE01E80FF11D938B8F5F8BA32BA1AC
:1007D00030E08CA190E00197281739079CF40FC0F6
:1007E00085E088831BA23CC08BA190917300FE0121
:1007F000E80FF11D938B8F5F8BA3803118F4CE012E
:1008000061E002C0CE0160E00E94F90241C0809127
:1008100074008F70806C80937400EDA1FEA13097FE
:10082000B1F1BE016D5E7F4F8BA1099530C084E0B0
:100830008883EFA1F8A5309731F0BE016F5F7F4F3D
:1008400080E109958A8B198A9989FE01E90FF11DCA
:100850008181809373009F5F998B8A89981728F410
:10086000809174008F70806C04C0809174008F70D0
:100870008068809374000CC0809174008F70806CCD
:1008800004C0809174008F70806D80937400188212
:10089000DF91CF9108951F920F920FB60F920BB672
:1008A0000F9211242F933F934F935F936F937F93F6
:1008B0008F939F93AF93BF93EF93FF938091D6084D
:1008C0009091D7080E945503FF91EF91BF91AF918E
:1008D0009F918F917F916F915F914F913F912F9158
:1008E0000F900BBE0F900FBE0F901F901895FC013C
:1008F0008081089508950895DF93CF9300D000D0AC
:10090000CDB7DEB71CC01A82198211C01C821B82AF
:1009100005C08B819C8101969C838B838B819C81FC
:10092000892BB9F389819A8101969A838983898178
:100930009A81039758F341505040604070404115F0
:10094000510561057105F9F60F900F900F900F900A
:10095000CF91DF910895DF93CF9300D000D000D0E6
:10096000CDB7DEB788E790E01BC01A82198211C0AC
:100970001C821B8205C08B819C8101969C838B838A
:100980008B819C81892BB9F389819A8101969A8305
:10099000898389819A81039758F38D819E8101977C
:1009A0009E838D838D819E81892BF9F626960FB6C5
:1009B000F894DEBF0FBECDBFCF91DF9108951F9396
:1009C000162F48E750E060E070E00E947C04C49875
:1009D000C59882B3912F907F8F70982B92BBC69A47
:1009E000C69882B31295107F8F70812B82BBC69AF6
:1009F000C6981F9108950F931F938C010E94AB041A
:100A0000C80161E00E94DF041F910F9108951F93B8
:100A1000162F48E750E060E070E00E947C04C49A22
:100A2000C59882B3912F907F8F70982B92BBC69AF6
:100A3000C69882B31295107F8F70812B82BBC69AA5
:100A4000C6981F9108950F931F93CF93DF93EC01E6
:100A5000162F042F0E94AB04013049F0013028F01A
:100A6000023039F0033061F406C0105805C010544C
:100A700003C01C5601C01C52CE01612F0E94DF042E
:100A8000DF91CF911F910F9108951F93CF93DF9323
:100A9000EC011FB7F89488E893E128EC30E0F90105
:100AA0003197F1F70197D9F7CE014CE652E060E0BB
:100AB00070E00E947C04BD9ABC9ABE9A81B3806F9C
:100AC00081BBC698C498C598CE014CE652E060E060
:100AD00070E00E947C04CE0168E20E94DF04CE0137
:100AE0006CE10E94DF04CE016CE00E94DF04CE01C5
:100AF00061E00E94DF04CE0162E00E94DF04CE01CB
:100B000048E150E160E070E00E947C04CE010E9468
:100B1000FB04CE0160E040E00E9423051FBFDF918F
:100B2000CF911F910895CF92DF92EF92FF920F9392
:100B30001F93CF93DF937C01062FD72EC42E862FD1
:100B4000972F9C01E90110E008C0C7010E94AB0487
:100B5000C70169910E9407051F5F1C15B0F3802F24
:100B60009D2DDF91CF911F910F91FF90EF90DF901E
:100B7000CF900895FF920F931F938C01F62E0E9441
:100B8000AB04C8016F2D0E9407051F910F91FF90C4
:100B900008950F931F93DF93CF93CDB7DEB7CF5F49
:100BA000D0400FB6F894DEBF0FBECDBFCA5FDE4F98
:100BB00008811981C650D1409E01235F3E4FCE016E
:100BC0000196C55FDE4F68817981CB50D140A90184
:100BD0000E94205EC65FDE4F8881CA50D14081FFEF
:100BE00003C0C8010E94FB04C65FDE4F8881CA5063
:100BF000D14080FF0DC0C801C85FDE4F6881C8507A
:100C0000D140C75FDE4F4881C950D1400E942305C3
:100C1000FE013196DF010D900020E9F71197AE1B20
:100C2000BF0BA031B10510F040E101C04A2FC8014F
:100C3000BE016F5F7F4F0E949305C150DF4F0FB61B
:100C4000F894DEBF0FBECDBFCF91DF911F910F9102
:100C50000895109205091092090910920809089543
:100C6000CF93DF93DA018DB79EB742970FB6F89412
:100C70009EBF0FBE8DBFEDB7FEB73196CDB7DEB7C5
:100C80007A83698380E190E09383828380E091E0BE
:100C9000958384838C918683178211968C9111970A
:100CA0008087118612968C911297828713861396ED
:100CB0008C9113978487158614968C911497868748
:100CC000178615968C91808B118A0E94B15D8DB725
:100CD0009EB742960FB6F8949EBF0FBE8DBFDF91B0
:100CE000CF910895CF93DF93DA018DB79EB70E971A
:100CF0000FB6F8949EBF0FBE8DBFEDB7FEB731960D
:100D0000CDB7DEB77A83698380E190E093838283F5
:100D10008EE191E0958384838C918683178211966E
:100D20008C9111978087118612968C9112978287E9
:100D3000138613968C91848715860E94B15D8DB7BA
:100D40009EB70E960FB6F8949EBF0FBE8DBFDF9173
:100D5000CF9108958F929F92AF92BF92CF92DF92E0
:100D6000EF92FF920F931F93DF93CF93CDB7DEB730
:100D70006B970FB6F894DEBF0FBECDBFDE011196A4
:100D8000EAE2F1E08BE101900D928150E1F72CE075
:100D9000A22E29E0B22E9AE0C92E99E0D92EEE2497
:100DA000FF244E010894811C911CF5016081209163
:100DB000DE083091DF08870184E0000F111F8A955B
:100DC000E1F7613128F1F6018081681B080F111DE0
:100DD0000052174FC90140E02E2D0E947800F60105
:100DE0006081F5014081461B8091DE089091DF080B
:100DF0002E2D84010E947800F601808190E0F5019B
:100E00006081019670E00E94D15AF601808308C08B
:100E10000052174FC90160E140E02E2D0E9478007A
:100E20000894E11CF11C0894A11CB11C0894C11C7D
:100E3000D11CF2E0EF16F10409F0B7CF10920509CA
:100E400010920909109208096B960FB6F894DEBF4C
:100E50000FBECDBFCF91DF911F910F91FF90EF900B
:100E6000DF90CF90BF90AF909F908F900895E0EE6D
:100E7000F8E0DF010D900020E9F71197AE1BBF0BE2
:100E8000A0930C0910920A097096DF010D900020C2
:100E9000E9F77097A15FB840A0930D0910920B0974
:100EA0008081882309F480E2819389E0E030F807AB
:100EB000B9F70895FC0181E591E091838083148A5C
:100EC000138A108A1786128A118A108E178A168A38
:100ED000158A168E158E128E118E148E138E12A2F6
:100EE00011A210A2178E0895FC0181E591E0918373
:100EF0008083148A138A108A1786128A118A108EA8
:100F0000178A168A158A168E158E128E118E148ED9
:100F1000138E12A211A210A2178E08950895FC013B
:100F2000128A118A108A1786168A158A0895FC017A
:100F3000258D368D878D90A1281B390BC901089509
:100F4000FC01858996890895CF92DF92EF92FF92F6
:100F50000F931F93DF93CF930F92CDB7DEB77C0132
:100F60008B016115710571F417C08983D701ED916B
:100F7000FC910280F381E02DC701B60141E050E011
:100F8000099504C06E010894C11CD11CF8010F5FC3
:100F90001F4F8491882349F70F90CF91DF911F91C4
:100FA0000F91FF90EF90DF90CF900895FC01438761
:100FB0005487658776870895AF92BF92CF92DF926C
:100FC000EF92FF920F931F93DF93CF930F92CDB7C2
:100FD000DEB78C015B016A014115510509F447C078
:100FE0006115710509F443C0EE24FF24F501EE0DEF
:100FF000FF1DE491E9834FB7F894D8015F962D91D6
:101000003C9190975D968D919C915E97281739073A
:1010100018F020E030E022C0D8019196ED91FC91CB
:10102000929759968D919C915A97E80FF91F898153
:10103000808359968D919C915A975D966D917C9184
:101040005E9701960E94BD5AF801928F818F878D1D
:1010500090A1019690A3878F21E030E04FBF0894C4
:10106000E11CF11CCE14DF0409F0C0CF02C020E067
:1010700030E0C9010F90CF91DF911F910F91FF9048
:10108000EF90DF90CF90BF90AF900895EF92FF92D6
:101090000F931F93CF93DF93EC017B018A014115DE
:1010A000510511F40C811D8120E030E018C0E88565
:1010B000F9858A819B81E80FF91F80818C938A8151
:1010C0009B816C817D8101960E94BD5A9B838A839E
:1010D0002F5F3F4F8E819F8101979F838E83D70122
:1010E000A20FB31F2017310720F48E819F81892B17
:1010F000F1F6C901DF91CF911F910F91FF90EF9011
:1011000008950F9640E050E00E94460808950F961B
:101110000E9446080895CF93DF93DB010D900020D5
:10112000E9F71197A61BB70BEC01E881F981028062
:10113000F381E02DAD010995DF91CF910895EF92F4
:10114000FF920F931F93DF93CF93CDB7DEB7CF5F9F
:10115000D0400FB6F894DEBF0FBECDBFC85FDE4FE4
:10116000E880F980C850D1409E01245F3E4F8E0137
:101170000F5F1F4FC801C65FDE4F68817981CA507B
:10118000D140A9010E94205ED8010D900020E9F70E
:101190001197A01BB10BF70180819181FC01228185
:1011A0003381C701B801AD01F9010995C150DF4F85
:1011B0000FB6F894DEBF0FBECDBFCF91DF911F9168
:1011C0000F91FF90EF9008950F931F93CF93DF93AC
:1011D000EC018B016F3F710509F028F4CB010E94EF
:1011E000D05B8F8B988F8F89988D892BC9F01C8B42
:1011F0000B8B0F3F110509F028F4C8010E94D05B4A
:1012000089A39AA389A19AA1892B49F01E8F0D8FDA
:1012100081E08A87DF91CF911F910F910895FFCFD1
:10122000FFCFFC017183608353834283158208954D
:10123000FC01718360835383428315820895CF93A9
:10124000DF93EC01888199810E942D2F88819981FB
:101250000E942D2E882381F0E881F981008CF18D88
:10126000E02D84E08C838181882311F081E08C83E0
:10127000888199810E942A2EDF91CF910895AF92A3
:10128000BF92DF92EF92FF920F931F93DF93CF9362
:10129000CDB7DEB77C0182E0F7018483DD2480EDE9
:1012A000A82E87E0B82EF7018081918165816F5F5C
:1012B0006583615040E09E01245F3F4F01E20E9440
:1012C000D22E00E010E00CC0C7010E941F09C5012A
:1012D0000197F1F70F5F1F4FF7E0003D1F0731F057
:1012E000F7018481813011F0843071F7F701848136
:1012F000813029F0D394F3E0DF16A9F680E0CF9196
:10130000DF911F910F91FF90EF90DF90BF90AF9012
:101310000895CF92DF92FF920F931F93DF93CF93A5
:10132000CDB7DEB7A1970FB6F894DEBF0FBECDBF25
:101330006C016983FC0102811381FFB6F894C80136
:1013400060E070E046EE50E00E944F60FFBEF801A2
:10135000818D928DA38DB48D8A839B83AC83BD8355
:101360002DB73EB7215230400FB6F8943EBF0FBEA6
:101370002DBFADB7BEB71196FE01319681E2019047
:101380000D928150E1F7C6010E943F09EDB7FEB70B
:10139000B1960FB6F894FEBF0FBEEDBFA1960FB683
:1013A000F894DEBF0FBECDBFCF91DF911F910F919B
:1013B000FF90DF90CF9008950F931F93CF93DF930B
:1013C000EC018B0165E00E9489098823B1F0E88176
:1013D000F981008CF18DE02D8081853071F481815F
:1013E000882359F082819381A481B581F80180839B
:1013F0009183A283B38381E001C080E0DF91CF912C
:101400001F910F9108950F931F93CF93DF93EC01DA
:10141000162F072F66E00E9489098823B9F0E8811A
:10142000F981008CF18DE02D8081863079F4818105
:10143000882361F0812F902F9C01D901329686E09C
:1014400001900D928150E1F781E001C080E0DF91D1
:10145000CF911F910F9108950F931F93CF93DF9317
:10146000EC01162F072F67E00E9489098823B9F045
:10147000E881F981008CF18DE02D8081873079F44D
:101480008181882361F0812F902F9C01D9013296B0
:1014900086E001900D928150E1F781E001C080E08B
:1014A000DF91CF911F910F9108950F931F93CF93C9
:1014B000DF93EC01162F072F68E00E94890988232B
:1014C000B9F0E881F981008CF18DE02D80818830C0
:1014D00079F48181882361F0812F902F9C01D901BB
:1014E000329681E101900D928150E1F781E001C0D7
:1014F00080E0DF91CF911F910F9108950F931F937B
:10150000CF93DF93EC01162F072F63E00E94890928
:101510008823B9F0E881F981008CF18DE02D80817C
:10152000833079F48181882361F0812F902F9C0191
:10153000D901329688E301900D928150E1F781E064
:1015400001C080E0DF91CF911F910F9108950F931B
:101550001F93CF93DF93EC01162F072F60E00E94BB
:1015600089098823B9F0E881F981008CF18DE02D9B
:101570008081882379F48181882361F0812F902FE5
:101580009C01D901329687E001900D928150E1F7DC
:1015900081E001C080E0DF91CF911F910F9108950C
:1015A0004F925F926F927F928F929F92AF92BF9273
:1015B000DF92EF92FF920F931F93DF93CF93CDB7FC
:1015C000DEB7A1970FB6F894DEBF0FBECDBF7C018A
:1015D0008B0184E08983D7011296ED91FC911397DA
:1015E000818D928DA38DB48D8A839B83AC83BD83C3
:1015F000DE011696FB0188E001900D928150E1F723
:10160000688479848E809F8098E0A92EB12CA00EEA
:10161000B11EDD242E010894411C511CEDB7FEB70C
:10162000B1970FB6F894FEBF0FBEEDBFADB7BEB712
:101630001196F20181E201900D928150E1F7C7010C
:101640000E943F092DB73EB72F5D3F4F0FB6F8946C
:101650003EBF0FBE2DBF882309F3D701ED91FC914A
:10166000008CF18DE02D848195818615970541F5DB
:10167000828193818815990519F59801AF014E5F14
:101680005F4F88E0DA010D90AD01D9010D929D0107
:101690008150C1F7D5013A9680E401900D928150B6
:1016A000E1F7C50160E470E040E050E00E94904E38
:1016B000F801268137818217930711F481E006C073
:1016C000D394F3E0FD1508F0A9CF80E0A1960FB602
:1016D000F894DEBF0FBECDBFCF91DF911F910F9168
:1016E000FF90EF90DF90BF90AF909F908F907F9092
:1016F0006F905F904F900895DF93CF93CDB7DEB793
:10170000A1970FB6F894DEBF0FBECDBF9C0189E054
:101710008983DE011696FE01B6968CE101900D924A
:101720008150E1F78DB79EB781970FB6F8949EBFB1
:101730000FBE8DBFADB7BEB71196FE01319681E2E7
:1017400001900D928150E1F7C9010E943F092DB728
:101750003EB72F5D3F4F0FB6F8943EBF0FBE2DBF73
:10176000A1960FB6F894DEBF0FBECDBFCF91DF912B
:101770000895DF93CF93CDB7DEB7A1970FB6F89456
:10178000DEBF0FBECDBF9C0181E08983DE011696CE
:10179000FE01B6968BE101900D928150E1F78DB775
:1017A0009EB781970FB6F8949EBF0FBE8DBFADB7A1
:1017B000BEB71196FE01319681E201900D928150E3
:1017C000E1F7C9010E943F092DB73EB72F5D3F4F9A
:1017D0000FB6F8943EBF0FBE2DBFA1960FB6F8947A
:1017E000DEBF0FBECDBFCF91DF910895FC01128601
:1017F00081E00895FC0113A614A615A616A681E0A3
:1018000080AF0895CF92DF92EF92FF920F931F93D4
:10181000CF93DF93EC016B017A014FB7F89400E0AE
:1018200010E018C0E885F98588819981E80FF91FD3
:101830008C918083888199816C817D8101960E9441
:10184000BD5A998388830F5F1F4F8E819F810196B8
:101850009F838E83D601A00FB11F0E151F0538F48C
:101860002E813F818C819D8128173907D8F24FBF87
:10187000C801DF91CF911F910F91FF90EF90DF9002
:10188000CF9008954115510541F06115710529F07A
:1018900049960E94020C9C0102C020E030E0C90180
:1018A0000895AF92BF92CF92DF92EF92FF920F9383
:1018B0001F93CF93DF93EC018BA10E941941282F36
:1018C0008CA19DA1835F9D4109F0FFCF233109F4D5
:1018D000BDC0243120F4222309F4A7C0BEC02731A3
:1018E00021F02C3109F0B9C099C08EA99FA90F8DA4
:1018F00018A18017910708F48C0101151105A1F1B9
:10190000ECA8FDA820E030E018C0E9A1FAA18B8D79
:101910009C8DE80FF91F80818C938B8D9C8D6D8D34
:101920007E8D01960E94BD5A9C8F8B8F2F5F3F4FFB
:101930008F8D98A1019798A38F8FD701A20FB31F06
:101940002017310720F48F8D98A1892BF1F66CA90F
:101950007DA92EA93FA940E050E08BA10E94813AC9
:101960001BA61CA61DA61EA68BA10E9470425B0191
:101970006C01611571058105910579F18B899C894F
:101980002D893E89821B930B9C0140E050E08EA97B
:101990009FA9A0E0B0E082179307A407B50710F451
:1019A0009C01AD0179018A01A216B306C406D506D1
:1019B00010F4860175016CA97DA98BA1A80197017E
:1019C0000E94E5386CA97DA9CE010F96A7010E945F
:1019D000020C1BA61CA61DA61EA688AD882371F0AE
:1019E0008BA59CA5ADA5BEA50697A105B10530F0B8
:1019F0008BA10E940F378BA10E947A378FA51FA65B
:101A0000882359F18BA59CA5ADA5BEA50196A11D66
:101A1000B11D8BA79CA7ADA7BEA71FC08BA10E941D
:101A20000F378BA10E947A3718C08F8D98A1892B10
:101A3000A1F01BA61CA61DA61EA68BA161E043EF6C
:101A40005DE120E030E00E94863707C08BA1A796B9
:101A5000BE0143EF5DE10E941B37DF91CF911F91E3
:101A60000F91FF90EF90DF90CF90BF90AF900895CF
:101A70000F931F93CF93DF93EC018B016F3F7105A1
:101A800009F028F4CB010E94D05B8887998788856C
:101A90009985892B41F01D830C8381E0DF91CF91E3
:101AA0001F910F910895FFCF9F92AF92BF92CF9257
:101AB000DF92EF92FF920F931F93CF93DF93EC018E
:101AC000942E59010E945A078DE591E099838883ED
:101AD0001FA61BAA1AAA9BA2BDA2ACA281E08A875C
:101AE000DFAACEAAC114D104C1F0CE010F96B6016F
:101AF0000E94380D882309F41A86CE014996B60152
:101B00000E94380D882309F41A86C6010E94D05B12
:101B10009DAB8CAB009709F41A861B821A8219863A
:101B200081E08EA3EFA2F8A609A71AA7892D0E942B
:101B30000F37892D0E947A378EE190E099AB88AB00
:101B4000BE01615D7F4F8EE59BE00E94B43218AE0E
:101B5000DF91CF911F910F91FF90EF90DF90CF9089
:101B6000BF90AF909F9008959F92AF92BF92CF92F7
:101B7000DF92EF92FF920F931F93CF93DF93EC01CD
:101B8000942E59010E945A078DE591E0998388832C
:101B90001FA61BAA1AAA9BA2BDA2ACA281E08A879B
:101BA000DFAACEAAC114D104C1F0CE010F96B601AE
:101BB0000E94380D882309F41A86CE014996B60191
:101BC0000E94380D882309F41A86C6010E94D05B52
:101BD0009DAB8CAB009709F41A861B821A8219867A
:101BE00081E08EA3EFA2F8A609A71AA7892D0E946B
:101BF0000F37892D0E947A378EE190E099AB88AB40
:101C0000BE01615D7F4F8EE59BE00E94B43218AE4D
:101C1000DF91CF911F910F91FF90EF90DF90CF90C8
:101C2000BF90AF909F900895DC011296EC911297AF
:101C3000F0E060831596EC911597F0E080818E7F3F
:101C400080831596EC911597F0E080818260808307
:101C50001696EC91F0E08081877F80830895FC01E7
:101C6000613051F0613018F0623089F40BC0E085CA
:101C7000F0E080818E7F04C0E085F0E080818D7F80
:101C800080830895E085F0E080818D7F80830895D2
:101C9000FC01613051F0613018F0623089F40BC002
:101CA000E085F0E08081816004C0E085F0E0808123
:101CB000826080830895E085F0E080818260808387
:101CC0000895FC01708B67870895CF93DF93EC0133
:101CD000EA81F0E0208189899A89AB89BC89820FE9
:101CE000911DA11DB11D898B9A8BAB8BBC8B298556
:101CF0003A854B855C8582179307A407B507A0F04A
:101D0000EF85F889309729F0198A1A8A1B8A1C8A6C
:101D100009958E85882321F4CE010E94441504C0C4
:101D2000198A1A8A1B8A1C8ADF91CF9108951F9203
:101D30000F920FB60F920BB60F9211242F933F9371
:101D40004F935F936F937F938F939F93AF93BF93C3
:101D5000EF93FF9380911209909113090E94650EF1
:101D6000FF91EF91BF91AF919F918F917F916F9173
:101D70005F914F913F912F910F900BBE0F900FBE2F
:101D80000F901F9018951F920F920FB60F920BB6DF
:101D90000F9211242F933F934F935F936F937F93F1
:101DA0008F939F93AF93BF93EF93FF93809110090D
:101DB000909111090E94650EFF91EF91BF91AF9133
:101DC0009F918F917F916F915F914F913F912F9153
:101DD0000F900BBE0F900FBE0F901F9018951F9283
:101DE0000F920FB60F920BB60F9211242F933F93C1
:101DF0004F935F936F937F938F939F93AF93BF9313
:101E0000EF93FF9380910E0990910F090E94650E48
:101E1000FF91EF91BF91AF919F918F917F916F91C2
:101E20005F914F913F912F910F900BBE0F900FBE7E
:101E30000F901F9018951F920F920FB60F920BB62E
:101E40000F9211242F933F934F935F936F937F9340
:101E50008F939F93AF93BF93EF93FF93809110095C
:101E6000909111090E94650EFF91EF91BF91AF9182
:101E70009F918F917F916F915F914F913F912F91A2
:101E80000F900BBE0F900FBE0F901F9018951F92D2
:101E90000F920FB60F920BB60F9211242F933F9310
:101EA0004F935F936F937F938F939F93AF93BF9362
:101EB000EF93FF9380910E0990910F090E94650E98
:101EC000FF91EF91BF91AF919F918F917F916F9112
:101ED0005F914F913F912F910F900BBE0F900FBECE
:101EE0000F901F901895DC0119964D935D936D939B
:101EF0007C931C9751961D921D921D921C92549793
:101F000050963C932E931F971796EC91F0E0108219
:101F10000E9438150895FC014187528763877487B2
:101F2000118A128A138A148AA781B0E01C920E9437
:101F300038150895EF92FF920F931F938C01E62EB0
:101F4000F22E0E94B014D8011896EC911897F0E088
:101F5000808181608083EE2DF0E0EE0FFF1FE25F55
:101F6000F64F118300831E96FC921E971296EC91F9
:101F70001297F0E08FEF808350961C921E921F976D
:101F80001F910F91FF90EF900895EF92FF920F93A2
:101F90001F938C01E62EF22E0E94B014D8011896E1
:101FA000EC911897F0E0808181608083EE2DF0E065
:101FB000EE0FFF1FE25FF64F118300831E96FC9227
:101FC0001E971296EC911297F0E08FEF8083509657
:101FD0001C921E921F971F910F91FF90EF900895F2
:101FE000FC01440F4083728361830895FC01440F18
:101FF0004083728361830895CF92DF92EF92FF92C4
:102000000F931F93FC01D22EC02E70E09B01225033
:1020100030401216130624F09B01265F3F4F319784
:102020007F01F694E794F694E794CF0160E971E0BC
:102030000E94BD5AE60EF71EE40EF11CCF0164E6C5
:1020400070E00E94BD5AE61AF70A8FE691E0AC01F3
:10205000249FC001259F900D349F900D11246CE0AA
:1020600070E00E94D15AE60EF71E00E010E0BF01BA
:1020700080E090E02DE631E040E050E00E94925A8E
:102080006B587A4F8A409040E60EF71E081F191FC2
:10209000C801B70128E130E040E050E00E94925AC8
:1020A0006D0D711D811D911D2CE330E040E050E06D
:1020B0000E94925A9B01AC012C0D311D411D511DF6
:1020C000B901CA011F910F91FF90EF90DF90CF905F
:1020D00008950F931F93DF93CF93CDB7DEB7289763
:1020E0000FB6F894DEBF0FBECDBF8C01FB01198285
:1020F0003681832F6AE00E94B15A282F2295207FD3
:10210000832F0E94B15A290F20682A833581832F9B
:102110000E94B15A282F2295207F832F0E94B15A06
:10212000290F2F772B833481832F0E94B15A282FB8
:102130002295207F832F0E94B15A290F2F732C8361
:1021400087E08D833381832F0E94B15A282F2295F7
:10215000207F832F0E94B15A290F2F732E83328143
:10216000832F0E94B15A282F2295207F832F0E940F
:10217000B15A290F2F712F8320813181205D374083
:10218000C9016AE070E00E94BD5A462F4295407F27
:10219000C9016AE070E00E94BD5A480F4887F80103
:1021A00081819281608148E09E012F5F3F4F0E94B4
:1021B0000D0381E028960FB6F894DEBF0FBECDBFA9
:1021C000CF91DF911F910F910895CF92DF92EF92FF
:1021D0000F93DF93CF93CDB7DEB728970FB6F89460
:1021E000DEBF0FBECDBF6C01FB01198280E88A8380
:1021F0008E2D6AE00E94B15A382F3295307F8E2D95
:102200000E94B15A390F3F773B83802F0E94B15A09
:10221000382F3295307F802F0E94B15A390F3F738B
:102220003C838FEF8D83822F0E94B15A382F3295D5
:10223000307F822F0E94B15A390F3F733E83842F23
:102240000E94B15A282F2295207F842F0E94B15AD4
:10225000290F2F712F83E05DF740CF016AE070E016
:102260000E94BD5A262F2295207FCF016AE070E0A0
:102270000E94BD5A280F2887F601818192816081D2
:1022800048E09E012F5F3F4F0E940D0381E028969A
:102290000FB6F894DEBF0FBECDBFCF91DF910F9187
:1022A000EF90DF90CF900895CF92DF92EF92FF9260
:1022B0000F931F93DF93CF93CDB7DEB762970FB61F
:1022C000F894DEBF0FBECDBF8C016B011982FC01FB
:1022D00081819281608141E07E010894E11CF11CC2
:1022E00097010E940D03F80181819281608147E08E
:1022F00097010E9431034981842F90E08F7790707D
:10230000F4E095958795FA95E1F79C01E3E0220FBB
:10231000331FEA95E1F7880F991F280F391F4F7077
:10232000420FF60146834A81842F90E08F779070A8
:1023300064E0959587956A95E1F79C0153E0220F3B
:10234000331F5A95E1F7880F991F280F391F4F70D7
:10235000420F45834B81842F90E08F73907014E07F
:10236000959587951A95E1F79C01B3E0220F331FED
:10237000BA95E1F7880F991F280F391F4F70420F48
:1023800044834D81842F90E08F73907074E0959515
:1023900087957A95E1F79C0163E0220F331F6A95D8
:1023A000E1F7880F991F280F391F4F70420F4383A1
:1023B0004E81842F90E08F71907004E09595879501
:1023C0000A95E1F79C0113E0220F331F1A95E1F7FC
:1023D000880F991F280F391F4F70420F42838F813A
:1023E00090E0AC014F7050704053584FA4E0959569
:1023F0008795AA95E1F79C0173E0220F331F7A9528
:10240000E1F7880F991F280F391F420F531F51837F
:10241000408381E062960FB6F894DEBF0FBECDBF59
:10242000CF91DF911F910F91FF90EF90DF90CF90B0
:1024300008952F923F924F925F926F927F928F9268
:102440009F92AF92BF92CF92DF92EF92FF920F9343
:102450001F93DF93CF93CDB7DEB764970FB6F89491
:10246000DEBF0FBECDBF5C017C8B6B8B1A012901D7
:10247000380147011982FC0181819281608141E02C
:102480008E010F5F1F4F98010E940D03F50181819E
:102490009281608147E098010E9431034981842F35
:1024A00090E08F779070F4E095958795FA95E1F735
:1024B0009C01E3E0220F331FEA95E1F7880F991F93
:1024C000280F391F4F70420FF60140834A81842F35
:1024D00090E08F77907064E0959587956A95E1F725
:1024E0009C0153E0220F331F5A95E1F7880F991F83
:1024F000280F391F4F70420FF40140834B81842F06
:1025000090E08F73907014E0959587951A95E1F798
:102510009C01B3E0220F331FBA95E1F7880F991F92
:10252000280F391F4F70420FF30140834D81842FD4
:1025300090E08F739070F4E095958795FA95E1F7A8
:102540009C01E3E0220F331FEA95E1F7880F991F02
:10255000280F391F4F70420FF20140834E81842FA4
:1025600090E08F71907064E0959587956A95E1F79A
:102570009C0153E0220F331F5A95E1F7880F991FF2
:10258000280F391F4F70420FF10140838F8190E077
:10259000AC014F7050704053584F14E0959587959B
:1025A0001A95E1F79C01B3E0220F331FBA95E1F7CA
:1025B000880F991F280F391F420F531FEB89FC8981
:1025C0005183408381E064960FB6F894DEBF0FBE5E
:1025D000CDBFCF91DF911F910F91FF90EF90DF90D2
:1025E000CF90BF90AF909F908F907F906F905F90B3
:1025F0004F903F902F900895AF92BF92CF92DF926D
:10260000EF92FF920F931F93DF93CF93CDB7DEB777
:1026100027970FB6F894DEBF0FBECDBF5B01BE019A
:102620006A5F7F4FAE014F5F5F4F9E012E5F3F4F4E
:102630008E010D5F1F4FB4E0EB2EF12CEC0EFD1E52
:10264000A5E0CA2ED12CCC0EDD1E0E9419128AEDF7
:1026500097E061E041E020E000E00E94FC0F6B01A8
:102660007C018E819F8169814A812B810C810E942E
:10267000FC0F6C197D098E099F092CE330E040E0C6
:1026800050E00E94925A2D81620F711D811D911D93
:10269000F501608371838283938381E027960FB66F
:1026A000F894DEBF0FBECDBFCF91DF911F910F9188
:1026B000FF90EF90DF90CF90BF90AF9008954F9232
:1026C0005F926F927F928F929F92AF92BF92CF92C2
:1026D000DF92EF92FF920F931F93DF93CF93CDB7CB
:1026E000DEB762970FB6F894DEBF0FBECDBF6C01A8
:1026F0002B013A01490158011982FC018181928123
:10270000608141E08E010F5F1F4F98010E940D0311
:10271000F60181819281608147E098010E94310336
:102720004A81842F90E08F77907074E0959587951B
:102730007A95E1F79C0163E0220F331F6A95E1F778
:10274000880F991F280F391F4F70420FF7014083E0
:102750004B81842F90E08F73907004E0959587955E
:102760000A95E1F79C0113E0220F331F1A95E1F758
:10277000880F991F280F391F4F70420FF5014083B2
:102780004D81842F90E08F739070A4E0959587958C
:10279000AA95E1F79C01F3E0220F331FFA95E1F7C8
:1027A000880F991F280F391F4F70420FF401408383
:1027B0004E81842F90E08F71907074E0959587958D
:1027C0007A95E1F79C0163E0220F331F6A95E1F7E8
:1027D000880F991F280F391F4F70420FF301408354
:1027E0008F8190E0AC014F7050704053584F24E0FF
:1027F000959587952A95E1F79C0103E0220F331FF9
:102800000A95E1F7880F991F280F391F420F531FB0
:10281000F2015183408381E062960FB6F894DEBFE7
:102820000FBECDBFCF91DF911F910F91FF90EF9021
:10283000DF90CF90BF90AF909F908F907F906F90E0
:102840005F904F900895AF92BF92CF92DF92EF9238
:10285000FF920F931F93DF93CF9300D000D000D04F
:10286000CDB7DEB75B01BE016B5F7F4FAE014F5F3F
:102870005F4F9E012E5F3F4F8E010D5F1F4FE4E0C3
:10288000EE2EF12CEC0EFD1E0E945F1389ED97E0F9
:1028900065E049E020E000E00E94FC0F6B017C0154
:1028A0008D819E8169814A812B810C810E94FC0F60
:1028B0006C197D098E099F09F501608371838283FC
:1028C000938381E026960FB6F894DEBF0FBECDBF8E
:1028D000CF91DF911F910F91FF90EF90DF90CF90FC
:1028E000BF90AF900895EF92FF920F931F93DF93E5
:1028F000CF93CDB7DEB762970FB6F894DEBF0FBEA9
:10290000CDBF8C011982FC0181819281608141E0FF
:102910007E010894E11CF11C97010E940D03F8014F
:1029200081819281608141E097010E943103898118
:1029300080688A831982F80181819281608142E0F6
:1029400097010E940D0362960FB6F894DEBF0FBE8A
:10295000CDBFCF91DF911F910F91FF90EF90089520
:10296000FC01418360836130A1F0613028F0623066
:1029700001F16330A9F52DC083E58583868382E567
:10298000878381E58283838384E199E0848387E57B
:102990001EC08FE485838EE486838CE487838AE47B
:1029A000828388E4838386E484838FE680871DBCEA
:1029B00017C083EB828384EB838384E199E0848373
:1029C00080EB858381EB868382EB878380E780873A
:1029D00007C0128213821482158216821782108613
:1029E000E781F0E010820895FC014183608361304B
:1029F000A1F0613028F0623001F16330A9F52DC0FB
:102A000083E58583868382E5878381E5828383836B
:102A100084E199E0848387E51EC08FE485838EE49A
:102A200086838CE487838AE4828388E4838386E4D4
:102A300084838FE680871DBC17C083EB828384EB81
:102A4000838384E199E0848380EB858381EB8683B3
:102A500082EB878380E7808707C01282138214820B
:102A60001582168217821086E781F0E010820895A1
:102A7000DC011696EC911697F0E08081887F119624
:102A80009C91892B80830895DC011696EC91F0E0EF
:102A90008081887F80830895AF92BF92CF92DF922A
:102AA000EF92FF920F931F93A0E0B0E0BC01CD0125
:102AB0000E9424585B016C012BEA3AEA4AE250E496
:102AC0000E949A557B018C0120E030E040E85FE3F2
:102AD0000E94A057882314F461E054C0C801B701D4
:102AE00020E030E04FE753E40E94405718160CF006
:102AF00045C0C601B50120E030E04AE754E40E9439
:102B000094565B016C0120E030E04AEF54E40E94EF
:102B10009A557B018C0120E030E040E85FE30E94A1
:102B2000A05788231CF461E070E024C0C801B701FD
:102B300020E03FEF4FE757E40E9440571816B4F4E7
:102B4000C601B50120E030E040E251E40E949A5510
:102B50000E94C45388EC90E005C0FC013197F1F766
:102B60006150704061157105C1F70EC0C801B70111
:102B70000E94C453CB010197F1F706C0C801B70109
:102B80000E94C4536A95F1F71F910F91FF90EF9047
:102B9000DF90CF90BF90AF900895CF93DF93EC017B
:102BA00005C088EE93E00E944C1521972097C9F745
:102BB000DF91CF910895CF93DF93EC0105C08AE0B8
:102BC00090E00E94CD1521972097C9F7DF91CF9112
:102BD00008958091300990913109A0913209B09106
:102BE00033090196A11DB11D8093300990933109DD
:102BF000A0933209B093330908950895FF920F937B
:102C00001F93DF93CF93CDB7DEB760970FB6F894DD
:102C1000DEBF0FBECDBFF82E8B01DE011196EAE9B3
:102C2000F1E080E101900D928150E1F788E796E5AF
:102C3000A4E3B2E18093380990933909A0933A094B
:102C4000B0933B09109215091092160910921709BA
:102C50001092180910920D0E10920E0E10920F0E77
:102C60001092100E1092110E1092120E1092130E5E
:102C70001092140E0E94574485E199E00E94F73F9C
:102C8000C8010E94A73FBE016F5F7F4FCB010E942A
:102C90004E438F2D62E044E450E020E030E00E949B
:102CA0008637F0923C0920E030E0882311F021E0E3
:102CB00030E0C90160960FB6F894DEBF0FBECDBFFD
:102CC000CF91DF911F910F91FF900895FC01411565
:102CD000510539F488E896E190931A09809319090F
:102CE00004C050931A09409319092115310539F48C
:102CF0008DEF95E190931C0980931B0904C03093DC
:102D00001C0920931B09862FBF010E94FE15089500
:102D10000F931F93DF93CF93CDB7DEB728970FB6EE
:102D2000F894DEBF0FBECDBF8C01DE011196EAEA3A
:102D3000F1E088E001900D928150E1F70E94574444
:102D4000C8010E94A73F8DE09EE00E94BF3F81E145
:102D50009EE00E94DB3F85E199E00E94F73FBE01C3
:102D60006F5F7F4FCB010E944E4328960FB6F894B9
:102D7000DEBF0FBECDBFCF91DF911F910F910895A0
:102D8000BF92CF92DF92EF92FF920F931F93DF9348
:102D9000CF9300D000D0CDB7DEB7B82E7B0180E056
:102DA00091E190933E0980933D0910921D09109284
:102DB0001E0910921F0910922009109221091092E9
:102DC00022091092230910922409E0E0F0913E09B3
:102DD00084E292E0DF019C011D9221503040E1F736
:102DE000E0913D09F0913E09DD24D394D082E09139
:102DF0003D09F0913E09D182E0913D09F0913E09F3
:102E000086E0C82EC282E0913D09F0913E0913820E
:102E100000913D0910913E0960913809709139097E
:102E200080913A0990913B090E947745D801149608
:102E30006D937D938D939C93179700913D0910910D
:102E40003E0980E090E00E947A45F80191878087F2
:102E500000913D0910913E0980E090E80E947A457A
:102E6000D8011B969C938E931A97E0913D09F0919F
:102E70003E09D7018C91848FE0913D09F0913E0984
:102E800011968C911197858FE0913D09F0913E0943
:102E900012968C911297868FE0913D09F0913E0930
:102EA00013968C911397878FE0913D09F0913E091D
:102EB00014968C91149780A3E0913D09F0913E09FE
:102EC00015968C91159781A3E0913D09F0913E09EB
:102ED000E451FF4F93E69083E0913D09F0913E0964
:102EE000E351FF4F82E88083E0913D09F0913E0974
:102EF000E251FF4F83E58083E0913D09F0913E0967
:102F0000E151FF4F9083E0913D09F0913E09E0517E
:102F1000FF4F85E38083E0913D09F0913E09EF503A
:102F2000FF4FD082E0913D09F0913E09EE50FF4FF6
:102F3000D082E0913D09F0913E09ED50FF4F8DE3C5
:102F40008083E0913D09F0913E09EC50FF4F87E00E
:102F50008083E0913D09F0913E09EB50FF4FD08214
:102F6000E0913D09F0913E09EA50FF4F8C9180833A
:102F7000E0913D09F0913E09E950FF4F11968C9187
:102F800011978083E0913D09F0913E09E850FF4F91
:102F900012968C9112978083E0913D09F0913E0941
:102FA000E750FF4F13968C9113978083E0913D0972
:102FB000F0913E09E650FF4F14968C911497808350
:102FC000E0913D09F0913E09E550FF4F15968C9137
:102FD0008083E0913D09F0913E09E450FF4F8CE081
:102FE0008083E0913D09F0913E09E350FF4F89E075
:102FF000808380913D0990913E0982509F4F65E604
:1030000071E00E94FD5CE0913D09F0913E09EC5FAA
:10301000FE4FD70113968C9113978083E0913D0961
:10302000F0913E09EB5FFE4F14968C9114978083CC
:10303000E0913D09F0913E09EA5FFE4F15968C91B3
:103040008083E0913D09F0913E09E95FFE4F87E3FF
:103050008083E0913D09F0913E09E85FFE4FC08218
:10306000E0913D09F0913E09E75FFE4FD082E0918B
:103070003D09F0913E09E65FFE4F83E08083E091D9
:103080003D09F0913E09E55FFE4FC082E0913D09A8
:10309000F0913E09E45FFE4F8FE08083E0913D09AF
:1030A000F0913E09E35FFE4F8AE38083E0913D09A2
:1030B000F0913E09E25FFE4F8BE38083E0913D0992
:1030C000F0913E09E15FFE4F8FEF808389838A8311
:1030D0008B838C8360913D0970913E098B2D44E276
:1030E00052E09E012F5F3F4F03E410E00E944D38F5
:1030F000892B39F4E0911B09F0911C09309709F0F4
:1031000009950F900F900F900F90CF91DF911F9125
:103110000F91FF90EF90DF90CF90BF900895DF92D6
:10312000EF92FF920F931F93DF93CF9300D000D0C5
:10313000CDB7DEB7D82E7B01E0E0F1E1F0933E0998
:10314000E0933D0984E292E0DF019C011D92215051
:103150003040E1F7E0913D09F0913E0981E0808344
:10316000E0913D09F0913E098183E0913D09F091A4
:103170003E0986E08283E0913D09F0913E09138289
:1031800000913D0910913E0960913809709139090B
:1031900080913A0990913B090E947745D801149695
:1031A0006D937D938D939C93179700913D0910919A
:1031B0003E0980E090E00E947A45F801918780877F
:1031C0008091290900913D0910913E09833050F406
:1031D00080E090E80E947A45D8011B969C938E93DC
:1031E0001A971BC0F80113861286809115098487EF
:1031F000E0913D09F0913E09809116098587E091A3
:103200003D09F0913E09809117098687E0913D09BB
:10321000F0913E09809118098787E0913D09F0916E
:103220003E09D7018C91848FE0913D09F0913E09D0
:1032300011968C911197858FE0913D09F0913E098F
:1032400012968C911297868FE0913D09F0913E097C
:1032500013968C911397878FE0913D09F0913E0969
:1032600014968C91149780A3E0913D09F0913E094A
:1032700015968C91159781A3E0913D09F0913E0937
:10328000E451FF4F93E69083E0913D09F0913E09B0
:10329000E351FF4F82E88083E0913D09F0913E09C0
:1032A000E251FF4F83E58083E0913D09F0913E09B3
:1032B000E151FF4F9083E0913D09F0913E09E051CB
:1032C000FF4F85E38083E0913D09F0913E09EF5087
:1032D000FF4F91E09083E0913D09F0913E09EE505F
:1032E000FF4F83E08083E0913D09F0913E09ED506E
:1032F000FF4F8DE38083E0913D09F0913E09EC5052
:10330000FF4F87E08083E0913D09F0913E09EB504B
:10331000FF4F9083E0913D09F0913E09EA50FF4F45
:103320008C918083E0913D09F0913E09E950FF4F77
:1033300011968C9111978083E0913D09F0913E099F
:10334000E850FF4F12968C9112978083E0913D09CF
:10335000F0913E09E750FF4F13968C9113978083AD
:10336000E0913D09F0913E09E650FF4F14968C9193
:1033700014978083E0913D09F0913E09E550FF4F9D
:1033800015968C91808380912909833018F000E193
:1033900010E069C0E0913D09F0913E09E450FF4F13
:1033A00082E38083E0913D09F0913E09E350FF4FB5
:1033B00094E09083E0913D09F0913E09E250FF4F87
:1033C000809115098083E0913D09F0913E09E1501B
:1033D000FF4F809116098083E0913D09F0913E09ED
:1033E000E050FF4F809117098083E0913D09F091F3
:1033F0003E09EF5FFE4F809118098083E0913D09FF
:10340000F0913E09EE5FFE4F86E38083E0913D0937
:10341000F0913E09ED5FFE4F9083E0913D09F09100
:103420003E09EC5FFE4F80911D098083E0913D09CC
:10343000F0913E09EB5FFE4F80911E098083E09181
:103440003D09F0913E09EA5FFE4F80911F0980839C
:10345000E0913D09F0913E09E95FFE4F809120091E
:1034600080830CE110E0E0913D09F0913E09E00F0E
:10347000F11FE451FF4F8CE08083E0913D09F09112
:103480003E09E00FF11FE351FF4F89E0808398016F
:1034900022513F4F80913D0990913E09820F931F29
:1034A00065E671E00E94FD5CE0913D09F0913E0906
:1034B000E00FF11FEC50FF4FD70113968C9113973B
:1034C0008083E0913D09F0913E09E00FF11FEB5040
:1034D000FF4F14968C9114978083E0913D09F091F1
:1034E0003E09E00FF11FEA50FF4F15968C91808343
:1034F000E0913D09F0913E09E00FF11FE950FF4FC7
:1035000087E38083E0913D09F0913E09E00FF11FD0
:10351000E850FF4F88E08083E0913D09F0913E093B
:10352000E00FF11FE750FF4F81E08083E0913D09FC
:10353000F0913E09E00FF11FE650FF4F83E08083DA
:10354000E0913D09F0913E09E00FF11FE550FF4F7A
:1035500086E08083E0913D09F0913E09E00FF11F84
:10356000E450FF4F8FE08083E0913D09F0913E09E8
:10357000E00FF11FE350FF4F8AE38083E0913D09A4
:10358000F0913E09E00FF11FE250FF4F8BE3808383
:10359000E0913D09F0913E09E00FF11FE150FF4F2E
:1035A0008FE1808398012C5E3F4FE0913D09F091BF
:1035B0003E09E20FF31FE451FF4F81E28083E09167
:1035C0003D09F0913E09E20FF31FE351FF4F9FEFDA
:1035D000908380912909833028F499839A839B836F
:1035E0009C830CC080911D09898380911E098A8368
:1035F00080911F098B83809120098C8360913D0904
:1036000070913E098D2D44E252E09E012F5F3F4FA5
:1036100003E410E00E944D38892B39F4E0911B0936
:10362000F0911C09309709F009950F900F900F90B9
:103630000F90CF91DF911F910F91FF90EF90DF904E
:1036400008951F93BC01E0912A09E33008F03FC0C0
:10365000209134093091350940913609509137094C
:103660008091300990913109A0913209B0913309CC
:10367000281739074A075B0708F048C0109230093D
:1036800010923109109232091092330985E090E0CE
:10369000A0E0B0E08093340990933509A0933609F7
:1036A000B0933709EF5FE0932A09809129098230AE
:1036B00049F0843039F0813049F580913C090E940D
:1036C000C01624C080913C090E948F181FC0109220
:1036D000300910923109109232091092330985E0B5
:1036E00090E0A0E0B0E08093340990933509A09376
:1036F0003609B093370910922A0911E010932B096B
:1037000080913C090E94C016109329091F910895C9
:103710002F923F924F925F927F928F929F92AF92A1
:10372000BF92CF92DF92EF92FF920F931F93DF939E
:10373000CF93CDB7DEB72C970FB6F894DEBF0FBE90
:10374000CDBF782E5B0127E0281708F44DC10E94F9
:103750001941882309F448C1872D0E9470429B01BA
:10376000AC016115710509F447C180E099E19093BE
:103770003E0980933D0947E0842E912C8C0E9D1EBE
:10378000872D60E079E1A90194018E010F5F1F4F41
:103790000E9435396C0100913D0910913E09D80114
:1037A0008C91823009F028C189819A8183349105F6
:1037B00009F022C1C8014C96B50146E050E00E94D4
:1037C000D55C009709F018C1F801E480F580068106
:1037D0001781609138097091390980913A09909167
:1037E0003B090E947745E616F7060807190709F016
:1037F00003C1E0901D09F0901E0900911F0910916E
:103800002009E114F10401051105C1F0D4012D9145
:103810003D914D915C918091210990912209A09157
:103820002309B091240982179307A407B50731F043
:10383000E216F3060407150709F0DEC0E0913D0922
:10384000F0913E0980899189A289B38980931509F5
:1038500090931609A0931709B0931809DF01A0519E
:10386000BF4F2F014C0C5D1C9924882427E0222E89
:10387000312C2C0E3D1EB3C08D010F5F1F4F8C915C
:10388000863009F440C0873048F48130D9F0813067
:1038900008F4A2C0833009F09CC025C0853369F0CC
:1038A000863320F4833309F094C03FC0863309F493
:1038B0004EC08F3F09F08DC0A0C0F80191908F01DC
:1038C00080808AC0D8019D908D018D919D910D9031
:1038D000BC91A02D8093110E9093120EA093130E05
:1038E000B093140E79C0F80191908F01808191817D
:1038F000A281B38180930D0E90930E0EA0930F0EB4
:10390000B093100E69C011969C900F5F1F4FF80185
:1039100080819181A281B3818093960190939701D8
:10392000A0939801B093990157C0D8019D908D0143
:103930006D917D918D919C910E948C4560932C0995
:1039400070932D0980932E0990932F0945C0F8019B
:1039500091908F01C0901D09D0901E09E0901F0921
:10396000F0902009C114D104E104F104B9F0D101AF
:103970002D913D914D915C91809121099091220969
:10398000A0912309B091240982179307A407B507D2
:1039900029F0C216D306E406F506F1F4F801808199
:1039A0009181A281B38180931D0990931E09A093F8
:1039B0001F09B0932009F10180819181A281B38117
:1039C0008093210990932209A0932309B09324099D
:1039D00003C0D8019D908D01D801A90DB11DA4157A
:1039E000B50508F449CF08C0872D62E044E450E0F3
:1039F00020E030E00E9486378824809129098230B7
:103A000071F1833020F4813009F0D3C207C08330D4
:103A100009F4E7C1843009F0CCC247C2B2E08B168A
:103A200009F0C0C210923009109231091092320987
:103A30001092330985E090E0A0E0B0E08093340973
:103A400090933509A0933609B093370910922A094B
:103A5000872DB5010E948F1880922909AAC2E5E03E
:103A60008E1609F0B9C110923009109231091092E6
:103A700032091092330985E090E0A0E0B0E0809335
:103A8000340990933509A0933609B0933709109201
:103A90002A0980913C096CE671E041E150E025E1A2
:103AA00039E008E813E10E944D38892B09F490C1F0
:103AB000E0903C09E0E0F1E1F0933E09E0933D093C
:103AC00084E292E0DF019C011D9221503040E1F739
:103AD000E0913D09F0913E09FF24F394F082E091DA
:103AE0003D09F0913E09F182E0913D09F0913E09D6
:103AF00086E08283E0913D09F0913E0913820091B6
:103B00003D0910913E096091380970913909809101
:103B10003A0990913B090E947745D80114966D931C
:103B20007D938D939C93179700913D0910913E09C9
:103B300080E090E00E947A45F80191878087E091CB
:103B40003D09F0913E0913861286D5018C91848F30
:103B5000E0913D09F0913E0911968C911197858F66
:103B6000E0913D09F0913E0912968C911297868F53
:103B7000E0913D09F0913E0913968C911397878F40
:103B8000E0913D09F0913E0914968C91149780A321
:103B9000E0913D09F0913E0915968C91159781A30E
:103BA000E0913D09F0913E09E451FF4F93E6908387
:103BB000E0913D09F0913E09E351FF4F82E8808397
:103BC000E0913D09F0913E09E251FF4F83E580838A
:103BD000E0913D09F0913E09E151FF4F9083E09162
:103BE0003D09F0913E09E051FF4F85E38083E0916C
:103BF0003D09F0913E09EF50FF4FF082E0913D0901
:103C0000F0913E09EE50FF4F94E09083E0913D0922
:103C1000F0913E09ED50FF4F8DE38083E0913D0927
:103C2000F0913E09EC50FF4F87E08083E0913D0921
:103C3000F0913E09EB50FF4FF082E0913D09F09189
:103C40003E09EA50FF4F8C918083E0913D09F0914D
:103C50003E09E950FF4F11968C9111978083E091B6
:103C60003D09F0913E09E850FF4F12968C91129752
:103C70008083E0913D09F0913E09E750FF4F139694
:103C80008C9113978083E0913D09F0913E09E650B5
:103C9000FF4F14968C9114978083E0913D09F09129
:103CA0003E09E550FF4F15968C918083E0913D09C8
:103CB000F0913E09E450FF4F86E38083E0913D0997
:103CC000F0913E09E350FF4F9083E0913D09F09160
:103CD0003E09E250FF4F80911D098083E0913D092C
:103CE000F0913E09E150FF4F80911E098083E091E1
:103CF0003D09F0913E09E050FF4F80911F098083FC
:103D0000E0913D09F0913E09EF5FFE4F809120095F
:103D10008083E0913D09F0913E09EE5FFE4F82E322
:103D20008083E0913D09F0913E09ED5FFE4F908365
:103D3000E0913D09F0913E09EC5FFE4F809115093D
:103D40008083E0913D09F0913E09EB5FFE4F809149
:103D500016098083E0913D09F0913E09EA5FFE4F2C
:103D6000809117098083E0913D09F0913E09E95F58
:103D7000FE4F809118098083E0913D09F0913E0942
:103D8000E85FFE4F8FEF80838B838C838D838E83E0
:103D900060913D0970913E098E2D44E252E09E01F2
:103DA0002D5F3F4F03E410E00E944D38892B39F41A
:103DB000E0911B09F0911C09309709F00995E091F9
:103DC0001B09F0911C09309709F4F0C00995EEC069
:103DD000C5010E948816CAC0B6E08B1609F0E2C081
:103DE000CAC020912C0930912D0940912E09509183
:103DF0002F092F3FEFEF3E07EFEF4E07EFEF5E0784
:103E000009F4D7C056954795379527958091300985
:103E100090913109A0913209B091330928173907DF
:103E20004A075B0708F0C5C08091150990911609F3
:103E3000A0911709B091180980932509909326093C
:103E4000A0932709B09328098091380990913909E6
:103E5000A0913A09B0913B090196A11DB11D809333
:103E6000380990933909A0933A09B0933B09872DFB
:103E7000B5010E948F1884E08093290910923009BF
:103E800010923109109232091092330985E090E0C6
:103E9000A0E0B0E08093340990933509A0933609EF
:103EA000B093370910922A0984C0F5E08F1609F003
:103EB0005FC085E299E065E179E044E050E00E946E
:103EC000D55C0097E9F160912509709126098091F0
:103ED0002709909128090E948C450E9421488C0155
:103EE0006091150970911609809117099091180930
:103EF0000E948C450E94214800D000D000D0EDB730
:103F0000FEB731962EE731E0ADB7BEB712963C93BF
:103F10002E93119713830283958384830E946A5D95
:103F2000E0911909F0911A092DB73EB72A5F3F4F6A
:103F30000FB6F8943EBF0FBE2DBF309709F009951C
:103F400010923009109231091092320910923309FF
:103F500085E090E0A0E0B0E08093340990933509CB
:103F6000A0933609B093370910922A0983E01FC045
:103F700036E08316B9F4109230091092310910928C
:103F800032091092330985E090E0A0E0B0E0809320
:103F9000340990933509A0933609B09337091092EC
:103FA0002A0904C0C5010E94211B03C081E080933F
:103FB00029092C960FB6F894DEBF0FBECDBFCF9166
:103FC000DF911F910F91FF90EF90DF90CF90BF9006
:103FD000AF909F908F907F905F904F903F902F90E9
:103FE0000895CF93DF93EC0180913C09BE010E94BC
:103FF000C01681E08093290910923009109231098E
:10400000109232091092330985E090E0A0E0B0E010
:104010008093340990933509A0933609B0933709FA
:1040200010922A0980E090E069EE75E10E94383F25
:1040300010922B0910C080912B09813039F480E057
:1040400090E00E94483F20E030E00BC080913C09A6
:10405000BE010E94881B80912909833061F721E00D
:1040600030E0C901DF91CF9108950F931F93DF9343
:10407000CF93CDB7DEB7CE5FD3400FB6F894DEBF97
:104080000FBECDBFBC01009719F400E010E014C0D2
:104090008E010F5F1F4FC8010E94FD5CC80162EBDB
:1040A00071E00E9404458C0165EB71E00E94F45CB4
:1040B000009711F00F5F1F4FC801C250DC4F0FB6C1
:1040C000F894DEBF0FBECDBFCF91DF911F910F914E
:1040D00008950F931F93CF93DF938C01CB0167EB70
:1040E00071E00E940445EC01009709F446C069EBB9
:1040F00071E00E94F45C009739F0CE016DEB71E045
:104100000E94F45C009711F481E00FC0CE0161ECD5
:1041100071E00E94F45C009739F0CE0166EC71E02A
:104120000E94F45C009759F482E0F801808380E0FB
:1041300090E067EB71E00E940445EC011CC0CE01E9
:104140006BEC71E00E94F45C009739F0CE0160EDF9
:1041500071E00E94F45C009759F480E090E065ED16
:1041600071E00E940445EC0183E0F801808303C004
:10417000F801108205C0209719F4F801108205C0DB
:10418000C8010296BE010E94FD5CDF91CF911F9194
:104190000F9108950F931F93CF93DF938C01EB0141
:1041A000CB0167ED71E00E94045D009709F079C0D2
:1041B000CE016CED71E00E94045D009711F082E089
:1041C00071C0CE0161EE71E00E94045D009709F0BC
:1041D00058C0CE0167EE71E00E94045D009709F0BF
:1041E00050C0CE016CEE71E00E94045D009739F47E
:1041F000CE0162EF71E00E94045D009711F084E04F
:1042000051C0CE0167EF71E00E94045D009711F08C
:1042100085E048C0CE016CEF71E00E94045D00971C
:1042200039F4CE0162E072E00E94045D009711F063
:1042300086E038C0CE0167E072E00E94045D00971E
:1042400011F087E02FC0CE016CE072E00E94045DA7
:10425000009739F4CE0161E172E00E94045D00979D
:1042600011F088E01FC0CE0166E172E00E94045D9B
:10427000009739F4CE016AE172E00E94045D009774
:1042800011F083E00FC0CE016EE172E00E94045D88
:10429000009739F4CE0163E272E00E94045D00975A
:1042A00021F081E0F801808302C0F8011082DF91E3
:1042B000CF911F910F910895CF92DF92EF92FF92CD
:1042C0000F931F93DF93CF93CDB7DEB72A970FB627
:1042D000F894DEBF0FBECDBF6C01613029F4A8E2B7
:1042E000EA2EA2E0FA2E29C0623029F4F3E6EF2E7E
:1042F000F2E0FF2E22C0633029F4EEE9EE2EE2E078
:10430000FE2E1BC0643029F47AEDE72E72E0F72E02
:1043100014C0653029F466E1E62E63E0F62E0DC088
:10432000663029F495E6E92E93E0F92E06C0673051
:1043300021F481EAE82E83E0F82E8DB79EB7089726
:104340000FB6F8949EBF0FBE8DBFEDB7FEB7319686
:104350008E010F5F1F4FADB7BEB712961C930E9321
:10436000119782EE93E0938382832483358346837F
:1043700057830E94EF5D8DB79EB708960FB6F894ED
:104380009EBF0FBE8DBFC601B7010E94FD5CC60176
:10439000B8010E94E95CC60166EE73E00E94E95C28
:1043A0002A960FB6F894DEBF0FBECDBFCF91DF9136
:1043B0001F910F91FF90EF90DF90CF9008958F9213
:1043C0009F92AF92BF92CF92DF92EF92FF921F9394
:1043D000CF93DF934C015C01CC24DD24EE24FF2439
:1043E0001DC0F5018083853281F489810E946D446E
:1043F000182F8A810E946D441295107F180FF501C5
:10440000108382E090E0E80EF91E0894C11CD11CD4
:104410000894E11CF11C0894A11CB11CE401CE0D10
:10442000DF1D88818823E9F6C80CD91CF6011082AB
:10443000DF91CF911F91FF90EF90DF90CF90BF90D1
:10444000AF909F908F900895EF92FF920F931F93DC
:10445000DF93CF93CDB7DEB7CE5FD3400FB6F894DE
:10446000DEBF0FBECDBF9C017B01009741F16115FE
:10447000710529F18E010F5F1F4FC801B9010E941C
:10448000FD5CC801B7010E94045D8C010097C9F072
:10449000F70101900020E9F7EE19FF098E0F9F1F29
:1044A0006BEE73E00E9404458C01009751F00E946E
:1044B000DF21C8016BE240E20E94384502C000E003
:1044C00010E0C801C250DC4F0FB6F894DEBF0FBE3B
:1044D000CDBFCF91DF911F910F91FF90EF90089585
:1044E000F89480EC85BF80E480936D007894089503
:1044F000FFCFAF92BF92CF92DF92EF92FF920F93D6
:104500001F93CF93DF93EC018B016A01590180EE79
:10451000E82E88E0F82EC70160E270E040E250E04B
:104520000E94E25C0115110529F18DB79EB708972D
:104530000FB6F8949EBF0FBE8DBFEDB7FEB7319694
:10454000ADB7BEB71296FC92EE92119780E190E063
:104550009383828382EF93E095838483178306831A
:104560000E94B15D8DB79EB708960FB6F8949EBFB6
:104570000FBE8DBFC114D10429F1ADB7BEB71897D6
:104580000FB6F894BEBF0FBEADBFEDB7FEB7319604
:1045900080EF98E012969C938E93119780E190E0C3
:1045A0009383828382EF93E095838483D782C6824C
:1045B0000E94B15D8DB79EB708960FB6F8949EBF66
:1045C0000FBE8DBFE881F9810190F081E02DCE0111
:1045D0000995E881F9810280F381E02DCE010995EA
:1045E000B50180E090E00E9424585B016C0120E05E
:1045F00030E04AEF54E40E949A557B018C0120E0A0
:1046000030E040E85FE30E94A05788231CF461E09B
:1046100070E024C0C801B70120E03FEF4FE757E446
:104620000E9440571816B4F4C601B50120E030E0EE
:1046300040E251E40E949A550E94C45388EC90E0F5
:1046400005C0FC013197F1F76150704061157105AB
:10465000C1F707C0C801B7010E94C453CB0101973D
:10466000F1F7DF91CF911F910F91FF90EF90DF90C5
:10467000CF90BF90AF900895AF92BF92CF92DF924C
:10468000EF92FF920F931F93CF93DF936C01E09112
:104690000309F091040983AD882329F033E0E32E68
:1046A00031E0F32E03C02BE2E22EF12CEE0EFF1EC2
:1046B000C0EED8E0CE0160E270E040E250E00E943F
:1046C000E25C8DB79EB708970FB6F8949EBF0FBEF9
:1046D0008DBFADB7BEB71196EDB7FEB7D283C1831C
:1046E00090E1A92EB12C1396BC92AE92129785EF51
:1046F00093E015969C938E931497E0910309F091A3
:104700000409818D928D17969C938E9316970E9423
:10471000B15D8DB79EB708960FB6F8949EBF0FBED9
:104720008DBFD60112968C91833009F4A7C08430D6
:1047300050F4813009F449C09E01205F3F4F823020
:1047400008F06BC00AC0853009F4ECC0853008F46D
:10475000C2C0863009F05CC128C1A0910109B091A6
:104760000209CDB7DEB760970FB6F894DEBF0FBE73
:10477000CDBFEDB7FEB731963A832983B382A282CB
:1047800082E094E0958384838D919C911197978327
:10479000868312968C9112978087118613968C913E
:1047A00013978287138614968C91149784871586A5
:1047B00015968C91868717860E94B15D81E0F6017F
:1047C00082838DB79EB7409653C005E11EE04091AD
:1047D0000309509104094B5D5F4FC601B8010E9467
:1047E0007206ADB7BEB718970FB6F894BEBF0FBE2E
:1047F000ADBFEDB7FEB7319660961296DC93CE93BF
:104800001197B382A2828BE194E09583848317830E
:1048100006830E94B15D82E053C08DB79EB70897B2
:104820000FB6F8949EBF0FBE8DBFADB7BEB7119641
:10483000CDB7DEB73A8329831396BC92AE92129716
:1048400083E294E015969C938E931497E09103096C
:10485000F091040981A592A517969C938E931697C3
:104860000E94B15D83E0F60182838DB79EB7089602
:104870000FB6F8949EBF0FBE8DBFCAC005E11EE003
:10488000C601B801A7010E947206ADB7BEB718975E
:104890000FB6F894BEBF0FBEADBFEDB7FEB73196F1
:1048A00060961296DC93CE931197B382A28280E336
:1048B00094E095838483178306830E94B15D84E02E
:1048C000E6018A83EDB7FEB738960FB6F894FEBFBF
:1048D0000FBEEDBF9DC005E11EE084E090E0E80E54
:1048E000F91EC601B801A7010E947206ADB7BEB796
:1048F00018970FB6F894BEBF0FBEADBFEDB7FEB7A9
:10490000319660961296DC93CE931197B382A28271
:1049100082EF93E095838483178306830E94B15DC1
:1049200085E0CECFD70150968C919E01205F3F4FFE
:104930008823D9F000D000D000D0EDB7FEB7319673
:10494000CDB7DEB73A832983B382A28286E394E0AF
:10495000958384830E94B15DEDB7FEB736960FB69E
:10496000F894FEBF0FBEEDBF1CC000D000D000D039
:10497000EDB7FEB73196ADB7BEB712963C932E9306
:104980001197B382A2828FE394E0958384830E947F
:10499000B15DCDB7DEB726960FB6F894DEBF0FBE79
:1049A000CDBF86E0F601828333C08DB79EB70897EE
:1049B0000FB6F8949EBF0FBE8DBFADB7BEB71196B0
:1049C0006096EDB7FEB7D283C1831396BC92AE92C8
:1049D000129789E494E015969C938E931497E09136
:1049E0000309F0910409E651FF4F808191811796E8
:1049F0009C938E9316970E94B15DD60112961C92DD
:104A0000CDB7DEB728960FB6F894DEBF0FBECDBF88
:104A1000C6010E943707DF91CF911F910F91FF9040
:104A2000EF90DF90CF90BF90AF900895CF92DF923C
:104A3000EF92FF920F931F93DF93CF93CDB7DEB723
:104A400060970FB6F894DEBF0FBECDBF6C018091AA
:104A500053099E012F5F3F4F813021F4C90163E567
:104A600074E003C0C9016CE574E00E94FD5C00EED7
:104A700018E0C80160E270E040E250E00E94E25CB1
:104A80008DB79EB708970FB6F8949EBF0FBE8DBF27
:104A9000EDB7FEB73196ADB7BEB712961C930E9325
:104AA000119770E1E72EF12CF382E28286E694E022
:104AB00095838483CE010196978386830E94B15D9E
:104AC00020913F093091400940914109509142099C
:104AD00000D0EDB7FEB73196005F1F4FADB7BEB740
:104AE00012961C930E931197F382E2828DE694E066
:104AF00095838483CA01AA27BB279783868331873E
:104B000020870E94B15D8DB79EB70A960FB6F894C4
:104B10009EBF0FBE8DBFC6010E94370760960FB6BD
:104B2000F894DEBF0FBECDBFCF91DF911F910F91E3
:104B3000FF90EF90DF90CF9008954F925F926F9229
:104B40007F928F929F92AF92BF92CF92DF92EF921D
:104B5000FF920F931F93CF93DF939FB7F89480EC4E
:104B600085BF80E480936D0010925B0910925C0910
:104B700010925D0910925E099FBF10925F0910921A
:104B800063091092620984E699E00E947D021EE8A2
:104B9000412E19E0512EC20164E679E04FE60E94F1
:104BA000F60F81E999E00E94EA49B2E9AB2EB9E03B
:104BB000BB2EC50161E979E00E94C5521091AF0991
:104BC0000091B0091092B00A1092AF0A1092AC0A8C
:104BD0001092AB0A1092AE0A1092AD0A1092B40A6B
:104BE0001092B30A1092B20A1092B10A1092BA0A45
:104BF0001092B90A1092B60A1092B50A1092B80A29
:104C00001092B70A1092BE0A1092BD0A1092BC0A06
:104C10001092BB0AC8EADAE0CE010E94444ECE01EF
:104C200064E043ED0E94AA4ACE0165E041E90E949A
:104C3000AA4ACE01612F0E94D14ACE01602F0E9464
:104C4000BF4A80E690E00E94D05B9093B40A8093C4
:104C5000B30A009709F4E6C0A8E06A2E712C70929E
:104C6000B00A6092AF0A8CE090E00E94D05B909313
:104C7000BE0A8093BD0A009709F4D3C081E090E09A
:104C80009093BA0A8093B90A1092AA0A1092A80ABD
:104C90001092A90A83EC9AE00E947B0404EC1AE0CB
:104CA000C80163EC7AE00E94D40089E491E090931B
:104CB000C90A8093C80A86EE95E09093CB0A809348
:104CC000CA0A1092CC0A1093DF080093DE081092F3
:104CD0000009B0920409A092030986E49BE0909336
:104CE00002098093010910920A0910920B09FEE152
:104CF0008F2E912C90920709809206098EEE95E0F6
:104D00009093CE0A8093CD0A2091BB093091BC09C3
:104D1000E090B709F090B8090091B9091091BA096B
:104D20008FEC9AE041E050E060E070E0E0E8CE2EE9
:104D3000D12C0E94540D88E09BE06FEC7AE040E8B3
:104D40000E94DD3082E29BE068E07BE0A5010E94EA
:104D50001809E090AB09F090AC090091AD091091F1
:104D6000AE091092320B1092360B1092350B109246
:104D7000410B1092400B10923D0B10923C0B109285
:104D80003F0B10923E0B1092450B1092440B109269
:104D9000430B1092420BB0923A0BA092390BD09376
:104DA000380BC093370B80EE90E00E94D05B90935D
:104DB000450B8093440B009799F17092410B6092E0
:104DC000400BE0922A0BF0922B0B00932C0B1093CC
:104DD0002D0B10922E0B10922F0B1092300B109265
:104DE000310B5092290B4092280B9092340B8092F9
:104DF000330B8EE59BE062E37BE00E94B432DF91EF
:104E0000CF911F910F91FF90EF90DF90CF90BF90C7
:104E1000AF909F908F907F906F905F904F9008958C
:104E2000FFCFFFCFFFCFDF93CF93CDB7DEB728976C
:104E30000FB6F894DEBF0FBECDBFDE011196E2EFD4
:104E4000F5E088E001900D928150E1F70E9457440F
:104E500080E49CE90197F1F781EB99E00E94A73F7C
:104E600085EC99E00E94BF3F81EC99E00E94DB3F16
:104E70008DEB99E00E94F73FBE016F5F7F4FCB0142
:104E80000E944E4328960FB6F894DEBF0FBECDBFEA
:104E9000CF91DF9108950F931F93DF93CF9300D0AD
:104EA00000D000D0CDB7DEB78091B609898380915C
:104EB000B5098A838091B4098B838091B3098C836F
:104EC0008091B2098D838091B1098E8388EC9AE03C
:104ED00067E774E044E854E028EC30E00E9479226F
:104EE0008E010F5F1F4FC80160E040E050E020E0FE
:104EF00030E00E946616C8010E94F11F892BF9F06C
:104F000081EB99E00E94933F8DE99AE00E94B13FC6
:104F100089E99AE00E94CD3F85E99AE00E94E93F45
:104F200081E08093A50A88EC9AE067E774E04DE899
:104F300054E028EC30E00E94792281E00BC088EC3C
:104F40009AE067E774E047E954E028EC30E00E941B
:104F5000792280E026960FB6F894DEBF0FBECDBF53
:104F6000CF91DF911F910F9108958091CD098823F2
:104F700021F00E944B278823B1F488EC9AE061EA83
:104F800074E04BEA54E028EC30E00E9479220E9461
:104F9000132788EC9AE061EA74E04FEA54E028ECC9
:104FA00030E00E9479220895CF92DF92EF92FF9233
:104FB0000F931F93CF93DF93EC016A0141155105C5
:104FC00011F4CC80DD807B0100E010E029C02A8153
:104FD0003B81C901880F991F820F931F880F991F6A
:104FE000880F991FE885F985D701E80FF91F8CE034
:104FF00001900D928150E1F78CE090E0E80EF91EEF
:105000008A819B816C817D8101960E94BD5A9B8320
:105010008A830F5F1F4F8E819F8101979F838E83AD
:105020000C151D0520F48E819F81892B81F6C80106
:10503000DF91CF911F910F91FF90EF90DF90CF9074
:1050400008958F929F92AF92BF92CF92DF92EF928C
:10505000FF920F931F93DF93CF93CDB7DEB72C97BB
:105060000FB6F894DEBF0FBECDBF89B7806889BF89
:105070007E010894E11CF11C74EB872E74E0972EDE
:105080006CEBA62E64E0B62E52ECC52E54E0D52E65
:105090008091AA0A8823E1F31092AA0A8BEA9AE087
:1050A000B70141E050E00E94D42700D0ADB7BEB7B1
:1050B00012969C928E9211970E946A5D00E010E019
:1050C0000F900F9019C000D000D0EDB7FEB7319609
:1050D000ADB7BEB71296BC92AE921197D701A00F92
:1050E000B11F8C91828313820E946A5D0F5F1F4FF4
:1050F0000F900F900F900F90898190E0081719077B
:1051000014F3EDB7FEB738970FB6F894FEBF0FBE95
:10511000EDBF3196ADB7BEB71296DC92CE92119725
:105120008A85828313828B85848315828E81868310
:1051300017820E946A5DEDB7FEB738960FB6F894F5
:10514000FEBF0FBEEDBFA4CF0F931F93F89480EC6A
:1051500085BF80E480936D00789481E062E00E94D6
:10516000363603EC1AE0C8010E944505C8010E94CA
:105170004505C8010E9445050EE819E0C8010E94D6
:105180007314C80166E47BE00E9454118DE390E043
:1051900090936109809360091F910F910895809108
:1051A0005F0910925F09882331F08EE899E066E488
:1051B0007BE00E9454110895DF93CF93CDB7DEB703
:1051C0006B970FB6F894DEBF0FBECDBFDE015596CC
:1051D000E4EAF9E087E001900D928150E1F78091D7
:1051E000AB099091AC09A091AD09B091AE0989834A
:1051F0009A83AB83BC8380915B0990915C09A091F9
:105200005D09B0915E098D839E83AF83B887DE010F
:105210001996ECE7FAE08CE001900D928150E1F7ED
:105220008DB79EB74B970FB6F8949EBF0FBE8DBF3C
:10523000ADB7BEB71196FE0131968BE101900D928C
:105240008150E1F782E29BE00E94B90B8DB79EB7D7
:105250004B960FB6F8949EBF0FBE8DBF6B960FB6E0
:10526000F894DEBF0FBECDBFCF91DF9108958F922E
:105270009F92AF92BF92CF92DF92EF92FF920F93E5
:105280001F93DF93CF93CDB7DEB7CA55D0400FB68B
:10529000F894DEBF0FBECDBFE0909A09F0909B0955
:1052A00020919809309199098091880A9091890AF2
:1052B0002817390709F4EDC082E999E00E94A75345
:1052C00080919809909199099C8B8B8B00E010E05C
:1052D000A3E0AA2EB12CAC0EBD1EF9ED8F2EF4E08A
:1052E0009F2EE3E1CE2ED12CCC0EDD1E52C020919C
:1052F0009809309199093C8B2B8B1E8B0D8BC80123
:105300006AE070E00E94BD5A892B69F58DB79EB79F
:1053100008970FB6F8949EBF0FBE8DBFEDB7FEB7CE
:105320003196ADB7BEB71296BC92AE9211979382EA
:10533000828235832483C701801B910B97838683E8
:105340000E94EF5D8DB79EB708960FB6F8949EBF8A
:105350000FBE8DBF88EC9AE067EE74E0A50120E0F7
:1053600030E00E94792282E29BE0B6010E94D00ADE
:10537000882341F082E999E0B6010E94F54F0F5F62
:105380001F4F07C088EC9AE067EE74E046EF54E0E8
:105390003BC00E151F0508F4AACF45C082E999E06D
:1053A000C0909809D0909909E0909A09F0909B09D3
:1053B00000919C0910919D0920919E0930919F09AF
:1053C0004091A0095091A1096091A2097091A3098F
:1053D0000E94BA5088EC9AE067EE74E04FEA54E01D
:1053E00020E030E00E9479222FE088E190E00FB6C3
:1053F000F894A89581BD0FBE21BDFFCF88EC9AE03F
:1054000067EE74E041E055E020ED37E00E9479223C
:1054100088EC9AE067EE74E04AE055E020ED37E072
:105420000E94792236C088EC9AE067EE74E048E189
:1054300055E020ED37E00E9479221A82198282E934
:1054400099E0BE016F5F7F4FA0909809B0909909D5
:10545000C0909A09D0909B09E0909C09F0909D091A
:1054600000919E0910919F092091A0093091A109F6
:105470004091A2095091A3090E94365129813A8195
:105480008091A2099091A3092817390709F0B6CF96
:1054900085CFC65ADF4F0FB6F894DEBF0FBECDBF23
:1054A000CF91DF911F910F91FF90EF90DF90CF9000
:1054B000BF90AF909F908F9008950F931F93DF93AD
:1054C000CF93CDB7DEB7E8970FB6F894DEBF0FBE27
:1054D000CDBF82E29BE08E010F5F1F4FB8010E949B
:1054E0007E0A882301F12DB73EB7285330400FB60E
:1054F000F8943EBF0FBE2DBFADB7BEB71196F801F1
:1055000088E301900D928150E1F782E999E00E94D1
:10551000625281E02DB73EB7285C3F4F0FB6F8943A
:105520003EBF0FBE2DBFE8960FB6F894DEBF0FBE8C
:10553000CDBFCF91DF911F910F9108950F931F93CE
:10554000DF93CF93CDB7DEB727970FB6F894DEBFC2
:105550000FBECDBF88EC9AE067E774E042E255E009
:1055600028EC30E00E947922A89582E29BE08E012F
:105570000F5F1F4FB8010E94A70A882381F088ECB3
:105580009AE067E774E04BE255E028EC30E00E94D7
:1055900079228EE899E0B8010E9469100AC088EC6F
:1055A0009AE067E774E049E355E028EC30E00E94B8
:1055B0007922A89588EC9AE067E774E047E455E023
:1055C00028EC30E00E9479220E945D2A882339F07D
:1055D00088EC9AE067E774E042E555E006C088ECA5
:1055E0009AE067E774E042E655E028EC30E00E947C
:1055F0007922A89588EC9AE067E774E042E755E0E5
:1056000028EC30E00E9479220E943729A89588EC86
:105610009AE067E774E04FEA54E028EC30E00E943B
:10562000792227960FB6F894DEBF0FBECDBFCF917B
:10563000DF911F910F9108951F931091A8098FEC8E
:105640009AE00E94510C80914D0B8130C9F081305D
:1056500018F0823001F50BC00E949E2AA8958FECAD
:105660009AE00E94FA0B89B7806889BF15C08091C3
:105670004A0B8117A1F4A8950E949E2A81E00DC0D3
:10568000A89520914A0B30E0812F90E001962817D1
:10569000390729F401C0A89582E080934D0B1F9132
:1056A0000895AF92BF92CF92DF92EF92FF920F9345
:1056B0001F93DF93CF93CDB7DEB76A970FB6F894F9
:1056C000DEBF0FBECDBF8091B7099091B809A09100
:1056D000B909B091BA0989839A83AB83BC8380935B
:1056E000F60A9093F70AA093F80AB093F90A80910A
:1056F000F20A0E940F378091F20A0E947A370AEF6D
:1057000015E085E0A82EB12CAC0EBD1EBBE0EB2E43
:10571000F12CEC0EFD1E6E010894C11CD11C82E21E
:105720009BE0B5010E942C0A882351F188EC9AE095
:10573000B701A6010E94720688EC9AE069E775E05D
:10574000A70128EE33E00E94792282E999E02D81B9
:105750003E814F81588569857A850E94BA516A9643
:105760000FB6F894DEBF0FBECDBFCF91DF911F9172
:105770000F91FF90EF90DF90CF90BF90AF90089582
:1057800088EC9AE0B701A6010E94720688EC9AE0C4
:1057900068E875E0A70128EE33E00E947922F8015D
:1057A00081919191A191B1918F0189839A83AB836A
:1057B000BC838093F60A9093F70AA093F80AB093FB
:1057C000F90A8091F20A0E940F378091F20A0E9432
:1057D0007A37F6E006301F0709F0A1CF01C0FFCFEE
:1057E0002FE088E190E00FB6F894A89581BD0FBE38
:1057F00021BDF5CFFF920F931F93DF93CF93CDB7CA
:10580000DEB7AD970FB6F894DEBF0FBECDBF88EC04
:105810009AE064E975E043EA55E028EC30E00E9444
:1058200079220E94B5270E94512B809196098823E6
:1058300009F078C082E29BE0BE01695F7F4F0E9461
:105840002C0A882311F4FF240CC082E999E02F81EF
:10585000388549855A856B857C850E94BA51FF241D
:10586000F39482E29BE0BE016F5F7F4F0E94030AC8
:10587000882311F4FF240AC082E999E029813A8142
:105880004B815C816D817E810E9425528E01035E79
:105890001F4F82E29BE0B8010E94550A882371F1F4
:1058A0008DB79EB741970FB6F8949EBF0FBE8DBFC0
:1058B000ADB7BEB71196F80181E101900D9281500C
:1058C000E1F782E999E00E94F7518DB79EB74196C2
:1058D0000FB6F8949EBF0FBE8DBFFF2079F082E90E
:1058E00099E00E94AA5288EC9AE069EA75E044EBDC
:1058F00055E020E030E00E94792213C08E01035F62
:105900001F4F88EC9AE0B80147EB59E00E947206FD
:1059100088EC9AE068E875E0A80128EE33E00E9480
:105920007922FFCF88EC9AE064E975E04FEA54E011
:1059300020E030E00E947922AD960FB6F894DEBFE9
:105940000FBECDBFCF91DF911F910F91FF900895B2
:10595000DF93CF9300D000D0CDB7DEB788EC9AE0CC
:1059600061EC75E043EA55E028EC30E00E947922D2
:1059700080919709882389F482E29BE0BE016F5FE2
:105980007F4F0E94DC09882341F049815A816B8155
:105990007C8182E999E00E94915188EC9AE061EC67
:1059A00075E04FEA54E020E030E00E9479220F9049
:1059B0000F900F900F90CF91DF910895CF92DF92CB
:1059C000EF92FF920F931F93DF93CF93CDB7DEB784
:1059D0006C970FB6F894DEBF0FBECDBF88E29BE098
:1059E0000E941B3C8091B10A9091B20A892B09F464
:1059F0007FC08BEA9AE08E010F5F1F4FB80141E034
:105A000050E00E94D42788E29BE0B8010E94BA3D92
:105A1000D090F40BC090F20B809153099E01235F4C
:105A20003F4F813021F4C90163E574E003C0C9012F
:105A30006CE574E00E94FD5C00EE18E0C80160E2D5
:105A400070E040E250E00E94E25C2A813B814C81A0
:105A50005D818DB79EB70A970FB6F8949EBF0FBEB3
:105A60008DBFEDB7FEB73196ADB7BEB712961C939A
:105A70000E93119760E1E62EF12CF382E2828DE61F
:105A800094E095838483CA01AA27BB2797838683E2
:105A9000318720870E94B15D00D0EDB7FEB7319607
:105AA000005F1F4FADB7BEB712961C930E931197B0
:105AB000F382E28282ED95E0958384838A858683F2
:105AC0001782D0861186C28613860E94B15D4DB7BB
:105AD0005EB7445F5F4F0FB6F8945EBF0FBE4DBF19
