:100000000C9436000C945E000C945E000C9460001E
:100010000C945E000C945E000C943D050C945E0004
:100020000C945E000C945E000C945E000C945E00D8
:100030000C945E000C945E000C945E000C945E00C8
:100040000C945E000C945E000C945E000C945E00B8
:100050000C945E000C945E000C945E000C945E00A8
:100060000C94BB0B0C945E005F05DB0811241FBED3
:10007000CFEFD4E0DEBFCDBF12E0A0E0B1E0E0E71B
:10008000FFE202C005900D92A23EB107D9F713E03E
:10009000A2EEB2E001C01D92AF35B107E1F710E06A
:1000A000CCE6D0E004C02297FE010E94E715C836D6
:1000B000D107C9F70E944F0A0C94B6170C940000A0
:1000C0001F920F920FB60F9211242F933F934F93CD
:1000D0005F936F937F938F939F93AF93BF93EF93B0
:1000E000FF931E9905C0E091E202F091E302168AA7
:1000F000FF91EF91BF91AF919F918F917F916F9100
:100100005F914F913F912F910F900FBE0F901F90D5
:100110001895DF92EF92FF920F931F93CF93DF9387
:100120007C01162F072FD22E2A981C99FECF406CE7
:10013000C701642F0E94AE0A812F902F9C01E90114
:1001400010E006C0C70160E00E94AE0A89931F5FFD
:100150001D15C0F32A9ADF91CF911F910F91FF9047
:10016000EF90DF9008950F931F93182F092F2A986F
:100170001C99FECF462B812F902F642F0E94AE0A30
:10018000812F902F60E00E94AE0A2A9A1F910F9152
:100190000895FF920F931F93CF93DF938C01C62F87
:1001A000D0E083E0F82EC80165E340EC0E94B30084
:1001B00090E08F7190708C179D0721F08F2D8A959C
:1001C000F1F7F1CFDF91CF911F910F91FF9008953B
:1001D000FF920F931F93CF93DF938C01C62FD0E034
:1001E00093E0F92EC80168E340EC0E94B30090E070
:1001F0008F7190708C179D0721F08F2D8A95F1F7E4
:10020000F1CFDF91CF911F910F91FF9008950F9340
:100210001F93CF93DF93EC0110E003E0CE0168E37E
:1002200040EC0E94B300807531F4802F8A95F1F77D
:100230001F5F183C99F7DF91CF911F910F9108959F
:100240002A981C99FECF0E94AE0A2A9A08950F930D
:100250001F938C0166E30E942001C80169E30E949C
:1002600020011F910F910895FF920F931F93DF9329
:10027000CF93CDB7DEB72D970FB6F894DEBF0FBE84
:10028000CDBF8C0168E340EC0E94B300F82EC8019A
:100290006BE340EC0E94B3008930C8F180EAF82299
:1002A000B1F1C8016FE340E80E94B3008983803157
:1002B00058F0C8016AE30E942001C80164E30E946B
:1002C0002001F801118227C0C801BE016E5F7F4F77
:1002D0004FE329E00E948900C8016FE340E80E94D3
:1002E000B3008695865B8B87C8016FE340E80E9468
:1002F000B3008C87C80168E340EC0E94B3001D8600
:1003000087FF02C081E08D8781E0F8018183C80109
:1003100064E30E9420012D960FB6F894DEBF0FBE55
:10032000CDBFCF91DF911F910F91FF900895CF9393
:10033000DF93EC016DE30E94200190E034E095959D
:1003400087953A95E1F7877090708630910519F09E
:10035000079739F403C0CE0164E305C0CE0165E31D
:1003600002C0CE0166E30E942001CE016DE30E942F
:10037000200190E024E0959587952A95E1F7877014
:100380009070892B91F7DF91CF910895DF92EF92D2
:10039000FF920F931F93CF93DF937C01142F052FB0
:1003A000D22E2A981C99FECF6064C7010E94AE0A23
:1003B000812F902F9C01E90110E005C0C7016991D0
:1003C0000E94AE0A1F5F1D15C8F32A9ADF91CF91D4
:1003D0001F910F91FF90EF90DF900895FF920F9380
:1003E0001F93182F092FF42E2A981C99FECF812FC6
:1003F000902F0E94AE0A812F902F6F2D0E94AE0A7F
:100400002A9A1F910F91FF900895CF93DF93EC01EB
:100410002A981C99FECF2A9ACE0169E249E50E94EA
:10042000EE01CE016AE24FE70E94EE01CE016BE2DF
:100430004FE30E94EE01CE016CE241E80E94EE0122
:10044000CE016DE245E30E94EE01CE016EE249E08D
:100450000E94EE01CE010E949701DF91CF91089595
:100460001F93CF93DF93EC01162F8F85861731F002
:10047000CE016AE0412F0E94EE011F87DF91CF91EC
:100480001F9108951F93CF93DF93EC01162F8A8954
:10049000861731F0CE0169E0412F0E94EE011A8BE0
:1004A000DF91CF911F9108950F931F938C0160E00E
:1004B00049E20E94EE01C80161E04EE20E94EE01B5
:1004C000C80162E046E00E94EE01C80163E047E433
:1004D0000E94EE01C80164E043ED0E94EE01C801F4
:1004E00065E041E90E94EE01C80166E040E20E9439
:1004F000EE01C80167E044E00E94EE01C80168E037
:1005000045E40E94EE01C80169E040E00E94EE016E
:10051000C8016AE040E00E94EE01C8016BE048E0DB
:100520000E94EE01C8016CE040E00E94EE01C801AB
:100530006DE040E10E94EE01C8016EE041EB0E94D7
:10054000EE01C8016FE04BE30E94EE01C80160E1DB
:100550004AEC0E94EE01C80161E143E80E94EE010D
:10056000C80162E143E90E94EE01C80163E142E291
:100570000E94EE01C80164E148EF0E94EE01C8014B
:1005800065E145E30E94EE01C80166E147E00E9493
:10059000EE01C80167E140E00E94EE01C80168E198
:1005A00048E10E94EE01C80169E146E10E94EE01C6
:1005B000C8016AE14CE60E94EE01C8016BE143E428
:1005C0000E94EE01C8016CE140E40E94EE01C80106
:1005D0006DE141E90E94EE01C8016EE147E80E9429
:1005E000EE01C8016FE14BE60E94EE01C80160E236
:1005F0004BEF0E94EE01C80161E246E50E94EE0168
:10060000C80162E240E10E94EE01C80163E249EEE6
:100610000E94EE01C80164E24AE20E94EE01C801B4
:1006200065E240E00E94EE01C80166E24FE10E94EF
:10063000EE01C80167E241E40E94EE01C80168E2F0
:1006400040E00E94EE01C80169E249E50E94EE0126
:10065000C8016AE24FE70E94EE01C8016BE24FE376
:100660000E94EE01C8016CE241E80E94EE01C8015F
:100670006DE245E30E94EE01C8016EE249E00E948E
:10068000EE011F910F910895EF92FF920F931F9328
:10069000CF93DF93EC018B01F42E64E30E942001E1
:1006A00046EAE42E03C08E2D8A95F1F7CE0165E36C
:1006B00040EC0E94B3008F718D30A9F7CE016BE33F
:1006C0000E942001CE016FE34F2D0E94EE01CE016A
:1006D0006FE3A8012F2D0E94C601CE0165E30E94A1
:1006E0002001CE0165E340EC0E94B3008F7185319B
:1006F00011F020E014C01E9BFECF1E99FECFCE014C
:1007000064E30E942001CE016AE340EC0E94B30042
:1007100020E090E08F779070892B09F421E0822F00
:10072000DF91CF911F910F91FF90EF9008952A9A3A
:1007300021E02A95F1F72A9823E02A95F1F72A9AE1
:100740002DE02A95F1F72A981C99FECF60E30E94CC
:10075000AE0A1C99FECF2A9A08950F931F93CF9348
:10076000DF938C01EB01FC0190898881981721F4BB
:1007700091898981981779F0C80164E049810E94C4
:10078000EE01C80165E048810E94EE0188819981EF
:10079000F801918B808BDF91CF911F910F9108957C
:1007A0005F926F927F928F929F92AF92BF92CF9201
:1007B000DF92EF92FF920F931F93CF93DF93EC01A1
:1007C0007B01D42E213021F0223009F0F8C033C053
:1007D000CB01642F70E04CEC50E00E94D40A8C01F5
:1007E0001E99FECF4D2D4E5FCE016FE30E94EE01AC
:1007F000CE016FE3A7012D2D0E94C601CE016FE34C
:10080000412F0E94EE01CE016FE3402F0E94EE01C6
:10081000CE0165E30E9420011E99FECF13E0CE01B8
:1008200065E340EC0E94B300912F9A95F1F78F7128
:100830008130A9F7C4C0CB01642F70E04CEC50E0CC
:100840000E94D40A182F092F4D2D4E5FCE016FE361
:100850000E94EE01CE016FE3A7012D2D0E94C6017B
:10086000CE016FE3402F0E94EE01CE016FE3412FD6
:100870000E94EE01812F902F0E944617992476EA5C
:10088000572E60E1862E59E1652E712CCE0164E36E
:100890000E942001CE016DE00E94C900852D8A953D
:1008A000F1F7CE0165E30E942001882D8A95F1F7CA
:1008B000CE0165E340EC0E94B3008F71833109F4EF
:1008C0007AC08BE0981621F4CE010E94970173C084
:1008D00093940E94411790E0A0E0B0E0BC01CD01EC
:1008E0000E942C135B016C012BEA3AEA4AEA5EE3B0
:1008F0000E94A2107B018C0120E030E040E85FE321
:100900000E94A812882314F461E052C0C801B70104
:1009100020E030E04FE753E40E94481218160CF034
:1009200043C0C601B50120E030E04AE754E40E942C
:100930009C115B016C0120E030E04AE753E40E9427
:10094000A2107B018C0120E030E040E85FE30E94D0
:10095000A81288231CF461E070E022C0C801B7012E
:1009600020E03FEF4FE757E40E9448121816A4F426
:10097000C601B50120E030E040E251E40E94A2103F
:100980000E94CC0E05C0C3010197F1F76150704081
:1009900061157105C1F77ACFC801B7010E94CC0E6D
:1009A000CB010197F1F772CFC801B7010E94CC0EBD
:1009B0006A95F1F76BCFCE0161E00E94C900DF912B
:1009C000CF911F910F91FF90EF90DF90CF90BF904C
:1009D000AF909F908F907F906F905F9008950F934E
:1009E0001F938C019093E3028093E202E8E6F0E02B
:1009F00080818E7F8083EBE6F0E080818F7B808337
:100A00002698C8010E94A40AC8010E949703C80141
:100A10000E945402C8016EE344E551E028E00E94C0
:100A2000C601C80162E046E00E94EE01C80162E032
:100A300049E00E94EE011F910F91089563FD02C0ED
:100A400028E001C028E26770262B88E190E00FB60D
:100A5000F894A895809360000FBE2093600084B73F
:100A6000877F84BF80916000806180936000809167
:100A7000600080648093600008951F920F920FB60B
:100A80000F9211242F933F934F935F936F937F9314
:100A90008F939F93AF93BF93EF93FF93FF91EF914A
:100AA000BF91AF919F918F917F916F915F914F9186
:100AB0003F912F910F900FBE0F901F901895EF92BE
:100AC0000F9384EE92E063E043E020E000E0EE2448
:100AD0000E94A10D0F91EF9008950F931F93CF9354
:100AE000DF93EC015D9883E08A95F1F75D9A888148
:100AF000998165E340EC0E94B3008F71863121F447
:100B0000888199816BE326C0813121F488819981A4
:100B10006AE320C0813011F08D30F1F48881998131
:100B200064E30E94200110E003E08881998165E37D
:100B300040EC0E94B3001F5F902F9A95F1F78F71E0
:100B40008D3019F0183C89F702C0183C38F08881C4
:100B5000998166E30E94200180E02DC088819981FF
:100B60006FE349E00E94EE01AE01495F5F4F88816B
:100B700099816FE329E00E94C6018881998165E32C
:100B800040EC0E94B300888199810E94070188810E
:100B9000998165E30E9420011E99FECF13E08881B0
:100BA000998165E340EC0E94B300912F9A95F1F78B
:100BB0008F718130A1F7DF91CF911F910F9108952F
:100BC000CF93DF93EC018E81813021F0823009F0E8
:100BD00061C03BC0888199810E94270184EE92E028
:100BE0000E94630ECE016D810E941E0583B7817F36
:100BF000846083BF83B7816083BF83B7816083BF15
:100C0000889583B78E7F83BF83B78E7F83BF88E14C
:100C10000FB6F89480936000109260000FBE2FE032
:100C200088E190E00FB6F894A895809360000FBE1D
:100C300020936000A89584EE92E00E94870E888140
:100C400099810E94050282E024C08B819C810196DB
:100C50009C838B838458934038F01C821B828C8544
:100C60009D8501969D878C878B818B87A895BE017A
:100C7000695F7F4F8881998149E022E00E94D0031B
:100C800088E10FB6F89480936000109260000FBE68
:100C900081E08E83DF91CF910895CF92DF92EF9222
:100CA000FF920F931F93CF93DF93EC016B017A01B7
:100CB0004115510511F4EC80FD8000E010E01BC0EF
:100CC0002FB7F894E885F9858A819B81E80FF91F91
:100CD00080818C938A819B816C817D8101960E94A9
:100CE0009A159B838A830F5F1F4F8E819F81019787
:100CF0009F838E832FBFD601A00FB11F0E151F0536
:100D000020F48E819F81892BD9F6C801DF91CF9184
:100D10001F910F91FF90EF90DF90CF900895CF92A9
:100D2000DF92EF92FF920F931F93CF93DF93EC012B
:100D30006B017A0100E010E01BC02FB7F894E88542
:100D4000F98588819981E80FF91F8C9180838881CA
:100D500099816C817D8101960E949A15998388837F
:100D60000F5F1F4F8E819F8101969F838E832FBFC0
:100D7000D601A00FB11F0E151F0538F42E813F813B
:100D80008C819D8128173907C0F2C801DF91CF916E
:100D90001F910F91FF90EF90DF90CF9008950F93E8
:100DA0001F93DF93CF930F92CDB7DEB78C01FC0179
:100DB000A081B18111968C911197887F803609F4BA
:100DC000BDC0813670F5883209F462C0893298F46A
:100DD000803109F457C0813138F4882309F403C104
:100DE000883009F00CC14EC0883109F451C08032FE
:100DF00009F005C1F8C0803409F496C0813438F494
:100E0000803309F4F0C0883309F0F9C06FC0803531
:100E100009F47AC0883509F455C0883409F0EFC068
:100E2000E2C0883909F4AEC08939B0F4883709F4D2
:100E300085C0893738F4883609F480C0803709F0D6
:100E4000DEC07CC0883809F49DC0803909F481C0B7
:100E5000803809F0D4C07DC0803B09F499C0813B43
:100E600038F4803A09F4B5C0883A09F0C8C090C097
:100E7000803C09F4AEC0883C09F4ABC0883B09F063
:100E8000BEC089C0F801848113968C9313977AC0F1
:100E9000F80184859585892B31F414968C911497EB
:100EA0008F70806D9BC0C8010696BE016F5F7F4F3B
:100EB00041E050E00E944D068981D801ED91FC91FE
:100EC000838382C013968C918983C8014596BE01A5
:100ED0006F5F7F4F41E050E00E948F06D801ED9197
:100EE000FC9184818F70806D84837AC014968C917C
:100EF00014978F70806814968C931092580381E039
:100F0000D80113968C937BC013968C918983C8016A
:100F10004596BE016F5F7F4F41E050E00E948F0613
:100F2000F801858181508583D80115968C9115979C
:100F3000ED91FC91882309F447C042C085E080937D
:100F4000580314968C9114978F70806C14968C9320
:100F500056C013968C918983C8014596BE016F5F78
:100F60007F4F41E050E00E948F06F801818D928D05
:100F7000238D348D821B930B0190F081E02D02971D
:100F8000F8F422C014968C9114978F708068DECF8D
:100F900084E080935803C8010696BE016F5F7F4FBF
:100FA00041E050E00E944D06D801ED91FC9111976F
:100FB000898183831C968D919C911D97892B21F0AB
:100FC00084818F70806C03C084818F70806884837B
:100FD00016C014968C9114978F70806C14968C9315
:100FE000109258030CC014968C9114978F70806DDA
:100FF00014968C931092580381E0F80183830F902C
:10100000CF91DF911F910F910895FF920F931F933E
:10101000CF93DF93EC01F62E8A0103C0CE010E942C
:10102000CF06809158038823C9F7D0935A03C09301
:10103000590382E0809358038C8990E0880F991FB0
:101040008C838FB7F894198618861F821E821D869E
:101050001C868FBFCE010696B8014F2D50E00E942E
:101060008F06E881F98184818F70806A8483DF91A3
:10107000CF911F910F91FF900895CF92DF92FF9231
:101080000F931F93DF93CF930F92CDB7DEB78C01F1
:101090006983F42E690181E0841718F4862F806833
:1010A0008983D8018D919C9161E0AE014F5F5F4FC4
:1010B0000E940508F8010081118103C0C8010E9447
:1010C000CF06809158038823C9F710935A030093E1
:1010D000590383E080935803D80113961C92139709
:1010E00054968C915497880F816014968C938FB787
:1010F000F894F801108E178A168A158A148E138EAA
:101100008FBFD8011596FC921597ED91FC918481C3
:101110008F70806A848303C0C8010E94CF068091CB
:1011200058038823C9F7C8014596B6014F2D50E0F2
:101130000E944D06F801838191E089270F90CF919D
:10114000DF911F910F91FF90DF90CF900895EF9264
:10115000FF921F93DF93CF93CDB7DEB728970FB6DB
:10116000F894DEBF0FBECDBF7C01142F422F732F2A
:10117000123008F0606869839E012E5F3F4FC901FD
:10118000642F412F50E00E9451171F5FF7018081AB
:101190009181612FAE014F5F5F4F0E940508289635
:1011A0000FB6F894DEBF0FBECDBFCF91DF911F9178
:1011B000FF90EF900895DF92EF92FF920F931F93AD
:1011C000DF93CF93CDB7DEB7C054D0400FB6F894BD
:1011D000DEBF0FBECDBF8CEE92E063E045E021E0C4
:1011E00001E0EE240E94A10D84EF92E063E044E070
:1011F00021E00E94A10D8CEF92E064E045E021E047
:101200000E94A10D84E093E064E046E020E00E94AB
:10121000A10D10921703109216031092130310924F
:101220001203109215031092140310921B031092D4
:101230001A031092190310921803109226031092A9
:10124000250310922203109221031092240310927E
:10125000230310922A03109229031092280310925C
:10126000270388EB90E090930D0380930C0310927A
:10127000200388E090E00E94EB1590931B0380937D
:101280001A03009709F40AC188E090E090931703CD
:101290008093160380E490E00E94EB1590932A035C
:1012A00080932903009709F4F8C080E490E09093BC
:1012B00026038093250310921D0310921C031092A5
:1012C0001F0310921E03E0910C03F0910D03848123
:1012D000846084831092580384818064848378942A
:1012E00010922D038CE093E090932C0380932B03BA
:1012F00082E0808389E1809320038BE293E060E2C7
:1013000041E08E010F5F1F4F98010E943D088981C7
:10131000807F876089838BE293E060E241E09801FF
:101320000E94A7088BE293E060E241E098010E94EE
:101330003D0889818F70806389838BE293E060E24E
:1013400041E098010E94A7088BE293E061E241E04E
:1013500098010E943D0889818F70816089838BE2AA
:1013600093E061E241E098010E94A708DD24D39454
:10137000D9828AE08A8332E0E32EF12CEC0EFD1E46
:101380008BE293E062E341E097010E94A708898124
:101390008F7789838BE293E063E341E098010E94B9
:1013A000A7088FE38A838BE293E060E341E0970133
:1013B0000E94A7088BE293E06EE241E097010E9451
:1013C0003D088A818F728A838BE293E06EE241E06E
:1013D00097010E94A7088BE293E060E04EE39E0134
:1013E0002D5F3F4F0E943D088A89833329F48BA1EA
:1013F000873111F4D0922D038FE293E00E94EF0425
:101400008FE293E064E043ED0E94EE018FE293E00F
:1014100065E041E90E94EE018FE293E061E00E9405
:1014200042028FE293E060E00E94300221E02093CC
:101430004503109230038FE890E0A1E1B0E0809383
:101440004D0390934E03A0934F03B093500310921B
:101450005303109252038FEF809354031092510361
:101460002093550320934C0310924A031092490392
:1014700088E080934B032698399A559AC05CDF4FD9
:101480000FB6F894DEBF0FBECDBFCF91DF911F9195
:101490000F91FF90EF90DF900895FFCFFFCFDF9285
:1014A000EF92FF920F931F93DF93CF930F92CDB7DD
:1014B000DEB778948CEF92E00E94870E8E010F5F6A
:1014C0001F4F6AE0F62E58E0D52E46E0E42E86E463
:1014D00093E00E94E0058BE293E061E341E0980134
:1014E0000E943D08498180912E0390E0242F30E036
:1014F000822793278F739070892B51F040932E038E
:10150000809154038F5F80935403F092570302C07D
:1015100040932E0384E093E00E942F0E882329F04D
:1015200081E080935503F0925703809157038823FD
:1015300031F0E0924B03815080935703C8CFD09293
:101540004B0310925503C3CF2A9A229A239A2498C8
:10155000259A2D9A2B9880E58CBD08956EBD0DB40B
:1015600007FEFDCF8EB50895DC0120E040E050E09D
:1015700098E115C0FD01E40FF51FE08138E08E2FE2
:101580008227F82FF17080FD29272695F13009F484
:101590002068315011F0E695F2CF4F5F5F4F46174C
:1015A000570741F7822F0895CF93DF93EC019A01FB
:1015B000A0E0B0E021C0522F432FFE01EA0FFB1F35
:1015C000808190E0842795279C01E4E0369527955B
:1015D000EA95E1F728273927C901982F882792959E
:1015E000907F822793279C0145E0220F331F4A9565
:1015F000E1F7282739271196A617B707E0F2C901A6
:10160000DF91CF9108950F931F93CF93DF938C01B8
:10161000EB0160E070E024C0B42FA52FF801E60FC5
:10162000F71F208130E02A273B27C9019070B4E0E2
:1016300096958795BA95E1F7822793279C01322FDB
:1016400022273295307F28273927A9015070F5E0ED
:10165000440F551FFA95E1F7422753276F5F7F4FDD
:101660006C177D07C8F2CA01DF91CF911F910F91CE
:101670000895CF92DF92EF92FF920F931F93CF9333
:10168000DF93EC016B017A0100E010E01BC02FB783
:10169000F894E885F98588819981E80FF91F8C9184
:1016A0008083888199816C817D8101960E949A1541
:1016B000998388830F5F1F4F8E819F8101969F833F
:1016C0008E832FBFD601A00FB11F0E151F0538F452
:1016D0002E813F818C819D8128173907C0F2C80176
:1016E000DF91CF911F910F91FF90EF90DF90CF90FE
:1016F0000895CF92DF92EF92FF920F931F93CF93B3
:10170000DF93EC016B017A014115510511F4EC8076
:10171000FD8000E010E01BC02FB7F894E885F98544
:101720008A819B81E80FF91F80818C938A819B813C
:101730006C817D8101960E949A159B838A830F5F3D
:101740001F4F8E819F8101979F838E832FBFD6016C
:10175000A00FB11F0E151F0520F48E819F81892BCC
:10176000D9F6C801DF91CF911F910F91FF90EF90B3
:10177000DF90CF9008951F920F920FB60F92112411
:101780000F931F932F933F934F935F936F937F9389
:101790008F939F93AF93BF93EF93FF93DF93CF9379
:1017A0000F92CDB7DEB70091590310915A0301157E
:1017B000110509F428C1F801A081B18111968C911D
:1017C0001197887F803609F4BDC0813670F5883264
:1017D00009F462C0893298F4803109F457C081312C
:1017E00038F4882309F403C1883009F00CC14EC0D5
:1017F000883109F451C0803209F005C1F8C0803445
:1018000009F496C0813438F4803309F4F0C0883389
:1018100009F0F9C06FC0803509F47AC0883509F441
:1018200055C0883409F0EFC0E2C0883909F4AEC071
:101830008939B0F4883709F485C0893738F4883697
:1018400009F480C0803709F0DEC07CC0883809F414
:101850009DC0803909F481C0803809F0D4C07DC0B2
:10186000803B09F499C0813B38F4803A09F4B5C053
:10187000883A09F0C8C090C0803C09F4AEC0883CEA
:1018800009F4ABC0883B09F0BEC089C0F80184816F
:1018900013968C9313977AC0F80184859585892BCC
:1018A00031F414968C9114978F70806D9BC0C80191
:1018B0000696BE016F5F7F4F41E050E00E944D06EB
:1018C0008981D801ED91FC91838382C013968C911C
:1018D0008983C8014596BE016F5F7F4F41E050E0AC
:1018E0000E948F06D801ED91FC9184818F70806DEC
:1018F00084837AC014968C9114978F7080681496A4
:101900008C931092580381E0D80113968C937BC07E
:1019100013968C918983C8014596BE016F5F7F4FF6
:1019200041E050E00E948F06F80185818150858357
:10193000D80115968C911597ED91FC91882309F4A7
:1019400047C042C085E08093580314968C91149749
:101950008F70806C14968C9356C013968C918983EB
:10196000C8014596BE016F5F7F4F41E050E00E9485
:101970008F06F801818D928D238D348D821B930B00
:101980000190F081E02D0297F8F422C014968C911A
:1019900014978F708068DECF84E080935803C8016D
:1019A0000696BE016F5F7F4F41E050E00E944D06FA
:1019B000D801ED91FC911197898183831C968D91BB
:1019C0009C911D97892B21F084818F70806C03C0BE
:1019D00084818F708068848316C014968C911497CC
:1019E0008F70806C14968C93109258030CC01496D0
:1019F0008C9114978F70806D14968C93109258036D
:101A000081E0F80183830F90CF91DF91FF91EF91F7
:101A1000BF91AF919F918F917F916F915F914F9106
:101A20003F912F911F910F910F900FBE0F901F901C
:101A30001895EF920F93DC01663069F1673070F40E
:101A4000633001F1643028F46130B1F06230C1F5E7
:101A500016C06430D1F0653099F51AC0693021F1B3
:101A60006A3028F46730D1F0683051F51AC06A3016
:101A7000F1F06B3029F51EC080E290E01DC083E2DA
:101A800090E01AC086E290E017C089E290E014C0AE
:101A90008CE290E011C08FE290E00EC082E390E013
:101AA0000BC080E091E008C083E091E005C086E0D3
:101AB00091E002C089E091E013969C938E93129777
:101AC00011964C931197EC921296ED91FC9113970D
:101AD000222369F4218181E090E0042E02C0880F66
:101AE000991F0A94E2F78095822381830BC021819C
:101AF00081E090E0042E02C0880F991F0A94E2F75B
:101B0000282B21831296ED91FC911397002359F015
:101B1000228181E090E002C0880F991F4A95E2F788
:101B2000282B22830BC0228181E090E002C0880F25
:101B3000991F4A95E2F78095822382830F91EF9057
:101B40000895EF920F93DC01663069F1673070F40D
:101B5000633001F1643028F46130B1F06230C1F5D6
:101B600016C06430D1F0653099F51AC0693021F1A2
:101B70006A3028F46730D1F0683051F51AC06A3005
:101B8000F1F06B3029F51EC080E290E01DC083E2C9
:101B900090E01AC086E290E017C089E290E014C09D
:101BA0008CE290E011C08FE290E00EC082E390E002
:101BB0000BC080E091E008C083E091E005C086E0C2
:101BC00091E002C089E091E013969C938E93129766
:101BD00011964C931197EC921296ED91FC911397FC
:101BE000222369F4218181E090E0042E02C0880F55
:101BF000991F0A94E2F78095822381830BC021818B
:101C000081E090E0042E02C0880F991F0A94E2F749
:101C1000282B21831296ED91FC911397002359F004
:101C2000228181E090E002C0880F991F4A95E2F777
:101C3000282B22830BC0228181E090E002C0880F14
:101C4000991F4A95E2F78095822382830F91EF9046
:101C50000895FC0175836483578346830895FC01CE
:101C60008081A281B3812181882351F08C9190E001
:101C700002C0959587952A95E2F780958170089521
:101C80008C9190E002C0959587952A95E2F7817036
:101C90000895FC018081A281B3812181882349F0CC
:101CA0008C9190E002C0959587952A95E2F7817016
:101CB00008958C9190E002C0959587952A95E2F75A
:101CC000809581700895FC018081A281B38131816A
:101CD000882371F412962C91129781E090E002C053
:101CE000880F991F3A95E2F7282B12962C930895A6
:101CF00012962C91129781E090E002C0880F991FF4
:101D00003A95E2F78095822312968C930895FC0110
:101D10008081A281B3813181882379F412962C913C
:101D2000129781E090E002C0880F991F3A95E2F780
:101D30008095822312968C93089512962C91129777
:101D400081E090E002C0880F991F3A95E2F7282BB6
:101D500012962C930895FC018081A281B381218188
:101D6000882341F08C9190E002C0959587952A9543
:101D7000E2F708C08C9190E002C0959587952A956E
:101D8000E2F78095817021F0CF010E94630E0895E3
:101D9000CF010E94870E0895EF92FF920F931F9339
:101DA0007B018C0120E030E040E05FE40E9478128B
:101DB00088238CF0C801B70120E030E040E05FE408
:101DC0000E9444100E94D8129B01AC012050304068
:101DD0004040504806C0C801B7010E94D8129B017C
:101DE000AC01B901CA011F910F91FF90EF900895C6
:101DF000A0E0B0E0EEEFFEE00C94AE15DC012B01AC
:101E0000FA019C91923008F439C1EB01888182304B
:101E100008F433C1943069F4843009F02FC111966D
:101E20009C9111978981981709F428C1A0EDB1E020
:101E300025C1843009F421C18230A9F4923009F01F
:101E40001DC19A01AD0188E0EA010990AE01E901E6
:101E500009929E018150C1F7E201898111969C91FE
:101E60008923818308C1923009F407C112962D900D
:101E70003C901397EB018A819B811496AD90BD90A5
:101E8000CD90DC901797EC80FD800E811F81910131
:101E9000281B390BB90137FF04C066277727621B5F
:101EA000730B603271050CF061C0121613066CF5ED
:101EB00037014801062E04C096948794779467945E
:101EC0000A94D2F721E030E040E050E004C0220F55
:101ED000331F441F551F6A95D2F7215030404040B0
:101EE00050402E213F21402351232115310541052A
:101EF000510521F021E030E040E050E079018A0115
:101F0000E628F728082919293CC0232BD1F1260EF1
:101F1000371E35014601062E04C0969487947794A7
:101F200067940A94D2F721E030E040E050E004C02A
:101F3000220F331F441F551F6A95D2F7215030409E
:101F4000404050402A213B214C215D212115310583
:101F50004105510521F021E030E040E050E0590119
:101F60006A01A628B728C828D9280BC0821593056E
:101F70002CF01C01AA24BB24650103C0EE24FF241D
:101F8000870111969C91D20111968C91981709F4B2
:101F900045C0992339F0A80197012A193B094C093A
:101FA0005D0906C0A60195012E193F09400B510B92
:101FB00057FD08C0118233822282248335834683F1
:101FC00057831DC081E0818333822282882799272D
:101FD000DC01821B930BA40BB50B84839583A68332
:101FE000B7830DC0220F331F441F551F2483358331
:101FF00046835783828193810197938382832481CF
:10200000358146815781DA01C9010197A109B109DA
:102010008F5F9F4FAF4FBF4328F30BC09183338235
:102020002282EA0CFB1C0C1D1D1DE482F582068336
:10203000178383E08083248135814681578157FF50
:102040001AC0C901AA2797FDA095BA2F8170907078
:10205000A070B0705695479537952795822B932B96
:10206000A42BB52B84839583A683B7838281938128
:10207000019693838283DF0101C0D201CD01CDB7E8
:10208000DEB7E2E10C94CA15A0E2B0E0EAE4F0E1C8
:102090000C94BA1569837A838B839C832D833E834A
:1020A0004F835887E9E0EE2EF12CEC0EFD1ECE0199
:1020B0000196B7010E94C9148E010F5E1F4FCE0119
:1020C0000596B8010E94C9148A8991E089278A8BF4
:1020D000C701B801AE01475E5F4F0E94F80E0E9433
:1020E000F413A096E6E00C94D615A0E2B0E0EBE77E
:1020F000F0E10C94BA1569837A838B839C832D83DA
:102100003E834F835887F9E0EF2EF12CEC0EFD1E35
:10211000CE010196B7010E94C9148E010F5E1F4FB8
:10212000CE010596B8010E94C914C701B801AE01DD
:10213000475E5F4F0E94F80E0E94F413A096E6E0FF
:102140000C94D615A0E2B0E0E8EAF0E10C94AE15EC
:1021500069837A838B839C832D833E834F83588747
:10216000CE010196BE01675F7F4F0E94C914CE0168
:102170000596BE016F5E7F4F0E94C914998592300B
:1021800088F089898230C8F0943019F4823051F493
:1021900004C0843029F4923081F480ED91E0C6C00F
:1021A000923049F420E09A858A89981321E02A87A1
:1021B000CE010996BBC0823049F420E09A858A8915
:1021C000981321E02A8BCE014196B0C02D843E8425
:1021D0004F8458886D887E888F88988CEE24FF24E1
:1021E0008701AA24BB24650140E050E060E070E074
:1021F000E0E0F0E0C10181709070892BE9F0E60C1D
:10220000F71C081D191D9A01AB012A0D3B1D4C1D21
:102210005D1D80E090E0A0E0B0E0E614F704080562
:10222000190520F481E090E0A0E0B0E0BA01A90136
:10223000480F591F6A1F7B1FAA0CBB1CCC1CDD1C3E
:1022400097FE08C081E090E0A0E0B0E0A82AB92A9B
:10225000CA2ADB2A3196E032F10549F0660C771C78
:10226000881C991C5694479437942794C3CFFA85B9
:10227000EA892B893C898B859C85280F391F2E5F25
:102280003F4F17C0CA0181709070892B61F016957D
:102290000795F794E79480E090E0A0E0B0E8E82AA2
:1022A000F92A0A2B1B2B76956795579547952F5F33
:1022B0003F4F77FDE7CF0CC0440F551F661F771FB8
:1022C00017FD4160EE0CFF1C001F111F2150304014
:1022D000403090E0590790E0690790E4790760F397
:1022E0002B8F3C8FDB01CA018F779070A070B0708C
:1022F00080349105A105B10561F447FD0AC0E114E0
:10230000F1040105110529F0405C5F4F6F4F7F4FCD
:1023100040781A8EFE1711F081E08A8F4D8F5E8F04
:102320006F8F78A383E0898FCE0149960E94F413C2
:10233000A096E2E10C94CA15A8E1B0E0E2EAF1E16E
:102340000C94B61569837A838B839C832D833E839B
:102350004F835887B9E0EB2EF12CEC0EFD1ECE0119
:102360000196B7010E94C9148E010F5E1F4FCE0166
:102370000596B8010E94C9142985223008F47EC050
:102380003989323010F4B8017CC08A859A8989274E
:102390008A87243011F0223031F4231709F06EC0FF
:1023A00060ED71E06EC0343039F41D861E861F86E4
:1023B000188A1C861B8604C0323021F484E0898789
:1023C000B7015FC02B853C858B899C89281B390B05
:1023D0003C872B87ED84FE840F851889AD88BE88E5
:1023E000CF88D88CEA14FB040C051D0540F4EE0CD4
:1023F000FF1C001F111F215030403C872B8720E01D
:1024000030E040E050E080E090E0A0E0B0E460E048
:1024100070E0EA14FB040C051D0540F0282B392B55
:102420004A2B5B2BEA18FB080C091D09B695A795EA
:1024300097958795EE0CFF1C001F111F6F5F7F4F54
:102440006F31710531F7DA01C9018F779070A07093
:10245000B07080349105A105B10561F427FD0AC073
:10246000E114F1040105110529F0205C3F4F4F4FA5
:102470005F4F20782D873E874F87588BBE01675F5F
:102480007F4FCB010E94F4136896EAE00C94D215BA
:10249000A8E1B0E0EEE4F2E10C94BA1569837A8326
:1024A0008B839C832D833E834F83588789E0E82E5E
:1024B000F12CEC0EFD1ECE010196B7010E94C9144D
:1024C0008E010F5E1F4FCE010596B8010E94C91400
:1024D0008985823040F08989823028F0C701B801AF
:1024E0000E94411501C08FEF6896E6E00C94D61566
:1024F000A8E1B0E0EEE7F2E10C94BA1569837A83C3
:102500008B839C832D833E834F83588789E0E82EFD
:10251000F12CEC0EFD1ECE010196B7010E94C914EC
:102520008E010F5E1F4FCE010596B8010E94C9149F
:102530008985823040F08989823028F0C701B8014E
:102540000E94411501C08FEF6896E6E00C94D61505
:10255000A8E1B0E0EEEAF2E10C94BA1569837A835F
:102560008B839C832D833E834F83588789E0E82E9D
:10257000F12CEC0EFD1ECE010196B7010E94C9148C
:102580008E010F5E1F4FCE010596B8010E94C9143F
:102590008985823040F08989823028F0C701B801EE
:1025A0000E94411501C081E06896E6E00C94D615C2
:1025B000ACE0B0E0EEEDF2E10C94BE1569837A83F5
:1025C0008B839C83CE010196BE016B5F7F4F0E947F
:1025D000C9148D81823061F1823050F1843021F450
:1025E0008E81882351F12EC02F81388537FD20C080
:1025F0006E812F3131051CF06623F9F023C08EE186
:1026000090E0821B930B29853A854B855C8504C03D
:1026100056954795379527958A95D2F76623B1F059
:1026200050954095309521953F4F4F4F5F4F0EC0CD
:1026300020E030E040E050E009C02FEF3FEF4FEFE7
:102640005FE704C020E030E040E050E8B901CA0193
:102650002C96E2E00C94DA15A8E0B0E0E2E3F3E1B6
:102660000C94B6157B018C016115710581059105EE
:1026700019F482E0898360C083E089838EE1C82EEB
:10268000D12CDC82CB82ED82FE820F831887C801B9
:10269000B7010E94A513FC013197F7FF3BC0222729
:1026A00033272E1B3F0B57016801022E04C0D6941E
:1026B000C794B794A7940A94D2F740E050E060E042
:1026C00070E081E090E0A0E0B0E004C0880F991FC6
:1026D000AA1FBB1F2A95D2F70197A109B1098E2124
:1026E0009F21A023B1230097A105B10521F041E06E
:1026F00050E060E070E04A295B296C297D294D8318
:102700005E836F8378878EE190E08E1B9F0B9C83A6
:102710008B8312C0309781F00E2E04C0EE0CFF1C8C
:10272000001F111F0A94D2F7ED82FE820F831887D3
:10273000CE1ADF0ADC82CB821A82CE0101960E9479
:10274000F4132896EAE00C94D215EF92FF920F93BF
:102750001F937B018C0180E0E81680E0F80681E0A1
:10276000080780E0180788F48FEFE816F1040105E8
:10277000110531F028F088E090E0A0E0B0E017C04B
:1027800080E090E0A0E0B0E012C080E0E81680E0D9
:10279000F80680E0080781E0180728F088E190E05B
:1027A000A0E0B0E004C080E190E0A0E0B0E020E272
:1027B00030E040E050E0281B390B4A0B5B0B04C0B3
:1027C00016950795F794E7948A95D2F7F701E852A2
:1027D000FE4F8081281B310941095109C9011F9110
:1027E0000F91FF90EF900895DF92EF92FF920F9379
:1027F0001F93FC01E480F58006811781D1808081E0
:10280000823048F480E090E0A0E1B0E0E82AF92AC4
:102810000A2B1B2BA5C0843009F49FC0823021F401
:10282000EE24FF24870105C0E114F1040105110520
:1028300019F4E0E0F0E096C0628173819FEF6238A6
:1028400079070CF05BC022E83FEF261B370B2A31DB
:1028500031052CF020E030E040E050E02AC0B80123
:10286000A701022E04C076956795579547950A945F
:10287000D2F781E090E0A0E0B0E004C0880F991F9B
:10288000AA1FBB1F2A95D2F70197A109B1098E2172
:102890009F21A023B1230097A105B10521F081E07C
:1028A00090E0A0E0B0E09A01AB01282B392B4A2B35
:1028B0005B2BDA01C9018F779070A070B070803403
:1028C0009105A105B10539F427FF09C0205C3F4FF0
:1028D0004F4F5F4F04C0215C3F4F4F4F5F4FE0E0D1
:1028E000F0E02030A0E03A07A0E04A07A0E45A0751
:1028F00010F0E1E0F0E079018A0127C0603871054D
:1029000064F5FB01E158FF4FD801C7018F77907044
:10291000A070B07080349105A105B10539F4E7FECF
:102920000DC080E490E0A0E0B0E004C08FE390E050
:10293000A0E0B0E0E80EF91E0A1F1B1F17FF05C03C
:1029400016950795F794E794319687E016950795C5
:10295000F794E7948A95D1F705C0EE24FF24870108
:10296000EFEFF0E06E2F679566276795902F9F77C2
:10297000D794DD24D7948E2F8695492F462B582F38
:102980005D29B701CA011F910F91FF90EF90DF9071
:102990000895FC01DB01408151812281622F6F7714
:1029A00070E0221F2227221F9381892F880F822BFC
:1029B000282F30E0991F9927991F11969C93119702
:1029C00021153105A9F5411551056105710511F470
:1029D00082E037C082E89FEF13969C938E93129704
:1029E0009A01AB0167E0220F331F441F551F6A9500
:1029F000D1F783E08C930DC0220F331F441F551F66
:102A000012968D919C911397019713969C938E9398
:102A10001297203080E0380780E0480780E45807AC
:102A200058F314962D933D934D935C931797089507
:102A30002F3F310579F4411551056105710519F4F0
:102A400084E08C93089564FF03C081E08C9312C0EE
:102A50001C9210C02F57304013963C932E93129720
:102A600083E08C9387E0440F551F661F771F8A957C
:102A7000D1F7706414964D935D936D937C93179783
:102A800008951F93DC01FB019C91923008F447C02C
:102A90008081823008F443C0943051F411961C9127
:102AA000843099F58181682F70E0611B71093FC006
:102AB000843021F0923031F48230B9F18181882361
:102AC00089F12DC011961C9111978230F1F081810E
:102AD0001817D9F412962D913C9113978281938106
:102AE0008217930794F028173907BCF014968D913C
:102AF0009D910D90BC91A02D2481358146815781F7
:102B0000281739074A075B0718F4112341F00AC058
:102B100082179307A407B50740F4112319F061E069
:102B200070E005C06FEF7FEF02C060E070E0CB01A6
:102B30001F910895AA1BBB1B51E107C0AA1FBB1F11
:102B4000A617B70710F0A61BB70B881F991F5A9539
:102B5000A9F780959095BC01CD0108952F923F92E1
:102B60004F925F926F927F928F929F92AF92BF929D
:102B7000CF92DF92EF92FF920F931F93CF93DF9349
:102B8000CDB7DEB7CA1BDB0B0FB6F894DEBF0FBEA6
:102B9000CDBF09942A88398848885F846E847D84F3
:102BA0008C849B84AA84B984C884DF80EE80FD80F5
:102BB0000C811B81AA81B981CE0FD11D0FB6F8946B
:102BC000DEBF0FBECDBFED010895EE0FFF1F0590D4
:102BD000F491E02D0994CF93DF93BC0182309105ED
:102BE00010F462E070E0A0915D03B0915E03ED012E
:102BF000E0E0F0E040E050E021C088819981861754
:102C0000970769F48A819B81309719F093838283B7
:102C100004C090935E0380935D03FE0134C0681787
:102C2000790738F44115510519F08417950708F410
:102C3000AC01FE018A819B819C01E9012097E9F6A4
:102C400041155105A9F1CA01861B970B049708F499
:102C5000BA01E0E0F0E02AC08D919C9111978417B1
:102C60009507F9F46417750781F412968D919C917C
:102C70001397309719F09383828304C090935E0377
:102C800080935D03FD0132964FC0CA01861B970BEE
:102C9000FD01E80FF91F6193719302978D939C9347
:102CA00043C0FD01828193819C01D9011097A1F657
:102CB00080915B0390915C03892B41F48091DA024F
:102CC0009091DB0290935C0380935B034091DC0264
:102CD0005091DD024115510541F44DB75EB7809129
:102CE000D8029091D902481B590B20915B03309177
:102CF0005C0324173507B0F4CA01821B930B8617B7
:102D0000970780F0AB014E5F5F4F8417950750F037
:102D1000420F531F50935C0340935B03F90161938F
:102D2000719302C0E0E0F0E0CF01DF91CF91089510
:102D3000CF93DF93009709F450C0EC0122971B82D8
:102D40001A82A0915D03B0915E03109709F140E0F3
:102D500050E0AC17BD0708F1BB83AA83FE012191A7
:102D60003191E20FF31FAE17BF0779F48D919C915B
:102D70001197280F391F2E5F3F4F398328831296F2
:102D80008D919C9113979B838A834115510571F412
:102D9000D0935E03C0935D0320C012968D919C91E9
:102DA0001397AD01009711F0DC01D3CFFA01D38363
:102DB000C28321913191E20FF31FCE17DF0769F42F
:102DC00088819981280F391F2E5F3F4FFA01318387
:102DD00020838A819B8193838283DF91CF910895A1
:102DE000A0E0B0E0E6EFF6E10C94B615EC01A880A7
:102DF000B980CA80DB80A114B104C104D10441F4BC
:102E000084E2A82E89EDB82E8BE5C82E87E0D82E57
:102E1000C601B5012DE133EF41E050E00E94791782
:102E200027EA31E440E050E00E945A177B018C0110
:102E3000C601B5012DE133EF41E050E00E94791762
:102E4000CA01B9012CEE34EF4FEF5FEF0E945A1721
:102E50006E0D7F1D801F911F97FF04C06150704051
:102E600080409048688379838A839B839B013F7766
:102E7000C901CDB7DEB7EAE00C94D2150E94F01676
:102E800008958EED92E00E94F0160895A0E0B0E063
:102E90008093DE029093DF02A093E002B093E10200
:102EA0000895FB01DC0102C001900D924150504099
:102EB000D8F70895629FD001739FF001829FE00DC3
:102EC000F11D649FE00DF11D929FF00D839FF00DA9
:102ED000749FF00D659FF00D9927729FB00DE11D55
:102EE000F91F639FB00DE11DF91FBD01CF01112432
:102EF000089597FB092E05260ED057FD04D014D057
:102F00000AD0001C38F450954095309521953F4FDC
:102F10004F4F5F4F0895F6F79095809570956195A6
:102F20007F4F8F4F9F4F0895A1E21A2EAA1BBB1B04
:102F3000FD010DC0AA1FBB1FEE1FFF1FA217B30785
:102F4000E407F50720F0A21BB30BE40BF50B661F9B
:102F5000771F881F991F1A9469F76095709580955F
:102F600090959B01AC01BD01CF010895F894FFCF6E
:102F70000000000000000000000000000000000051
:102F80000000000000000000000000000000000041
:102F90000000000000000000000000000000000031
:102FA0000000000000000000000000000000000021
:102FB0000000000000000000000000000000000011
:102FC00000000000C0C0C0C0C0C0C0C00000000001
:102FD00000000000000000000000000000000000F1
:102FE00000000000000000000000000000000000E1
:102FF00000000000000000000000000000000000D1
:1030000000000000000000000000000000000000C0
:1030100000000000000000000000000000000000B0
:1030200000000000000000000000000000000000A0
:103030000000000000000000000000000000000090
:10304000000000000000000000010202030303036F
:103050000404040404040404050505050505050528
:103060000505050505050505060606060606060608
:1030700006060606060606060606060606060606F0
:1030800006060606060606060707070707070707D8
:1030900007070707070707070707070707070707C0
:1030A00007070707070707070707070707070707B0
:1030B00007070707070707070707070707070707A0
:1030C0000707070707070707080808080808080888
:1030D0000808080808080808080808080808080870
:1030E0000808080808080808080808080808080860
:1030F0000808080808080808080808080808080850
:10310000080808080808080808080808080808083F
:10311000080808080808080808080808080808082F
:10312000080808080808080808080808080808081F
:10313000080808080808080808080808080808080F
:10314000080808080808080820005F0300000100BC
:0231500000007D
:00000001FF
