:100000000C940E010C9438010C9438010C943801B6
:100010000C9438010C9438010C9438010C9438017C
:100020000C94C2930C9438010C9460700C943801B9
:100030000C94EF210C9438010C9457220C94380145
:100040000C948B220C9438010C944B0C0C94670E7E
:100050000C94AD0A0C9438010C9438010C943801BE
:100060000C9438010C9438010C9438010C9438012C
:100070000C9438010C9438010C940A0C0C940B0E5F
:100080000C94DB0A0C94C5090C9438014854545064
:100090002F312E3120323030204F4B0D0A436F6EFE
:1000A00074656E742D547970653A20746578742F78
:1000B00068746D6C0D0A436F6E74656E742D4C65BB
:1000C0006E6774683A2037380D0A0D0A3C48544D63
:1000D0004C3E0D0A3C424F44593E0D0A536F72721A
:1000E000792C20746865207061676520796F7520B0
:1000F00072657175657374656420776173206E6FC6
:100100007420666F756E642E0D0A3C2F424F445961
:100110003E0D0A3C2F48544D4C3E0D0A00004854F9
:1001200054502F312E3120343030204F4B0D0A43A4
:100130006F6E74656E742D547970653A20746578AD
:10014000742F68746D6C0D0A436F6E74656E742D38
:100150004C656E6774683A2035300D0A0D0A3C48CC
:10016000544D4C3E0D0A3C424F44593E0D0A496ED7
:1001700076616C696420726571756573742E0D0A01
:100180003C2F424F44593E0D0A3C2F48544D4C3EA3
:100190000D0A0000485454502F312E312032303097
:1001A000204F4B0D0A436F6E74656E742D54797039
:1001B000653A20746578742F68746D6C0D0A436F0E
:1001C0006E74656E742D4C656E6774683A203539AF
:1001D0000D0A0D0A3C48544D4C3E0D0A3C424F441A
:1001E000593E0D0A43474920636F6D6D616E64206F
:1001F000697320636F6D706C657465642E0D0A3CC5
:100200002F424F44593E0D0A3C2F48544D4C3E0D51
:100210000A000000B615F747845A006511241FBE76
:10022000CFEFD0E1DEBFCDBF18E0A0E0B1E0E8EE57
:10023000FFE501E00BBF02C007900D92A634B107A5
:10024000D9F71EE0A6E4B8E001C01D92A230B107C4
:10025000E1F712E0CCE1D2E004C02297FE010E9457
:1002600068AAC431D107C9F70E94584C0C94F2AF68
:100270000C940000DF93CF9300D0CDB7DEB79A8304
:10028000898381E00F900F90CF91DF9108950F93B4
:100290001F93DF93CF93CDB7DEB728970FB6F894AF
:1002A000DEBF0FBECDBF9A8389836B834C832D83C2
:1002B0001F830E838B8188878885813110F080E1D0
:1002C000888788858B83E981FA81808191816C811F
:1002D0004D810E943713E981FA81808191812E81BD
:1002E0003F81B9014B810E94911381E028960FB69E
:1002F000F894DEBF0FBECDBFCF91DF911F910F915C
:100300000895DF93CF93CDB7DEB727970FB6F89454
:10031000DEBF0FBECDBF9B838A836C835E834D831C
:100320008D819E810E941BAC898389818F838F81FF
:10033000813110F080E18F838F818983EA81FB8195
:100340008081918160E04C810E943713EA81FB81BA
:10035000808191812D813E81B90149810E94911353
:1003600081E027960FB6F894DEBF0FBECDBFCF91C8
:10037000DF910895DF93CF9300D0CDB7DEB79A8396
:100380008983E981FA81808191810E94C41281E090
:100390000F900F90CF91DF910895DF93CF9300D00E
:1003A000CDB7DEB79A838983E981FA818081918113
:1003B0000E94C41281E00F900F90CF91DF910895B9
:1003C000DF93CF9300D000D0CDB7DEB79A83898377
:1003D0007C836B838B819C810E94C4128B819C8166
:1003E00060E040E00E9437130F900F900F900F9045
:1003F000CF91DF910895DF93CF9300D000D0CDB798
:10040000DEB79A8389837C836B838B819C810E9476
:10041000C4128B819C8160E040E00E9437130F90F2
:100420000F900F900F90CF91DF910895DF93CF93AE
:1004300000D0CDB7DEB79A838983E981FA8117822C
:100440001682E981FA8111821082E981FA81138290
:100450001282E981FA8181E08087E981FA8115823F
:1004600014820F900F90CF91DF910895DF93CF9377
:1004700000D0CDB7DEB79A838983E981FA811782EC
:100480001682E981FA8111821082E981FA81138250
:100490001282E981FA8181E08087E981FA811582FF
:1004A00014820F900F90CF91DF910895DF93CF9337
:1004B00000D000D00F92CDB7DEB79C838B831A8219
:1004C0001982EB81FC8120813181EB81FC81828169
:1004D00093811D822817390710F041E04D835D811B
:1004E000552379F0EB81FC8120813181EB81FC8106
:1004F00082819381A901481B590BCA019A83898380
:1005000014C0EB81FC8126813781EB81FC818081E5
:100510009181280F391FEB81FC8182819381A90190
:10052000481B590BCA019A838983EB81FC81268180
:10053000378189819A81A901481B590BCA0101970A
:100540000F900F900F900F900F90CF91DF91089523
:10055000DF93CF9300D000D00F92CDB7DEB79C834E
:100560008B831A821982EB81FC8120813181EB819E
:10057000FC81828193811D822817390710F041E0A8
:100580004D835D81552379F0EB81FC8120813181A0
:10059000EB81FC8182819381A901481B590BCA011F
:1005A0009A83898314C0EB81FC8126813781EB819A
:1005B000FC8180819181280F391FEB81FC81828130
:1005C0009381A901481B590BCA019A8389838981A8
:1005D0009A810F900F900F900F900F90CF91DF9115
:1005E0000895DF93CF93CDB7DEB72B970FB6F8946E
:1005F000DEBF0FBECDBF9E838D8378876F835A8702
:1006000049871C821B821A821982ED81FE8120811A
:100610003181ED81FE81828193811B862817390704
:1006200010F041E04B875B85552379F0ED81FE8129
:1006300020813181ED81FE8182819381A901481B56
:10064000590BCA019A83898343C0ED81FE812681BB
:100650003781ED81FE8180819181280F391FED81E5
:10066000FE8182819381A901481B590BCA019A839B
:1006700089832EC0ED81FE8124813581ED81FE814B
:1006800080819181D901A80FB91FEF81F885808100
:100690008C93ED81FE81808191810196ED81FE81B7
:1006A00026813781B9010E94CBA9ED81FE8191831A
:1006B00080838F819885019698878F8389819A811D
:1006C00001969A8389838B819C8101969C838B837D
:1006D0002B813C8189859A852817390768F4ED813B
:1006E000FE81868197819C012150304089819A81C9
:1006F0008217930708F4BECF8B819C812B960FB68F
:10070000F894DEBF0FBECDBFCF91DF910895DF9388
:10071000CF9300D00F92CDB7DEB79A8389838981BA
:100720009A810E9456029C01E981FA818681978113
:1007300001971B822817390711F481E08B838B8185
:100740000F900F900F90CF91DF910895DF93CF938B
:1007500000D0CDB7DEB79A838983E981FA8113820D
:100760001282E981FA81118210820F900F90CF914D
:10077000DF910895DF93CF93CDB7DEB72B970FB6F8
:10078000F894DEBF0FBECDBF9E838D8378876F83C5
:100790005A8749871C821B821A821982ED81FE8149
:1007A00020813181ED81FE81828193811B86281712
:1007B000390710F041E04B875B85552379F0ED81D7
:1007C000FE8120813181ED81FE8182819381A901A9
:1007D000481B590BCA019A83898343C0ED81FE816E
:1007E00026813781ED81FE8180819181280F391F1B
:1007F000ED81FE8182819381A901481B590BCA01B9
:100800009A8389832EC0ED81FE8124813581ED811B
:10081000FE8182819381F901E80FF91F8081EF81C8
:10082000F8858083ED81FE81828193810196ED813F
:10083000FE8126813781B9010E94CBA9ED81FE811D
:10084000938382838F819885019698878F8389818E
:100850009A8101979A8389838B819C8101969C83DD
:100860008B832B813C8189859A852817390720F451
:1008700089819A81009739F68B819C812B960FB6DE
:10088000F894DEBF0FBECDBFCF91DF910895DF9307
:10089000CF93CDB7DEB72B970FB6F894DEBF0FBE60
:1008A000CDBF98878F837A8769871E821D821C82BD
:1008B0001B82EF81F88520813181EF81F88582816B
:1008C00093811B862817390710F041E04B875B8521
:1008D000552379F0EF81F88520813181EF81F8850A
:1008E00082819381A901481B590BCA019C838B8388
:1008F00014C0EF81F88526813781EF81F8858081EA
:100900009181280F391FEF81F88582819381A90198
:10091000481B590BCA019C838B83EF81F885828128
:1009200093819A83898321C0EF81F8852481358161
:1009300089819A81F901E80FF91F8081E985FA859B
:10094000808389819A8101969A83898389859A8592
:1009500001969A8789878B819C8101979C838B83E1
:100960008D819E8101969E838D838B819C810097D2
:10097000D9F68D819E812B960FB6F894DEBF0FBEFF
:10098000CDBFCF91DF910895DF93CF9300D000D0FA
:100990000F92CDB7DEB79A8389837C836B838B817B
:1009A0009C810E94DEAAE981FA8195838483E98192
:1009B000FA8184819581009729F4E981FA81108672
:1009C0001D8208C0E981FA818B819C81978386838F
:1009D00081E08D838D810F900F900F900F900F907D
:1009E000CF91DF910895DF93CF93CDB7DEB72797EF
:1009F0000FB6F894DEBF0FBECDBF9B838A837D8385
:100A00006C83A1E7B0E0E1E7F0E080818E7F8C931A
:100A1000A1E7B0E0E1E7F0E080818D7F8C938C81ED
:100A20009D819C0140E050E080E49FE1A0E0B0E0C7
:100A3000BC01CD010E94F2A9DA01C9018983898133
:100A40008031A0F08981882F90E040979F838E832A
:100A50008E819F8199232CF48E819F8101969F83A3
:100A60008E838E819F81959587958983E0E7F0E05D
:100A70008981808327960FB6F894DEBF0FBECDBF65
:100A8000CF91DF910895DF93CF9300D0CDB7DEB73C
:100A90009A838983A1E3B0E0E1E3F0E080818E7F77
:100AA0008C93A1E3B0E0E1E3F0E080818D7F8C9353
:100AB000A2E3B0E0E2E3F0E0808181608C93A2E306
:100AC000B0E0E2E3F0E0808182608C93E981FA811A
:100AD00016A215A2E981FA8110A617A289819A812E
:100AE00060E971E00E94F304A4E7B0E0E4E7F0E01D
:100AF000808184608C93E981FA811082A4E7B0E060
:100B0000E4E7F0E0808181608C93A4E7B0E0E4E763
:100B1000F0E0808180648C9389819A81909347086A
:100B2000809346080F900F90CF91DF910895DF9347
:100B3000CF9300D0CDB7DEB79A838983A1E3B0E02D
:100B4000E1E3F0E080818E7F8C93A1E3B0E0E1E30C
:100B5000F0E080818D7F8C93A2E3B0E0E2E3F0E0EF
:100B6000808181608C93A2E3B0E0E2E3F0E08081D9
:100B700082608C93E981FA8116A215A2E981FA813B
:100B800010A617A289819A8160E971E00E94F3049E
:100B9000A4E7B0E0E4E7F0E0808184608C93E98131
:100BA000FA811082A4E7B0E0E4E7F0E080818160A0
:100BB0008C93A4E7B0E0E4E7F0E0808180648C935C
:100BC00089819A8190934708809346080F900F90EF
:100BD000CF91DF910895DF93CF93CDB7DEB72897FC
:100BE0000FB6F894DEBF0FBECDBF9A8389836B83A7
:100BF0004C8382E790E098878F838B81982F9E7F2C
:100C00009E838C81882319F0E1E0ED8301C01D8271
:100C10008E81FD818F2BEF81F885808328960FB61A
:100C2000F894DEBF0FBECDBFCF91DF910895DF9363
:100C3000CF9300D000D0CDB7DEB79A8389837C8371
:100C40006B83E981FA818B819C8196A385A30F90A8
:100C50000F900F900F90CF91DF910895DF93CF9376
:100C600000D000D0CDB7DEB79A8389837C836B83B5
:100C7000E981FA818B819C8190A787A30F900F90C7
:100C80000F900F90CF91DF910895DF93CF9300D015
:100C9000CDB7DEB79A838983A4E7B0E0E4E7F0E05C
:100CA00080818F70806A8C930F900F90CF91DF912D
:100CB0000895DF93CF9300D0CDB7DEB79A838983B1
:100CC000A4E7B0E0E4E7F0E080818F70806D8C9362
:100CD0000F900F90CF91DF910895DF93CF9300D0C5
:100CE0000F92CDB7DEB79A838983E4E7F0E0808185
:100CF0001B82882314F081E08B838B818823A9F7E2
:100D00000F900F900F90CF91DF910895DF93CF93C5
:100D100000D00F92CDB7DEB79A8389836B83E3E768
:100D2000F0E08B818083A4E7B0E0E4E7F0E080812D
:100D30008F7080688C930F900F900F90CF91DF9100
:100D40000895DF93CF9300D00F92CDB7DEB79A838B
:100D500089836B838B81882349F0A4E7B0E0E4E7C3
:100D6000F0E080818F70806C8C9308C0A4E7B0E0C5
:100D7000E4E7F0E080818F7080688C930F900F9093
:100D80000F90CF91DF910895DF93CF9300D0CDB72F
:100D9000DEB79A838983E3E7F0E080810F900F90BC
:100DA000CF91DF910895DF93CF9300D0CDB7DEB719
:100DB0009A838983E1E7F0E080810F900F90CF91D3
:100DC000DF910895DF93CF93CDB7DEB728970FB6A5
:100DD000F894DEBF0FBECDBF9B838A836C834D83A7
:100DE0003F832E83EA81FB818081888788858823E1
:100DF00011F081E0888788858823A1F7EA81FB814B
:100E000082E080838C818E7FEA81FB8181A71982B9
:100E100015C08981282F30E0EE81FF8140818A81D1
:100E20009B81820F931FFC01319640838E819F81AD
:100E300001969F838E8389818F5F898399818D81BC
:100E4000981738F3EA81FB81118AEA81FB818D8151
:100E5000828B8A819B810E94450628960FB6F89462
:100E6000DEBF0FBECDBFCF91DF910895DF93CF934B
:100E7000CDB7DEB729970FB6F894DEBF0FBECDBF52
:100E80009B838A836C834D833F832E83EA81FB811E
:100E9000808188878885882311F081E0888788850C
:100EA0008823A1F7EA81FB8183E080838C818160C4
:100EB000EA81FB8181A7EA81FB8113A2EA81FB81A0
:100EC0008D8184A38A819B810E944506EA81FB81F2
:100ED000808189878985882311F081E089878985C8
:100EE0008823A1F7198215C08981282F30E08A81D3
:100EF0009B81820F931FFC0173968081EE81FF819D
:100F000080838E819F8101969F838E8389818F5FED
:100F1000898399818D81981738F329960FB6F894B3
:100F2000DEBF0FBECDBFCF91DF910895DF93CF938A
:100F300000D000D00F92CDB7DEB79B838A83E1E764
:100F4000F0E08081887F89838981282F30E03D838C
:100F50002C838C819D818836910509F44FC12C81A9
:100F60003D81293631050CF060C08C819D81803334
:100F7000910509F4FFC02C813D812133310554F5E1
:100F80008C819D818031910509F4B0C02C813D8117
:100F90002131310564F48C819D81009709F4E2C10F
:100FA0002C813D812830310509F4A0C0E6C18C8137
:100FB0009D818032910509F4DDC02C813D8128326C
:100FC000310509F49CC08C819D818831910509F41B
:100FD00096C0D3C12C813D812834310509F4CAC0A3
:100FE0008C819D81893491056CF42C813D8128335D
:100FF000310509F4C9C08C819D818034910509F4C3
:10100000E3C0BBC12C813D812835310509F49EC068
:101010008C819D818036910509F4F0C02C813D8141
:101020002035310509F4BCC0A8C18C819D81803A6E
:10103000910509F41EC12C813D81213A31055CF5F1
:101040008C819D818038910509F4E8C02C813D8117
:10105000213831056CF48C819D818037910509F42C
:10106000CDC02C813D812837310509F4C7C085C129
:101070008C819D818039910509F4D0C02C813D81FE
:101080002839310509F4EFC08C819D81883891059C
:1010900009F4E9C072C12C813D81283B310509F476
:1010A00027C18C819D81893B91056CF42C813D8108
:1010B000283A310509F4FFC08C819D81803B910560
:1010C00009F4F9C05AC12C813D81283C310509F44D
:1010D0003DC18C819D81883F910509F44EC12C81D1
:1010E0003D81203C310509F431C147C1EA81FB81D2
:1010F00021A58A819B81622F0E9486063EC1EA81DA
:10110000FB819189EA81FB8182899817B8F4EA8191
:10111000FB814189242F30E08A819B81820F931FBC
:10112000FC0131962081842F8F5FEA81FB81818BC6
:101130008A819B81622F0E9486061FC18A819B81C2
:101140000E945906EA81FB81108217C1EA81FB8166
:1011500053A1252F30E0E3E7F0E040818A819B81B5
:10116000820F931FFC0173964083852F8F5FEA8166
:10117000FB8183A380914608909147080E945906FD
:10118000EA81FB811082F9C0A4E7B0E0E4E7F0E077
:1011900080818F7080688C93EA81FB811082EDC022
:1011A000EA81FB8153A1252F30E0E3E7F0E04081A5
:1011B0008A819B81820F931FFC0173964083852F48
:1011C0008F5FEA81FB8183A3EA81FB8183A1282FC2
:1011D00030E0EA81FB8184A1882F90E001972817F5
:1011E000390734F48A819B8161E00E94A106C5C061
:1011F0008A819B8160E00E94A106BFC0EA81FB81D9
:1012000085E08083EA81FB8113A2A4E7B0E0E4E7F4
:10121000F0E080818F70806C8C93AFC0EA81FB819D
:1012200053A1252F30E0E3E7F0E040818A819B81E4
:10123000820F931FFC0173964083852F8F5FEA8195
:10124000FB8183A3EA81FB8183A1803130F48A8111
:101250009B8161E00E94A10690C08A819B8160E031
:101260000E94A1068AC08A819B8160E00E94A1063B
:1012700084C0A4E7B0E0E4E7F0E080818F70806C88
:101280008C93EA81FB8185A196A1009781F0EA8188
:10129000FB81A5A1B6A1EA81FB8143A18A819B8143
:1012A0009C012D5E3F4F842FB901FD010995EA8114
:1012B000FB81108262C0EA81FB8184E08083EA8145
:1012C000FB8187A190A5009781F0EA81FB8107A0AF
:1012D000F0A5E02D8A819B819C012F5F3F4F80E12B
:1012E000B9010995EA81FB81828BEA81FB81118A30
:1012F000A3E7B0E0EA81FB814189242F30E08A81B5
:101300009B81820F931FFC01319680818C93842FE7
:101310008F5FEA81FB81818BEA81FB819189EA8180
:10132000FB818289981748F4A4E7B0E0E4E7F0E095
:1013300080818F70806C8C9320C0A4E7B0E0E4E7DC
:10134000F0E080818F7080688C9317C0A4E7B0E0D4
:10135000E4E7F0E080818F70806C8C93EA81FB8100
:1013600010820BC0A4E7B0E0E4E7F0E080818F706A
:10137000806D8C93EA81FB8110820F900F900F900B
:101380000F900F90CF91DF9108951F920F920FB69B
:101390000F9200905B000F9211242F933F934F9375
:1013A0005F936F937F938F939F93AF93BF93EF93CD
:1013B000FF93DF93CF93CDB7DEB78091460890912E
:1013C00047080E949607CF91DF91FF91EF91BF915F
:1013D000AF919F918F917F916F915F914F913F91CD
:1013E0002F910F9000925B000F900FBE0F901F90F7
:1013F0001895DF93CF9300D0CDB7DEB79A8389835A
:10140000E981FA8180810F900F90CF91DF9108954B
:10141000DF93CF93CDB7DEB7F89481E0CF91DF9122
:101420000895DF93CF9300D0CDB7DEB79A83898339
:10143000EFE5F0E0A981BA818C9180830F900F9045
:10144000CF91DF910895DF93CF9300D000D0CDB737
:10145000DEB79A838983E981FA818281282F30E07F
:101460003C832B838B819C81009731F02B813C81C5
:101470002130310561F155C0A5E9B0E0E5E9F0E0C2
:10148000808182608C93A5E9B0E0E5E9F0E080819D
:1014900084608C93A5E9B0E0E5E9F0E080818B7F82
:1014A0008C93A5E9B0E0E5E9F0E08081877F8C933B
:1014B000A5E9B0E0E5E9F0E080818F7E8C93A5E9B5
:1014C000B0E0E5E9F0E080818F7D8C932AC0ADE942
:1014D000B0E0EDE9F0E0808182608C93ADE9B0E0AE
:1014E000EDE9F0E0808184608C93ADE9B0E0EDE956
:1014F000F0E080818B7F8C93ADE9B0E0EDE9F0E026
:101500008081877F8C93ADE9B0E0EDE9F0E08081E8
:101510008F7E8C93ADE9B0E0EDE9F0E080818F7DC6
:101520008C930F900F900F900F90CF91DF910895B3
:10153000DF93CF93CDB7DEB7E0914E08F0914F081F
:10154000868D813039F4ABE3B0E0EBE3F0E08081ED
:101550008B7F8C93CF91DF9108951F920F920FB6DE
:101560000F9200905B000F9211248F93AF93BF9363
:10157000EF93FF93DF93CF93CDB7DEB7E0914E08A3
:10158000F0914F08868D813039F4ABE3B0E0EBE3A6
:10159000F0E080818B7F8C93CF91DF91FF91EF9171
:1015A000BF91AF918F910F9000925B000F900FBE93
:1015B0000F901F9018951F920F920FB60F920090E8
:1015C0005B000F9211248F93AF93BF93EF93FF9320
:1015D000DF93CF93CDB7DEB7E0915008F09151087B
:1015E000868D813039F4ABE3B0E0EBE3F0E080814D
:1015F0008B7F8C93CF91DF91FF91EF91BF91AF9152
:101600008F910F9000925B000F900FBE0F901F9074
:101610001895DF93CF9300D0CDB7DEB79A83898337
:10162000E981FA8115821482E981FA81118210829E
:10163000E981FA8113821282E981FA81118610868A
:10164000E981FA81178216820F900F90CF91DF9176
:101650000895DF93CF9300D000D0CDB7DEB79C8341
:101660008B83EFE5F0E080818A830E94080A8983FA
:101670000DC0EB81FC8113821282EB81FC8111820F
:101680001082EB81FC81178216821982898188235E
:1016900081F7CE0102960E94110A0F900F900F90D1
:1016A0000F90CF91DF910895DF93CF9300D0CDB706
:1016B000DEB79A83898389819A8109960E94290BD2
:1016C0000F900F90CF91DF910895DF93CF9300D0CB
:1016D000CDB7DEB79A838983E981FA812481358188
:1016E000E981FA8186819781A901481B590BCA01BA
:1016F0000F900F90CF91DF910895DF93CF9300D09B
:10170000CDB7DEB79A83898389819A8143960E94F7
:10171000650B0F900F90CF91DF910895DF93CF93DA
:10172000CDB7DEB72E970FB6F894DEBF0FBECDBF94
:101730009A8789877C876B875E874D878B859C8599
:101740009D838C831B821A82EFE5F0E0808188877D
:101750000E94080A89834CC0E985FA852085318575
:10176000E985FA8580819181820F931F9F838E8303
:101770008E819F812C813D81B90141E050E00E9422
:10178000F0AB8C819D8101969D838C83E985FA85E0
:10179000808191810196E985FA8524813581B9019D
:1017A0000E94CBA9E985FA85918380838A819B81F8
:1017B00001969B838A83E985FA85868197810196C4
:1017C000E985FA85978386832A813B818D859E856D
:1017D0002817390760F4E985FA8526813781E9857C
:1017E000FA85848195812817390708F4B5CF1982C5
:1017F0008981882349F7CE0108960E94110A8A81BF
:101800009B812E960FB6F894DEBF0FBECDBFCF9151
:10181000DF9108951F920F920FB60F9200905B0018
:101820000F9211242F933F934F935F936F937F9366
:101830008F939F93AF93BF93EF93FF93DF93CF93D8
:101840000F92CDB7DEB7ECE9F0E08081898380911B
:1018500050089091510809969E012F5F3F4FB901A2
:1018600041E050E00E948E0B0F90CF91DF91FF91ED
:10187000EF91BF91AF919F918F917F916F915F9108
:101880004F913F912F910F9000925B000F900FBEF0
:101890000F901F9018951F920F920FB60F92009005
:1018A0005B000F9211242F933F934F935F936F939D
:1018B0007F938F939F93AF93BF93EF93FF93DF93A8
:1018C000CF930F92CDB7DEB7ECE2F0E08081898351
:1018D00080914E0890914F0809969E012F5F3F4FCF
:1018E000B90141E050E00E948E0B0F90CF91DF9143
:1018F000FF91EF91BF91AF919F918F917F916F91E8
:101900005F914F913F912F910F9000925B000F904C
:101910000FBE0F901F901895DF93CF930F92CDB706
:10192000DEB7ECE2F0E08081898380914E089091EF
:101930004F0809969E012F5F3F4FB90141E050E0EB
:101940000E948E0B0F90CF91DF910895DF93CF937C
:10195000CDB7DEB72C970FB6F894DEBF0FBECDBF64
:101960009C838B837E836D8358874F838F8198857B
:10197000009721F08D819E81009719F41C861B86AB
:1019800030C08B819C8143962D813E814F8158854B
:10199000B9010E948E0B9A838983EB81FC8182813D
:1019A000282F30E03A87298789859A85009731F07A
:1019B00029853A852130310549F00FC0AAE2B0E00F
:1019C000EAE2F0E0808180628C9307C0AAE9B0E08F
:1019D000EAE9F0E0808180628C9389819A819C871A
:1019E0008B878B859C852C960FB6F894DEBF0FBE37
:1019F000CDBFCF91DF910895DF93CF93CDB7DEB701
:101A000029970FB6F894DEBF0FBECDBF9E838D839E
:101A100078876F838F819885009721F10AC08D8127
:101A20009E819E012C5F3F4FB90141E050E00E9432
:101A3000A60C8F8198859B838A838F8198850196D8
:101A400098878F83EA81FB818491898389818C8344
:101A50008C8189878985882311F081E08987898530
:101A60008823E9F629960FB6F894DEBF0FBECDBFE6
:101A7000CF91DF910895DF93CF93CDB7DEB72E9747
:101A80000FB6F894DEBF0FBECDBF98878F837A87DD
:101A900069875C874B878B859C85009721F08985BA
:101AA0009A85009721F51E861D8629C089859A850D
:101AB0009B838A8389859A8501969A878987EA819B
:101AC000FB818491898389818E838F819885439658
:101AD0009E012A5F3F4FB90141E050E00E948E0B0A
:101AE0009D838C838B859C8501979C878B878B85B9
:101AF0009C850097D9F68C819D819E878D878D85E9
:101B00009E852E960FB6F894DEBF0FBECDBFCF9147
:101B1000DF910895DF93CF93CDB7DEB72E970FB641
:101B2000F894DEBF0FBECDBF9A8789877C876B870D
:101B30005E874D878B859C859F838E831B821A824F
:101B40008D859E85009731F4E985FA85848195819C
:101B50009E878D87EFE5F0E0808188870E94080AE4
:101B6000898347C0E985FA8520853185E985FA852D
:101B700082819381820F931F9D838C838E819F81AD
:101B80002C813D81B90141E050E00E94F0AB8E8193
:101B90009F8101969F838E83E985FA858281938157
:101BA0000196E985FA8524813581B9010E94CBA986
:101BB000E985FA85938382838A819B8101969B8341
:101BC0008A83E985FA85868197810197E985FA8577
:101BD000978386832A813B818D859E8528173907C7
:101BE00038F4E985FA8586819781009709F0BACFA4
:101BF00019828981882371F7CE0108960E94110A03
:101C00008A819B812E960FB6F894DEBF0FBECDBFA2
:101C1000CF91DF9108951F920F920FB60F9200900F
:101C20005B000F9211242F933F934F935F936F9319
:101C30007F938F939F93AF93BF93EF93FF93DF9324
:101C4000CF9300D0CDB7DEB7E0915008F0915108A6
:101C5000868D813039F4ABE3B0E0EBE3F0E08081D6
:101C600084608C93809150089091510843969E0116
:101C70002E5F3F4FB90141E050E00E948A0D8983F9
:101C80008981882329F0ECE9F0E08A81808307C00C
:101C9000AAE9B0E0EAE9F0E080818F7D8C930F90B3
:101CA0000F90CF91DF91FF91EF91BF91AF919F91F5
:101CB0008F917F916F915F914F913F912F910F90F5
:101CC00000925B000F900FBE0F901F9018951F920F
:101CD0000F920FB60F9200905B000F9211242F937A
:101CE0003F934F935F936F937F938F939F93AF93A4
:101CF000BF93EF93FF93DF93CF9300D0CDB7DEB7C1
:101D0000E0914E08F0914F08868D813039F4ABE3B5
:101D1000B0E0EBE3F0E0808184608C9380914E082A
:101D200090914F0843969E012E5F3F4FB90141E0CD
:101D300050E00E948A0D89838981882329F0ECE292
:101D4000F0E08A81808307C0AAE2B0E0EAE2F0E036
:101D500080818F7D8C930F900F90CF91DF91FF91B9
:101D6000EF91BF91AF919F918F917F916F915F9113
:101D70004F913F912F910F9000925B000F900FBEFB
:101D80000F901F901895DF93CF9300D0CDB7DEB79B
:101D9000E0914E08F0914F08868D813039F4ABE325
:101DA000B0E0EBE3F0E0808184608C9380914E089A
:101DB00090914F0843969E012E5F3F4FB90141E03D
:101DC00050E00E948A0D89838981882329F0ECE202
:101DD000F0E08A81808307C0AAE2B0E0EAE2F0E0A6
:101DE00080818F7D8C930F900F90CF91DF9108951C
:101DF000DF93CF9300D000D000D0CDB7DEB79A8369
:101E000089837C836B835E834D8389819A81099664
:101E10002B813C814D815E81B9010E948A0D2696FD
:101E20000FB6F894DEBF0FBECDBFCF91DF910895FE
:101E3000DF93CF93CDB7DEB76F970FB6F894DEBFC1
:101E40000FBECDBF9C878B874D875E876F87788B52
:101E5000EB85FC858D859E85AF85B88980A391A390
:101E6000A2A3B3A38D859E85AF85B889880F991FDE
:101E7000AA1FBB1F880F991FAA1FBB1F880F991F7E
:101E8000AA1FBB1F880F991FAA1FBB1F8D879E8784
:101E9000AF87B88B2D853E854F85588960E072E10C
:101EA0008AE790E00E9414AA298B3A8B4B8B5C8BBB
:101EB0006D8B7E8B8F8B988F9E012D5F3F4F3C8F5C
:101EC0002B8FCE0141969E8F8D8F98E09F8FED8D49
:101ED000FE8D00802D8D3E8D2F5F3F4F3E8F2D8FCD
:101EE000EB8DFC8D00822B8D3C8D2F5F3F4F3C8F07
:101EF0002B8F3F8D31503F8F8F8D882341F78B8102
:101F00009C81AD81BE819A8389838D859E85AF85B5
:101F1000B889B695A795979587958D879E87AF8742
:101F2000B88B8F819885A985BA859C01AD018D8577
:101F30009E85AF85B889281739074A075B0728F4BB
:101F400089819A8101979A838983EB85FC858281B7
:101F5000E82FF0E0FA8FE98F298D3A8D21153105B0
:101F600031F0898D9A8D8130910569F017C0E0E9D3
:101F7000F0E089819A81892F99278083E9E2F0E056
:101F8000898180830BC0E8E9F0E089819A81892FFB
:101F900099278083E9E9F0E0898180836F960FB605
:101FA000F894DEBF0FBECDBFCF91DF910895DF93D0
:101FB000CF93CDB7DEB7C150D1400FB6F894DEBF96
:101FC0000FBECDBFCE01865F9E4F9A838983498124
:101FD0005A81CE010396C85FDE4F28813981C850EF
:101FE000D140B9010E94F4ACCE0103960E941BAC13
:101FF000AC01CA5FDE4F88819981C650D1409E01F5
:102000002D5F3F4FB9010E94A60CCF5FDE4F0FB688
:10201000F894DEBF0FBECDBFCF91DF910895DF935F
:10202000CF9300D000D0CDB7DEB79A8389837C836D
:102030006B838B819C810E941BACAC0189819A814E
:102040002B813C81B9010E94A60C0F900F900F903C
:102050000F90CF91DF910895DF93CF9300D000D000
:10206000CDB7DEB79A8389837C836B838B819C8118
:102070000E94DEAAE981FA8191878087E981FA814D
:1020800080859185009791F3E981FA818B819C810C
:10209000958384830F900F900F900F90CF91DF91D5
:1020A0000895CF92EF920F93DF93CF93CDB7DEB722
:1020B0002C970FB6F894DEBF0FBECDBF9A838983ED
:1020C0006B832C833D834E835F830887E986CA86B2
:1020D00089819A8109960E94090B89819A81439688
:1020E0000E94090BE981FA818B818283E981FA815F
:1020F0008C819D81AE81BF8180A391A3A2A3B3A354
:1021000089819A81AC01475F5F4F8985282F30E034
:10211000CA01B9010E942C1089819A81AC014D5EDF
:102120005F4F8885282F30E0CA01B9010E942C102A
:102130008A85E981FA81868FE981FA818281282F57
:1021400030E03C872B878B859C85009731F02B8571
:102150003C852130310561F015C0EAE2F0E088ED00
:10216000808389819A8190934F0880934E080AC09A
:10217000EAE9F0E088ED808389819A8190935108A3
:1021800080935008E981FA8120A131A142A153A195
:1021900089819A81BA01A9010E94180FE981FA8107
:1021A00011821082E981FA81158E8A85882371F067
:1021B000AAE3B0E0EAE3F0E0808184608C93ABE3D3
:1021C000B0E0EBE3F0E080818B7F8C932C960FB630
:1021D000F894DEBF0FBECDBFCF91DF910F91EF908E
:1021E000CF900895CF92EF920F93DF93CF93CDB717
:1021F000DEB72C970FB6F894DEBF0FBECDBF9A8323
:1022000089836B832C833D834E835F830887E986B4
:10221000CA8689819A8109960E94090B89819A81CF
:1022200043960E94090BE981FA818B818283E981BF
:10223000FA818C819D81AE81BF8180A391A3A2A3ED
:10224000B3A389819A81AC01475F5F4F8985282FAD
:1022500030E0CA01B9010E942C1089819A81AC0139
:102260004D5E5F4F8885282F30E0CA01B9010E947A
:102270002C108A85E981FA81868FE981FA81828131
:10228000282F30E03C872B878B859C85009731F089
:102290002B853C852130310561F015C0EAE2F0E084
:1022A00088ED808389819A8190934F0880934E08AE
:1022B0000AC0EAE9F0E088ED808389819A819093F1
:1022C000510880935008E981FA8120A131A142A1EF
:1022D00053A189819A81BA01A9010E94180FE9814D
:1022E000FA8111821082E981FA81158E8A8588230C
:1022F00071F0AAE3B0E0EAE3F0E0808184608C93BF
:10230000ABE3B0E0EBE3F0E080818B7F8C932C9625
:102310000FB6F894DEBF0FBECDBFCF91DF910F9106
:10232000EF90CF900895DF93CF93CDB7DEB7F894B9
:1023300081E0CF91DF910895DF93CF9300D0CDB7A7
:10234000DEB79A838983EFE5F0E0A981BA818C91A9
:1023500080830F900F90CF91DF910895DF93CF93FB
:1023600000D0CDB7DEB79A8389830F900F90CF91BD
:10237000DF910895DF93CF9300D0CDB7DEB79A8376
:1023800089830F900F90CF91DF910895DF93CF93C2
:10239000CDB7DEB72C970FB6F894DEBF0FBECDBF1A
:1023A0009E838D834F83588769877A8730C01A82CE
:1023B000198217C01C821B8205C08B819C810196EB
:1023C0009C838B838B819C811B86009711F481E019
:1023D0008B878B85882389F789819A8101969A83D7
:1023E000898389819A811C868330910510F481E06C
:1023F0008C878C858823F1F68F819885A985BA858D
:102400000197A109B1098F839887A987BA878F811E
:102410009885A985BA850097A105B10541F62C9646
:102420000FB6F894DEBF0FBECDBFCF91DF910895F8
:10243000DF93CF93CDB7DEB72B970FB6F894DEBFFF
:102440000FBECDBF98878F8388E790E09E838D83F2
:102450002AC01A82198217C01C821B8205C08B8178
:102460009C8101969C838B838B819C81198600972C
:1024700011F481E089878985882389F789819A8188
:1024800001969A83898389819A811A86833091057E
:1024900010F481E08A878A858823F1F68D819E81F8
:1024A00001979E838D838D819E811B86009711F0FD
:1024B00081E08B878B85882361F62B960FB6F89485
:1024C000DEBF0FBECDBFCF91DF910895DF93CF93D5
:1024D00000D00F92CDB7DEB79A8389836B83898151
:1024E0009A8148E750E060E070E00E94C611A8E3DE
:1024F000B0E0E8E3F0E080818F7E8C93A8E3B0E069
:10250000E8E3F0E080818F7D8C93A2E3B0E0E2E32A
:10251000F0E08081982F9F708B81807F892B8C9336
:10252000A8E3B0E0E8E3F0E0808180648C93A8E366
:10253000B0E0E8E3F0E080818F7B8C93A2E3B0E031
:10254000E2E3F0E08081282F2F708B81882F90E0CC
:1025500082959295907F9827807F9827822B8C93E5
:10256000A8E3B0E0E8E3F0E0808180648C93A8E326
:10257000B0E0E8E3F0E080818F7B8C930F900F90C8
:102580000F90CF91DF910895DF93CF9300D0CDB717
:10259000DEB79A83898389819A810E941812898182
:1025A0009A8161E00E9466120F900F90CF91DF91A7
:1025B0000895DF93CF9300D00F92CDB7DEB79A8303
:1025C00089836B8389819A8148E750E060E070E0FD
:1025D0000E94C611A8E3B0E0E8E3F0E080818061EA
:1025E0008C93A8E3B0E0E8E3F0E080818F7D8C93EA
:1025F000A2E3B0E0E2E3F0E08081982F9F708B814E
:10260000807F892B8C93A8E3B0E0E8E3F0E0808141
:1026100080648C93A8E3B0E0E8E3F0E080818F7BF6
:102620008C93A2E3B0E0E2E3F0E08081282F2F70EA
:102630008B81882F90E082959295907F9827807F5C
:102640009827822B8C93A8E3B0E0E8E3F0E0808148
:1026500080648C93A8E3B0E0E8E3F0E080818F7BB6
:102660008C930F900F900F90CF91DF910895DF938F
:10267000CF9300D000D000D0CDB7DEB79A83898346
:102680006B834C8389819A810E9418128C81282F38
:1026900030E03E832D838D819E8181309105F1F064
:1026A0002D813E81223031052CF48D819E81009751
:1026B00061F02EC02D813E8122303105C1F08D8127
:1026C0009E8183309105E1F023C08B81282F205813
:1026D00089819A81622F0E9466121AC08B81282FED
:1026E000205489819A81622F0E94661211C08B81C9
:1026F000282F2C5689819A81622F0E94661208C069
:102700008B81282F2C5289819A81622F0E94661218
:1027100026960FB6F894DEBF0FBECDBFCF91DF91E6
:102720000895DF93CF9300D000D000D0CDB7DEB7AF
:102730009B838A837D836C834E83198215C08A8133
:102740009B810E9418128981282F30E08C819D8105
:10275000FC01E20FF31F20818A819B81622F0E947E
:10276000D91289818F5F898399818E81981738F377
:102770008C819D8126960FB6F894DEBF0FBECDBF2B
:10278000CF91DF910895DF93CF9300D00F92CDB713
:10279000DEB79A8389836B8389819A810E9418129C
:1027A00089819A816B810E94D9120F900F900F90AE
:1027B000CF91DF910895DF93CF93CDB7DEB7C450AB
:1027C000D1400FB6F894DEBF0FBECDBFCE01805F03
:1027D0009E4F9B838A834A815B81CE010496C25FB0
:1027E000DE4F28813981CE50D140B9010E94F4AC2E
:1027F000FE01E35FFE4F8081882F90E08270907031
:10280000CC5FDE4F1882C450D140009731F081E098
:10281000CC5FDE4F8883C450D140CC5FDE4F8881CF
:10282000C450D140882341F0C75FDE4F8881998131
:10283000C950D1400E94C412FE01E35FFE4F808167
:10284000882F90E081709070882391F0C75FDE4FF1
:1028500088819981C950D140C55FDE4F6881CB50D6
:10286000D140C45FDE4F4881CC50D1400E94371325
:10287000CE0104960E941BAC8031910550F4CE012C
:1028800004960E941BACCD5FDE4F8883C350D140BD
:1028900006C080E1CD5FDE4F8883C350D140CD5F5D
:1028A000DE4F8881C350D1408983C75FDE4F888166
:1028B0009981C950D1409E012C5F3F4FB901498198
:1028C0000E949113CC5FDE4F0FB6F894DEBF0FBEAF
:1028D000CDBFCF91DF910895DF93CF93CDB7DEB712
:1028E00062970FB6F894DEBF0FBECDBF9A8B898B6F
:1028F000EFE5F0E08081888B0E9493118F87DFC025
:1029000080E090E0AAEFB3E48B879C87AD87BE8719
:102910006B857C858D859E8520E030E04AEF54E410
:102920000E94A8A4DC01CB018F839887A987BA876E
:102930006F81788589859A8520E030E040E85FE303
:102940000E94AEA688232CF481E090E09E838D83C4
:102950003FC06F81788589859A8520E03FEF4FE7FA
:1029600057E40E944EA618164CF56B857C858D8524
:102970009E8520E030E040E251E40E94A8A4DC0102
:10298000CB01BC01CD010E94D2A2DC01CB019E8310
:102990008D830FC088EC90E09C838B838B819C811E
:1029A0000197F1F79C838B838D819E8101979E8394
:1029B0008D838D819E81009769F714C06F81788522
:1029C00089859A850E94D2A2DC01CB019E838D83EA
:1029D0008D819E819A83898389819A810197F1F7FC
:1029E0009A83898389899A894CE652E060E070E095
:1029F0000E94C611A7E3B0E0E7E3F0E080818062C7
:102A00008C93A7E3B0E0E7E3F0E0808180618C93F2
:102A1000A7E3B0E0E7E3F0E0808180648C93A1E37A
:102A2000B0E0E1E3F0E08081806F8C93A8E3B0E058
:102A3000E8E3F0E080818F7B8C93A8E3B0E0E8E3EB
:102A4000F0E080818F7E8C93A8E3B0E0E8E3F0E0D3
:102A500080818F7D8C9389899A894CE652E060E071
:102A600070E00E94C61189899A8968E20E94661204
:102A700089899A896CE10E94661289899A896CE039
:102A80000E94661289899A8961E00E94661289898A
:102A90009A8962E00E94661289899A8948E150E128
:102AA00060E070E00E94C61189899A890E94C41270
:102AB00089899A8960E040E00E9437131F868F85DC
:102AC000882309F01DCFCE0140960E949C1162968A
:102AD0000FB6F894DEBF0FBECDBFCF91DF91089542
:102AE000DF93CF9300D0CDB7DEB79A838983E98196
:102AF000FA811082E981FA81148213820F900F907B
:102B0000CF91DF910895DF93CF9300D0CDB7DEB79B
:102B10009A838983E981FA811082E981FA8114829A
:102B200013820F900F90CF91DF910895DF93CF9391
:102B300000D000D0CDB7DEB79A8389837C836B83C6
:102B400089819A818130910551F48B819C812FEF8D
:102B50008F3F920721F48DE798E00E9470150F9047
:102B60000F900F900F90CF91DF910895DF93CF9347
:102B7000CDB7DEB781E090E06FEF7FEF0E94961552
:102B8000CF91DF910895EF92FF920F931F93DF9300
:102B9000CF9300D000D000D0CDB7DEB79A83898321
:102BA0007C836B835E834D83ED81FE818081082F62
:102BB00010E0ED81FE818181E82EFF24ED81FE8110
:102BC0008281282F30E0ED81FE818381482F50E003
:102BD000ED81FE818481682F70E0ED81FE81858129
:102BE000A82FB0E08DB79EB742970FB6F8949EBF5E
:102BF0000FBE8DBFEDB7FEB731968B819C8191835F
:102C0000808380E190E09383828380E091E09583EC
:102C1000848317830683F186E0863387228755876E
:102C2000448777876687B18BA08B0E9485AC8DB770
:102C30009EB742960FB6F8949EBF0FBE8DBF2696E4
:102C40000FB6F894DEBF0FBECDBFCF91DF911F91BD
:102C50000F91FF90EF900895DF93CF9300D000D0B5
:102C600000D0CDB7DEB79A8389837C836B835E8384
:102C70004D83ED81FE818081282F30E0ED81FE8142
:102C80008181482F50E0ED81FE818281682F70E0C4
:102C9000ED81FE818381A82FB0E08DB79EB70E979E
:102CA0000FB6F8949EBF0FBE8DBFEDB7FEB731963D
:102CB0008B819C819183808380E190E093838283E8
:102CC0008EE191E095838483378326835187408703
:102CD00073876287B587A4870E9485AC8DB79EB73E
:102CE0000E960FB6F8949EBF0FBE8DBF26960FB6F8
:102CF000F894DEBF0FBECDBFCF91DF9108950F9343
:102D00001F93DF93CF93CDB7DEB7A3970FB6F89499
:102D1000DEBF0FBECDBF9E8F8D8FCE01029698A3D2
:102D20008F8FEAE2F1E0FAA3E9A3FBE1FBA3E9A1BB
:102D3000FAA1008089A19AA101969AA389A3EF8D97
:102D4000F8A100828F8D98A1019698A38F8F9BA1E7
:102D500091509BA3EBA1EE2351F719829BC089816F
:102D6000882F90E0FC01EC57F74F8081813108F407
:102D700077C060915608709157088981882F90E03C
:102D8000FC01EC57F74F20818981882F90E0FC01EE
:102D9000EE57F74F8081A22FA81B8981482F50E062
:102DA0008981882F90E0FC01EE57F74F8081282F12
:102DB00030E0CA0182959295907F9827807F98276E
:102DC000820F931FFC01E85AF74FCB016A2F40E0B6
:102DD00029818F010E944701409156085091570860
:102DE0008981882F90E0FC01EE57F74F308189816F
:102DF000882F90E0FC01EC57F74F20818981882FC4
:102E000090E0FC01EE57F74F8081281BFE013296BF
:102E1000CA01632F422F29818F010E9447018981B6
:102E2000082F10E08981882F90E0FC01EE57F74FC2
:102E30008081882F90E0AC014F5F5F4F8981882FA0
:102E400090E0FC01EC57F74F8081282F30E0CA0159
:102E5000B9010E94DFA9F801EE57F74F808317C030
:102E600020915608309157088981882F90E08295EB
:102E70009295907F9827807F9827FC01E85AF74F1A
:102E8000C90160E140E029818F010E9447018981E9
:102E90008F5F89838981823008F461CF8DE798E064
:102EA0000E948315A3960FB6F894DEBF0FBECDBF68
:102EB000CF91DF911F910F910895DF93CF9300D0B1
:102EC00000D000D0CDB7DEB79B838A8388E598E039
:102ED0000E941BAC809384081092820888E698E0D8
:102EE0000E941BAC8093850810928308198222C02F
:102EF0008981282F30E03E832D838981882F90E0BF
:102F0000FC01E85AF74F8081882349F08981882F96
:102F100090E0FC01E85AF74F30813C8302C080E228
:102F20008C83ED81FE81E85AF74F2C8120838981C3
:102F30008F5F898389818032D8F226960FB6F89404
:102F4000DEBF0FBECDBFCF91DF910895DF93CF934A
:102F5000CDB7DEB7F89481E0CF91DF910895DF938C
:102F6000CF9300D0CDB7DEB79A838983EFE5F0E049
:102F7000A981BA818C9180830F900F90CF91DF91BE
:102F80000895DF93CF9300D0CDB7DEB79A838983BE
:102F90000F900F90CF91DF910895DF93CF93CDB72E
:102FA000DEB729970FB6F894DEBF0FBECDBF9E8364
:102FB0008D8378876F838F819885009761F112C028
:102FC000ED81FE8180819181FC0132960190F0813A
:102FD000E02D8D819E819E012C5F3F4FB90141E024
:102FE00050E009958F8198859B838A838F8198858E
:102FF000019698878F83EA81FB81849189838981F7
:103000008C838C8189878985882311F081E0898769
:1030100089858823A9F629960FB6F894DEBF0FBEDE
:10302000CDBFCF91DF910895DF93CF9300D000D033
:1030300000D0CDB7DEB79A8389834B835C836D83E1
:103040007E83E981FA818B819C81AD81BE818387FA
:103050009487A587B68726960FB6F894DEBF0FBE75
:10306000CDBFCF91DF910895DF93CF9300D000D0F3
:10307000CDB7DEB79C838B83EFE5F0E080818A8358
:103080000E94A61789830DC0EB81FC8113821282F6
:10309000EB81FC8111821082EB81FC811782168208
:1030A00019828981882381F7CE0102960E94AF1789
:1030B0000F900F900F900F90CF91DF910895DF93B5
:1030C000CF9300D0CDB7DEB79A83898389819A8167
:1030D0000F960E94290B0F900F90CF91DF910895CA
:1030E000DF93CF9300D0CDB7DEB79A838983E98190
:1030F000FA8115821482E981FA8111821082E981B4
:10310000FA8113821282E981FA8111861086E9819F
:10311000FA81178216820F900F90CF91DF91089558
:10312000DF93CF9300D0CDB7DEB79A838983E9814F
:10313000FA8181E591E09183808389819A810F965C
:103140000E94090B89819A8149960E94090B0F9070
:103150000F90CF91DF910895DF93CF9300D0CDB73B
:10316000DEB79A838983E981FA8181E591E09183D1
:10317000808389819A810F960E94090B89819A81A7
:1031800049960E94090B0F900F90CF91DF910895FF
:10319000DF93CF9300D0CDB7DEB79A838983E981DF
:1031A000FA8124813581E981FA8186819781A9019B
:1031B000481B590BCA010F900F90CF91DF910895D2
:1031C000DF93CF9300D0CDB7DEB79A83898389810F
:1031D0009A8149960E94650B0F900F90CF91DF91D5
:1031E0000895DF93CF9300D0CDB7DEB79A8389835C
:1031F000E981FA81868197810F900F90CF91DF91BD
:103200000895DF93CF9300D0CDB7DEB79A8389833B
:1032100089819A810F960E94F1180F900F90CF919B
:10322000DF910895DF93CF93CDB7DEB72E970FB61A
:10323000F894DEBF0FBECDBF9A8789877C876B87E6
:103240005E874D878B859C859D838C831B821A822C
:10325000EFE5F0E0808188870E94A61789834CC043
:10326000E985FA8520853185E985FA858081918116
:10327000820F931F9F838E838E819F812C813D813E
:10328000B90141E050E00E94F0AB8C819D81019634
:103290009D838C83E985FA85808191810196E985FA
:1032A000FA8524813581B9010E94CBA9E985FA8587
:1032B000918380838A819B8101969B838A83E985A0
:1032C000FA85868197810196E985FA8597838683B9
:1032D0002A813B818D859E852817390760F4E98511
:1032E000FA8526813781E985FA85848195812817B9
:1032F000390708F4B5CF19828981882349F7CE01AF
:1033000008960E94AF178A819B812E960FB6F8947B
:10331000DEBF0FBECDBFCF91DF910895DF93CF9376
:10332000CDB7DEB72E970FB6F894DEBF0FBECDBF78
:1033300098878F837A8769875C874B878B859C8585
:10334000009721F089859A85009721F51E861D86B4
:1033500029C089859A859B838A8389859A85019668
:103360009A878987EA81FB818491898389818E8309
:103370008F81988549969E012A5F3F4FB90141E0B0
:1033800050E00E948E0B9D838C838B859C850197DA
:103390009C878B878B859C850097D9F68C819D8136
:1033A0009E878D878D859E852E960FB6F894DEBFFD
:1033B0000FBECDBFCF91DF910895DF93CF93CDB7EF
:1033C000DEB72E970FB6F894DEBF0FBECDBF9A873B
:1033D00089877C876B875E874D878B859C859F83DC
:1033E0008E831B821A828D859E85009731F4E98534
:1033F000FA85848195819E878D87EFE5F0E0808155
:1034000088870E94A617898347C0E985FA852085A9
:103410003185E985FA8582819381820F931F9D838F
:103420008C838E819F812C813D81B90141E050E0E8
:103430000E94F0AB8E819F8101969F838E83E985E8
:10344000FA85828193810196E985FA852481358107
:10345000B9010E94CBA9E985FA85938382838A8189
:103460009B8101969B838A83E985FA858681978172
:103470000197E985FA85978386832A813B818D852B
:103480009E852817390738F4E985FA858681978162
:10349000009709F0BACF19828981882371F7CE018C
:1034A00008960E94AF178A819B812E960FB6F894DA
:1034B000DEBF0FBECDBFCF91DF910895DF93CF93D5
:1034C00000D000D0CDB7DEB79A8389837C836B832D
:1034D00089819A810F962B813C81B90140E050E0AF
:1034E0000E948A0D0F900F900F900F90CF91DF9157
:1034F0000895DF93CF9300D000D000D0CDB7DEB7D2
:103500009A8389837C836B835E834D8389819A81CF
:103510000F962B813C814D815E81B9010E948A0DFD
:1035200026960FB6F894DEBF0FBECDBFCF91DF91C8
:1035300008950F931F93DF93CF9300D000D0CDB7A2
:10354000DEB79A8389837C836B83E981FA818081EA
:103550009181FC013296008111818B819C810E94B6
:103560001BACAC0189819A812B813C81B901F801A6
:1035700009950F900F900F900F90CF91DF911F91B1
:103580000F9108950F931F93DF93CF93CDB7DEB7BD
:10359000C150D1400FB6F894DEBF0FBECDBFCE01F3
:1035A000845F9E4F9A83898349815A81CE01039615
:1035B000C65FDE4F28813981CA50D140B9010E94CF
:1035C000F4ACC85FDE4FE881F981C850D1408081FA
:1035D0009181FC01329600811181CE0103960E94F7
:1035E0001BACAC01C85FDE4F88819981C850D140C7
:1035F0009E012D5F3F4FB901F8010995CF5FDE4F66
:103600000FB6F894DEBF0FBECDBFCF91DF911F91F3
:103610000F910895DF93CF9300D000D0CDB7DEB7E0
:103620009A8389837C836B838B819C810E94DEAA31
:10363000E981FA8191878087E981FA818085918586
:10364000009791F3E981FA818B819C819583848332
:103650000F900F900F900F90CF91DF910895DF930F
:10366000CF9300D000D0CDB7DEB79A8389837C8317
:103670006B8389819A810F962B813C81B9010E94CD
:103680002C1089819A8149962B813C81B9010E9435
:103690002C100F900F900F900F90CF91DF91089505
:1036A000DF93CF93CDB7DEB7F89481E0CF91DF9170
:1036B0000895DF93CF9300D0CDB7DEB79A83898387
:1036C000EFE5F0E0A981BA818C9180830F900F9093
:1036D000CF91DF910895DF93CF9300D0CDB7DEB7C0
:1036E0009A838983E981FA811082E981FA811482BF
:1036F00013820F900F90CF91DF910895DF93CF93B6
:1037000000D000D0CDB7DEB79A8389837C836B83EA
:10371000E981FA818B819C81928381830F900F9044
:103720000F900F90CF91DF910895DF93CF9300D04A
:103730000F92CDB7DEB79B838A83EA81FB818081BC
:103740008983EA81FB81108289810F900F900F900D
:10375000CF91DF910895DF93CF9300D0CDB7DEB73F
:103760009A838983E981FA81128681E00F900F9014
:10377000CF91DF910895DF93CF9300D0CDB7DEB71F
:103780009A838983E981FA8113A614A615A616A641
:10379000E981FA8181E080AF0F900F90CF91DF91A6
:1037A0000895DF93CF9300D0CDB7DEB79A83898396
:1037B000E981FA81868197810F900F90CF91DF91F7
:1037C0000895DF93CF9300D0CDB7DEB79A83898376
:1037D000E981FA8124813581E981FA8186819781A5
:1037E000A901481B590BCA010F900F90CF91DF918F
:1037F0000895DF93CF9300D00F92CDB7DEB79A83B1
:103800008983E981FA81868197811B82009711F46F
:1038100081E08B838B810F900F900F90CF91DF9180
:103820000895DF93CF93CDB7DEB72E970FB6F894F8
:10383000DEBF0FBECDBF9A8789877C876B875E8787
:103840004D878B859C859D838C831B821A82EFE537
:10385000F0E0808188870E94501B89834CC0E985F5
:10386000FA8520853185E985FA8580819181820FED
:10387000931F9F838E838E819F812C813D81B9010F
:1038800041E050E00E94F0AB8C819D8101969D83C8
:103890008C83E985FA85808191810196E985FA8595
:1038A00024813581B9010E94CBA9E985FA859183EC
:1038B00080838A819B8101969B838A83E985FA852F
:1038C000868197810196E985FA85978386832A8187
:1038D0003B818D859E852817390760F4E985FA8537
:1038E00026813781E985FA858481958128173907F2
:1038F00008F4B5CF19828981882349F7CE0108964B
:103900000E94591B8A819B812E960FB6F894DEBFC8
:103910000FBECDBFCF91DF910895DF93CF93CDB789
:10392000DEB72A970FB6F894DEBF0FBECDBF9C83DB
:103930008B837E836D8358874F838F819885009713
:1039400021F08D819E81009719F41A86198610C086
:103950008B819C8149962D813E814F815885B9018B
:103960000E948E0B9A83898389819A819A8789879D
:1039700089859A852A960FB6F894DEBF0FBECDBF13
:10398000CF91DF910895DF93CF93CDB7DEB72E9718
:103990000FB6F894DEBF0FBECDBF9A8789877C87AC
:1039A0006B875E874D878B859C859F838E831B826B
:1039B0001A828D859E85009731F4E985FA85848188
:1039C00095819E878D87EFE5F0E0808188870E9452
:1039D000501B898347C0E985FA8520853185E985B3
:1039E000FA8582819381820F931F9D838C838E81C0
:1039F0009F812C813D81B90141E050E00E94F0ABF4
:103A00008E819F8101969F838E83E985FA858281CD
:103A100093810196E985FA8524813581B9010E9457
:103A2000CBA9E985FA85938382838A819B8101965C
:103A30009B838A83E985FA85868197810197E98549
:103A4000FA85978386832A813B818D859E852817F9
:103A5000390738F4E985FA8586819781009709F05E
:103A6000BACF19828981882371F7CE0108960E9406
:103A7000591B8A819B812E960FB6F894DEBF0FBE2C
:103A8000CDBFCF91DF910895DF93CF93CDB7DEB750
:103A900068970FB6F894DEBF0FBECDBF9F838E83AD
:103AA000EE81FF8183A10E941E778983EE81FF81D1
:103AB00084A195A12DE1833F920749F0EE81FF811A
:103AC00084A195A1EE81FF8195A384A3F7CF89817D
:103AD000482F50E0588B4F878F8598898331910507
:103AE00009F45FC1AF85B889A431B1053CF42F85D5
:103AF00038892115310509F436C164C14F855889CB
:103B00004731510539F08F8598898C31910509F439
:103B10001FC158C18E819F8149960E94F1189C0156
:103B2000EE81FF8186A997A92817390740F48E8175
:103B30009F8149960E94F1189E878D8706C0EE816D
:103B4000FF81A6A9B7A9BE87AD872D853E85C9018E
:103B5000A0E0B0E08A839B83AC83BD838A819B8194
:103B6000AC81BD810097A105B10549F18E819F818E
:103B70004996EE81FF8124A935A94A815B81B9016B
:103B80000E948A0DEE81FF81A3A1EE81FF8164A9CD
:103B900075A9EE81FF8186A997A99C0140E050E0BC
:103BA0008A2F0E94E75CDC01CB018A839B83AC8374
:103BB000BD83EE81FF8113A614A615A616A6EE817D
:103BC000FF8183A10E94E17BDC01CB018A839B837F
:103BD000AC83BD831C868A819B81AC81BD810097AB
:103BE000A105B10511F031E03C874C85442309F46F
:103BF0007DC08E819F810F960E94650B9C0140E0E5
:103C000050E08A819B81AC81BD8182179307A40714
:103C1000B50768F08E819F810F960E94650B9C010D
:103C200040E050E0288739874A875B8708C08A814F
:103C30009B81AC81BD8188879987AA87BB872885AE
:103C400039854A855B852A833B834C835D83EE817E
:103C5000FF8186A997A9CC01A0E0B0E02A813B8131
:103C60004C815D812D8B3E8B4F8B588F898B9A8B2E
:103C7000AB8BBC8B89899A89AB89BC892D893E899C
:103C80004F89588D281739074A075B0740F48D89FB
:103C90009E89AF89B88D898B9A8BAB8BBC8B298918
:103CA0003A894B895C892A833B834C835D83EE810F
:103CB000FF8183A1EE81FF8164A975A92A813B81DF
:103CC0004C815D810E94BA5D8E819F810F96EE814D
:103CD000FF8124A935A94A815B81B9010E948E0B1D
:103CE000EE81FF8113A614A615A616A6EE81FF810C
:103CF00080AD8823A9F0EE81FF8183A594A5A5A5B9
:103D0000B6A586309105A105B10550F0EE81FF8181
:103D100083A10E94C95CEE81FF8183A10E948C5B1C
:103D20008E819F818F960E94951B882309F44AC03B
:103D3000EE81FF8183A594A5A5A5B6A50196A11D39
:103D4000B11DEE81FF8183A794A7A5A7B6A73AC0AE
:103D5000EE81FF8183A10E94C95CEE81FF8183A176
:103D60000E948C5B2FC08E819F8149960E94F91B17
:103D7000982F81E08927882329F1EE81FF8113A6FE
:103D800014A615A616A6EE81FF8183A1EE81FF8100
:103D900024A135A161E0A90120E030E00E94B85AD9
:103DA00011C0EE81FF8163A18E819F81AC01495DCD
:103DB0005F4FEE81FF8124A135A1862FBA01A901B1
:103DC0000E94D35B68960FB6F894DEBF0FBECDBFDE
:103DD000CF91DF910895DF93CF9300D000D0CDB77E
:103DE000DEB79A8389837C836B838B819C810E945D
:103DF000DEAAE981FA8191878087E981FA8180854D
:103E00009185009791F3E981FA818B819C8195835B
:103E100084830F900F900F900F90CF91DF910895B2
:103E2000CF92DF92EF92FF920F931F93DF93CF9386
:103E3000CDB7DEB72E970FB6F894DEBF0FBECDBF5D
:103E40009A8389834B835C836D837E8338872F833A
:103E5000E986FA860B871C87DE86CD8689819A8162
:103E60000E94AC18E981FA818DE591E0918380830D
:103E700089819A818F960E947015E981FA81128654
:103E80008B81E981FA8183A3E981FA818F81988509
:103E900095A384A3E981FA8181E08287E981FA818F
:103EA0008D859E8597AB86AB8D859E85009709F1A4
:103EB00089819A810F962D853E85B9010E942C102B
:103EC00089819A8149962D853E85B9010E942C10E1
:103ED0008D859E850E94DEAAE981FA8195AB84AB2F
:103EE000E981FA8184A995A9009719F4E981FA81F9
:103EF0001286E981FA8113821282E981FA811186A0
:103F0000E981FA8181E086A3E981FA8189859A8530
:103F1000AB85BC8587A390A7A1A7B2A78B810E9480
:103F2000C95C8B810E948C5B89819A818F966EE13E
:103F300070E00E947E1B89819A819C01215D3F4F28
:103F40008FEE9AE0B9010E94BB59E981FA8110AE67
:103F50002E960FB6F894DEBF0FBECDBFCF91DF9186
:103F60001F910F91FF90EF90DF90CF900895CF9227
:103F7000DF92EF92FF920F931F93DF93CF93CDB712
:103F8000DEB72E970FB6F894DEBF0FBECDBF9A8373
:103F900089834B835C836D837E8338872F83E98697
:103FA000FA860B871C87DE86CD8689819A810E94DE
:103FB000AC18E981FA818DE591E091838083898154
:103FC0009A818F960E947015E981FA8112868B8101
:103FD000E981FA8183A3E981FA818F81988595A38C
:103FE00084A3E981FA8181E08287E981FA818D8564
:103FF0009E8597AB86AB8D859E85009709F189815B
:104000009A810F962D853E85B9010E942C108981D9
:104010009A8149962D853E85B9010E942C108D8587
:104020009E850E94DEAAE981FA8195AB84ABE98185
:10403000FA8184A995A9009719F4E981FA81128679
:10404000E981FA8113821282E981FA811186E9817C
:10405000FA8181E086A3E981FA8189859A85AB8519
:10406000BC8587A390A7A1A7B2A78B810E94C95C3A
:104070008B810E948C5B89819A818F966EE170E0C2
:104080000E947E1B89819A819C01215D3F4F8FEEAA
:104090009AE0B9010E94BB59E981FA8110AE2E96CF
:1040A0000FB6F894DEBF0FBECDBFCF91DF911F9149
:1040B0000F91FF90EF90DF90CF900895DF93CF9313
:1040C00000D00F92CDB7DEB79A8389836B83E981E5
:1040D000FA818281882F90E0FC018B818083E981C5
:1040E000FA818581882F90E0DC01E981FA81858160
:1040F000882F90E0FC0180818E7F8C93E981FA818A
:104100008581882F90E0DC01E981FA818581882F03
:1041100090E0FC01808182608C93E981FA81868144
:10412000882F90E0DC01E981FA818681882F90E078
:10413000FC018081877F8C930F900F900F90CF911F
:10414000DF910895DF93CF9300D000D00F92CDB7C9
:10415000DEB79A8389836B838B81282F30E03D8380
:104160002C838C819D8181309105C9F02C813D810A
:104170002230310521F18C819D81009779F5E9810B
:10418000FA818085882F90E0DC01E981FA818085C1
:10419000882F90E0FC0180818E7F8C931FC0E98185
:1041A000FA818085882F90E0DC01E981FA818085A1
:1041B000882F90E0FC0180818D7F8C930FC0E98176
:1041C000FA818085882F90E0DC01E981FA81808581
:1041D000882F90E0FC0180818D7F8C930F900F9051
:1041E0000F900F900F90CF91DF910895DF93CF93B1
:1041F00000D000D00F92CDB7DEB79A8389836B834E
:104200008B81282F30E03D832C838C819D818130F0
:104210009105C9F02C813D812230310521F18C813D
:104220009D81009779F5E981FA818085882F90E05A
:10423000DC01E981FA818085882F90E0FC01808192
:1042400081608C931FC0E981FA818085882F90E07E
:10425000DC01E981FA818085882F90E0FC01808172
:1042600082608C930FC0E981FA818085882F90E06D
:10427000DC01E981FA818085882F90E0FC01808152
:1042800082608C930F900F900F900F900F90CF91B2
:10429000DF910895DF93CF9300D000D0CDB7DEB784
:1042A0009A8389837C836B83E981FA818B819C81EA
:1042B000908B87870F900F900F900F90CF91DF9189
:1042C0000895DF93CF9300D0CDB7DEB79A8389836B
:1042D000E981FA812189328943895489E981FA8106
:1042E0008281882F90E0FC018081882F90E0A0E0FF
:1042F000B0E0820F931FA41FB51FE981FA81818B63
:10430000928BA38BB48BE981FA812189328943890D
:104310005489E981FA8181859285A385B48528171E
:1043200039074A075B0710F1E981FA81878590898F
:10433000009761F0E981FA81118A128A138A148A3E
:10434000E981FA810784F089E02D0995E981FA81F4
:104350008685882329F489819A810E94B62B06C01C
:10436000E981FA81118A128A138A148A0F900F90B8
:10437000CF91DF9108951F920F920FB60F92009088
:104380005B000F9211242F933F934F935F936F9392
:104390007F938F939F93AF93BF93EF93FF93DF939D
:1043A000CF93CDB7DEB780918A0890918B080E9499
:1043B0006121CF91DF91FF91EF91BF91AF919F91DB
:1043C0008F917F916F915F914F913F912F910F90BE
:1043D00000925B000F900FBE0F901F9018951F92D8
:1043E0000F920FB60F9200905B000F9211242F9343
:1043F0003F934F935F936F937F938F939F93AF936D
:10440000BF93EF93FF93DF93CF93CDB7DEB7809148
:104410008808909189080E946121CF91DF91FF91D6
:10442000EF91BF91AF919F918F917F916F915F912C
:104430004F913F912F910F9000925B000F900FBE14
:104440000F901F9018951F920F920FB60F92009029
:104450005B000F9211242F933F934F935F936F93C1
:104460007F938F939F93AF93BF93EF93FF93DF93CC
:10447000CF93CDB7DEB780918608909187080E94D0
:104480006121CF91DF91FF91EF91BF91AF919F910A
:104490008F917F916F915F914F913F912F910F90ED
:1044A00000925B000F900FBE0F901F9018951F9207
:1044B0000F920FB60F9200905B000F9211242F9372
:1044C0003F934F935F936F937F938F939F93AF939C
:1044D000BF93EF93FF93DF93CF93CDB7DEB7809178
:1044E0008808909189080E946121CF91DF91FF9106
:1044F000EF91BF91AF919F918F917F916F915F915C
:104500004F913F912F910F9000925B000F900FBE43
:104510000F901F9018951F920F920FB60F92009058
:104520005B000F9211242F933F934F935F936F93F0
:104530007F938F939F93AF93BF93EF93FF93DF93FB
:10454000CF93CDB7DEB780918608909187080E94FF
:104550006121CF91DF91FF91EF91BF91AF919F9139
:104560008F917F916F915F914F913F912F910F901C
:1045700000925B000F900FBE0F901F901895DF9375
:10458000CF93CDB7DEB728970FB6F894DEBF0FBE36
:10459000CDBF9A8389834B835C836D837E83388709
:1045A0002F83E981FA818B819C81AD81BE818187D6
:1045B0009287A387B487E981FA81118A128A138AC4
:1045C000148AE981FA818F819885908B8787E981A8
:1045D000FA818781882F90E0FC01108289819A817D
:1045E0000E94962B28960FB6F894DEBF0FBECDBF63
:1045F000CF91DF910895DF93CF9300D000D000D00A
:10460000CDB7DEB79A8389834B835C836D837E83CA
:10461000E981FA818B819C81AD81BE8181879287FE
:10462000A387B487E981FA81118A128A138A148ACE
:10463000E981FA818781882F90E0FC0110828981CD
:104640009A810E94962B26960FB6F894DEBF0FBE75
:10465000CDBFCF91DF910895DF93CF9300D000D0ED
:104660000F92CDB7DEB79A8389836B834C832D83FA
:1046700089819A816B814C810E94222AE981FA8189
:104680008085882F90E0DC01E981FA818085882F80
:1046900090E0FC01808181608C938B81882F90E079
:1046A000880F991FFC01EA57F74F89819A819183FE
:1046B0008083E981FA818D818687E981FA8182810F
:1046C000882F90E0FC018FEF8083E981FA81108AC6
:1046D00017860F900F900F900F900F90CF91DF9152
:1046E0000895DF93CF9300D000D00F92CDB7DEB7FF
:1046F0009A8389836B834C832D8389819A816B8113
:104700004C810E94222AE981FA818085882F90E0DD
:10471000DC01E981FA818085882F90E0FC018081AD
:1047200081608C938B81882F90E0880F991FFC010A
:10473000EA57F74F89819A8191838083E981FA81D1
:104740008D818687E981FA818281882F90E0FC0142
:104750008FEF8083E981FA81108A17860F900F907E
:104760000F900F900F90CF91DF910895DF93CF932B
:1047700000D000D00F92CDB7DEB79A8389837C83B7
:104780006B834D838D81880FE981FA818083E98174
:10479000FA818B819C81928381830F900F900F907F
:1047A0000F900F90CF91DF910895DF93CF9300D0BA
:1047B00000D00F92CDB7DEB79A8389837C836B8359
:1047C0004D838D81880FE981FA818083E981FA81A7
:1047D0008B819C81928381830F900F900F900F901B
:1047E0000F90CF91DF9108950F93DF93CF93CDB7C3
:1047F000DEB72D970FB6F894DEBF0FBECDBF9887FA
:104800008F8369874A872B870C878985882F90E05B
:104810009A83898389819A8102979A8389831D86E5
:1048200089819A811816190614F041E04D875D853B
:10483000552351F089819A810C969A8389838F81BF
:104840009885019798878F838F819885FC01F695CD
:10485000E795F695E7958F81988524E630E0B901D4
:104860000E94CBA9CB01E81BF90B8F81988520E929
:1048700031E0B9010E94CBA9CB01E80FF91F2981D2
:104880003A818FE691E0AC01249FC001259F900DF5
:10489000349F900D11242CE030E0B9010E94DFA973
:1048A000CB019F01280F391F8A85882F90E0820F46
:1048B000931FCC01A0E0B0E08B839C83AD83BE83CB
:1048C0008F819885CC01A0E0B0E02DE631E040E09A
:1048D00050E0BC01CD010E94A0A99B01AC018B81DD
:1048E0009C81AD81BE81820F931FA41FB51F8B5881
:1048F0009A4FAA40B0408B839C83AD83BE838B814B
:104900009C81AD81BE8128E130E040E050E0BC01F7
:10491000CD010E94A0A9DC01CB018B839C83AD83D8
:10492000BE838B85282F30E040E050E08B819C8156
:10493000AD81BE81820F931FA41FB51F8B839C8303
:10494000AD83BE838B819C81AD81BE812CE330E041
:1049500040E050E0BC01CD010E94A0A9DC01CB01E8
:104960008B839C83AD83BE838C85282F30E040E011
:1049700050E08B819C81AD81BE81820F931FA41F6B
:10498000B51F8B839C83AD83BE838B819C81AD815E
:10499000BE81BC01CD012D960FB6F894DEBF0FBECF
:1049A000CDBFCF91DF910F910895DF93CF93CDB716
:1049B000DEB72C970FB6F894DEBF0FBECDBF9A8737
:1049C00089877C876B871982EB85FC8586819AE0D5
:1049D000692F0E94BFA9282F2295207FEB85FC8597
:1049E00086819AE0692F0E94BFA9892F820F806873
:1049F0008A83EB85FC8585819AE0692F0E94BFA997
:104A0000282F2295207FEB85FC8585819AE0692FF0
:104A10000E94BFA9892F820F8F778B83EB85FC853E
:104A200084819AE0692F0E94BFA9282F2295207FB8
:104A3000EB85FC8584819AE0692F0E94BFA9892FAC
:104A4000820F8F738C8387E08D83EB85FC85838158
:104A50009AE0692F0E94BFA9282F2295207FEB851D
:104A6000FC8583819AE0692F0E94BFA9892F820F5C
:104A70008F738E83EB85FC8582819AE0692F0E947B
:104A8000BFA9282F2295207FEB85FC8582819AE0A3
:104A9000692F0E94BFA9892F820F8F718F83EB85A9
:104AA000FC8580819181805D97402AE030E0B901EA
:104AB0000E94CBA9CB01482F4295407FEB85FC8516
:104AC00080819181805D97402AE030E0B9010E94A9
:104AD000CBA9840F8887E985FA8581819281E98550
:104AE000FA852081622F48E09E012F5F3F4F0E9490
:104AF000E20681E02C960FB6F894DEBF0FBECDBF64
:104B0000CF91DF910895EF920F93DF93CF93CDB7BD
:104B1000DEB760970FB6F894DEBF0FBECDBF9A87A1
:104B200089877C876B874D872E870F87E88A198254
:104B300080E88A8388899AE0692F0E94BFA9282F7C
:104B40002295207F88899AE0692F0E94BFA9892F2A
:104B5000820F8F778B838F859AE0692F0E94BFA980
:104B6000282F2295207F8F859AE0692F0E94BFA968
:104B7000892F820F8F738C838FEF8D838E859AE0C0
:104B8000692F0E94BFA9282F2295207F8E859AE049
:104B9000692F0E94BFA9892F820F8F738E838D8505
:104BA0009AE0692F0E94BFA9282F2295207F8D852A
:104BB0009AE0692F0E94BFA9892F820F8F718F837E
:104BC0008B859C85805D97402AE030E0B9010E948A
:104BD000CBA9CB01482F4295407F8B859C85805D7A
:104BE00097402AE030E0B9010E94CBA9840F888762
:104BF000E985FA8581819281E985FA852081622F94
:104C000048E09E012F5F3F4F0E94E20681E06096E0
:104C10000FB6F894DEBF0FBECDBFCF91DF910F91DD
:104C2000EF900895DF93CF93CDB7DEB766970FB6B9
:104C3000F894DEBF0FBECDBF9C8B8B8B7E8B6D8BB4
:104C40001982EB89FC8981819281EB89FC89208121
:104C5000622F41E09E012F5F3F4F0E94E206EB89E9
:104C6000FC8981819281EB89FC892081622F47E058
:104C70009E012F5F3F4F0E9436078981482F4F705A
:104C80008981882F90E08F7790709595879595957D
:104C9000879595958795959587959C01220F331F4C
:104CA000C901880F991F880F991F820F931F840FC6
:104CB000ED89FE8986838A81482F4F708A81882FEB
:104CC00090E08F77907095958795959587959595B8
:104CD0008795959587959C01220F331FC901880FF1
:104CE000991F880F991F820F931F840FED89FE89EA
:104CF00085838B81482F4F708B81882F90E08F7335
:104D000090709595879595958795959587959595A7
:104D100087959C01220F331FC901880F991F880FA7
:104D2000991F820F931F840FED89FE8984838D81E3
:104D3000482F4F708D81882F90E08F7390709595DC
:104D400087959595879595958795959587959C01D8
:104D5000220F331FC901880F991F880F991F820FD7
:104D6000931F840FED89FE8983838E81482F4F70B6
:104D70008E81882F90E08F7190709595879595958D
:104D8000879595958795959587959C01220F331F5B
:104D9000C901880F991F880F991F820F931F840FD5
:104DA000ED89FE8982838F81882F90E0AC014F705E
:104DB00050708F81882F90E0959587959595879570
:104DC00095958795959587959C01220F331FC9016D
:104DD000880F991F880F991F820F931F840F951FAB
:104DE0008053984FED89FE899183808381E0669698
:104DF0000FB6F894DEBF0FBECDBFCF91DF910895FF
:104E0000CF92DF92EF92FF920F931F93DF93CF9396
:104E1000CDB7DEB7A0970FB6F894DEBF0FBECDBFFB
:104E20009C8B8B8B7E8B6D8B588F4F8B3A8F298F02
:104E30001C8F0B8FFE8EED8ED8A2CF8E1982EB8940
:104E4000FC8981819281EB89FC892081622F41E07C
:104E50009E012F5F3F4F0E94E206EB89FC89818112
:104E60009281EB89FC892081622F47E09E012F5FB0
:104E70003F4F0E9436078981482F4F708981882FC4
:104E800090E08F77907095958795959587959595F6
:104E90008795959587959C01220F331FC901880F2F
:104EA000991F880F991F820F931F840FEF8DF8A110
:104EB00080838A81482F4F708A81882F90E08F7776
:104EC00090709595879595958795959587959595E6
:104ED00087959C01220F331FC901880F991F880FE6
:104EE000991F820F931F840FED8DFE8D80838B8120
:104EF000482F4F708B81882F90E08F73907095951D
:104F000087959595879595958795959587959C0116
:104F1000220F331FC901880F991F880F991F820F15
:104F2000931F840FEB8DFC8D80838D81482F4F70F4
:104F30008D81882F90E08F739070959587959595CA
:104F4000879595958795959587959C01220F331F99
:104F5000C901880F991F880F991F820F931F840F13
:104F6000E98DFA8D80838E81482F4F708E81882F36
:104F700090E08F719070959587959595879595950B
:104F80008795959587959C01220F331FC901880F3E
:104F9000991F880F991F820F931F840FEF89F88D37
:104FA00080838F81882F90E0AC014F7050708F818B
:104FB000882F90E0959587959595879595958795F8
:104FC000959587959C01220F331FC901880F991F62
:104FD000880F991F820F931F840F951F8053984F3E
:104FE000ED89FE899183808381E0A0960FB6F894C5
:104FF000DEBF0FBECDBFCF91DF911F910F91FF900C
:10500000EF90DF90CF900895CF92DF92EF92FF92D2
:105010000F931F93DF93CF93CDB7DEB763970FB690
:10502000F894DEBF0FBECDBF998B888B7B8B6A8BCC
:10503000888999899E01275F3F4FAE01455F5F4F89
:10504000FE013C96DE011D960F2EFEE0EF2EFF24A2
:10505000F02DEC0EFD1E0F2EFFE0CF2EDD24F02DE7
:10506000CC0EDD1EB9019F018D010E9400278AED43
:1050700097E061E041E020E000E00E94F423DC01E1
:10508000CB018D839E83AF83B88789859A852B85D5
:105090003C855D857E85622F432F252F072F0E943B
:1050A000F423DC01CB0189839A83AB83BC83298100
:1050B0003A814B815C818D819E81AF81B885790178
:1050C0008A01E81AF90A0A0B1B0BD801C7012CE365
:1050D00030E040E050E0BC01CD010E94A0A99B015E
:1050E000AC018F85882F90E0A0E0B0E0820F931F85
:1050F000A41FB51FEA89FB8980839183A283B383B0
:1051000081E063960FB6F894DEBF0FBECDBFCF919E
:10511000DF911F910F91FF90EF90DF90CF90089556
:10512000EF92FF920F931F93DF93CF93CDB7DEB72C
:105130006E970FB6F894DEBF0FBECDBF9C8B8B8BE6
:105140007E8B6D8B588F4F8B3A8F298F1C8F0B8FD7
:10515000FE8EED8E1982EB89FC8981819281EB892B
:10516000FC892081622F41E09E012F5F3F4F0E940A
:10517000E206EB89FC8981819281EB89FC8920819F
:10518000622F47E09E012F5F3F4F0E9436078A81C2
:10519000482F4F708A81882F90E08F779070959577
:1051A00087959595879595958795959587959C0174
:1051B000220F331FC901880F991F880F991F820F73
:1051C000931F840FED8DFE8D80838B81482F4F7050
:1051D0008B81882F90E08F7390709595879595952A
:1051E000879595958795959587959C01220F331FF7
:1051F000C901880F991F880F991F820F931F840F71
:10520000EB8DFC8D80838D81482F4F708D81882F91
:1052100090E08F7390709595879595958795959566
:105220008795959587959C01220F331FC901880F9B
:10523000991F880F991F820F931F840FE98DFA8D94
:1052400080838E81482F4F708E81882F90E08F71E0
:105250009070959587959595879595958795959552
:1052600087959C01220F331FC901880F991F880F52
:10527000991F820F931F840FEF89F88D80838F8190
:10528000882F90E0AC014F7050708F81882F90E094
:1052900095958795959587959595879595958795F6
:1052A0009C01220F331FC901880F991F880F991F76
:1052B000820F931F840F951F8053984FED89FE89AD
:1052C0009183808381E06E960FB6F894DEBF0FBEA7
:1052D000CDBFCF91DF911F910F91FF90EF90089577
:1052E000EF92FF920F931F93DF93CF93CDB7DEB76B
:1052F00062970FB6F894DEBF0FBECDBF988B8F8735
:105300007A8B698B8F8598899E01275F3F4FAE010D
:10531000455F5F4FFE013C96DE011D960F2EFEE0BD
:10532000EF2EFF24F02DEC0EFD1EB9019F018D0123
:105330000E94902889ED97E065E049E020E000E0D8
:105340000E94F423DC01CB018D839E83AF83B88759
:1053500089859A852B853C855D857E85622F432FC7
:10536000252F072F0E94F423DC01CB0189839A8328
:10537000AB83BC8329813A814B815C818D819E8185
:10538000AF81B88579018A01E81AF90A0A0B1B0B6B
:10539000D801C701E989FA8980839183A283B38305
:1053A00081E062960FB6F894DEBF0FBECDBFCF91FD
:1053B000DF911F910F91FF90EF900895DF93CF93AE
:1053C000CDB7DEB764970FB6F894DEBF0FBECDBF82
:1053D0009C8B8B8B1982EB89FC8981819281EB8973
:1053E000FC892081622F41E09E012F5F3F4F0E9488
:1053F000E206EB89FC8981819281EB89FC8920811D
:10540000622F41E09E012F5F3F4F0E943607898146
:1054100080688A831982EB89FC8981819281EB897A
:10542000FC892081622F42E09E012F5F3F4F0E9446
:10543000E20664960FB6F894DEBF0FBECDBFCF91E3
:10544000DF910895DF93CF9300D000D000D0CDB787
:10545000DEB79A8389836B834C83E981FA818C81DF
:105460008183E981FA818B8180838B81282F30E0D1
:105470003E832D838D819E8181309105A9F12D81FF
:105480003E81223031052CF48D819E81009771F090
:1054900083C02D813E812230310509F44AC08D81BF
:1054A0009E818330910509F462C076C0E981FA815A
:1054B00083E58583E981FA8183E58683E981FA8141
:1054C00082E58783E981FA8181E58283E981FA8136
:1054D00081E583838CE898E0E981FA818483E9811E
:1054E000FA8187E5808758C0E981FA818FE4858356
:1054F000E981FA818EE48683E981FA818CE48783ED
:10550000E981FA818AE48283E981FA8188E48383EC
:10551000E981FA8186E48483E981FA818FE68087D4
:10552000E981FA818781882F90E00196FC01108241
:1055300033C0E981FA8183EB8283E981FA8184EBCC
:1055400083838CE898E0E981FA818483E981FA8198
:1055500080EB8583E981FA8181EB8683E981FA8199
:1055600082EB8783E981FA8180E7808715C0E98132
:10557000FA811282E981FA811382E981FA81148227
:10558000E981FA811582E981FA811682E981FA813D
:105590001782E981FA811086E981FA818781882F53
:1055A00090E0FC01108226960FB6F894DEBF0FBE85
:1055B000CDBFCF91DF910895DF93CF9300D000D07E
:1055C00000D0CDB7DEB79A8389836B834C83E981A2
:1055D000FA818C818183E981FA818B8180838B813F
:1055E000282F30E03E832D838D819E81813091056F
:1055F000A9F12D813E81223031052CF48D819E81CF
:10560000009771F083C02D813E812230310509F46D
:105610004AC08D819E818330910509F462C076C0B5
:10562000E981FA8183E58583E981FA8183E58683CF
:10563000E981FA8182E58783E981FA8181E58283C4
:10564000E981FA8181E583838CE898E0E981FA8138
:105650008483E981FA8187E5808758C0E981FA81EE
:105660008FE48583E981FA818EE48683E981FA817A
:105670008CE48783E981FA818AE48283E981FA8173
:1056800088E48383E981FA8186E48483E981FA816D
:105690008FE68087E981FA818781882F90E00196E3
:1056A000FC01108233C0E981FA8183EB8283E981B6
:1056B000FA8184EB83838CE898E0E981FA81848322
:1056C000E981FA8180EB8583E981FA8181EB868328
:1056D000E981FA8182EB8783E981FA8180E780871B
:1056E00015C0E981FA811282E981FA811382E98188
:1056F000FA811482E981FA811582E981FA811682A0
:10570000E981FA811782E981FA811086E981FA81BB
:105710008781882F90E0FC01108226960FB6F894BE
:10572000DEBF0FBECDBFCF91DF910895DF93CF9342
:1057300000D0CDB7DEB79A838983E981FA8186816B
:10574000882F90E0DC01E981FA818681882F90E042
:10575000FC018081982F987FE981FA818181892BD2
:105760008C930F900F90CF91DF910895DF93CF939B
:1057700000D0CDB7DEB79A838983E981FA8186812B
:10578000882F90E0DC01E981FA818681882F90E002
:10579000FC018081887F8C930F900F90CF91DF91D7
:1057A0000895DF93CF93CDB7DEB76A970FB6F8941D
:1057B000DEBF0FBECDBF9A8F898F898D9A8DCC01A8
:1057C000A0E0B0E0BC01CD010E9432A7DC01CB011A
:1057D0008D8B9E8BAF8BB88F6D897E898F89988DCD
:1057E0002BEA3AEA4AE250E40E94A8A4DC01CB0189
:1057F000898B9A8BAB8BBC8B69897A898B899C89C5
:1058000020E030E040E85FE30E94AEA688231CF46D
:1058100081E0888B91C069897A898B899C8920E095
:1058200030E04FE753E40E944EA618160CF07BC000
:105830006D897E898F89988D20E030E04AE754E4B5
:105840000E94A2A5DC01CB018C879D87AE87BF8714
:105850006C857D858E859F8520E030E04AEF54E49D
:105860000E94A8A4DC01CB0188879987AA87BB87FF
:10587000688579858A859B8520E030E040E85FE394
:105880000E94AEA688232CF481E090E09F838E8353
:105890003FC0688579858A859B8520E03FEF4FE78B
:1058A00057E40E944EA618164CF56C857D858E85B2
:1058B0009F8520E030E040E251E40E94A8A4DC0192
:1058C000CB01BC01CD010E94D2A2DC01CB019F83A0
:1058D0008E830FC088EC90E09D838C838C819D81AA
:1058E0000197F1F79D838C838E819F8101979F8320
:1058F0008E838E819F81009769F724C068857985A2
:105900008A859B850E94D2A2DC01CB019F838E8376
:105910008E819F819B838A838A819B810197F1F786
:105920009B838A830FC069897A898B899C890E94AD
:10593000D2A2DC01CB01888B8889898389818A95F1
:10594000F1F789836A960FB6F894DEBF0FBECDBF1C
:10595000CF91DF910895DF93CF9300D0CDB7DEB71D
:105960009A83898309C08AE090E00E94C52C8981CE
:105970009A8101979A83898389819A81009799F7FF
:105980000F900F90CF91DF910895DF93CF9300D0C8
:10599000CDB7DEB79A83898309C088EE93E00E9471
:1059A000D12B89819A8101979A83898389819A81F0
:1059B000009799F70F900F90CF91DF910895DF93A3
:1059C000CF93CDB7DEB71092A8081092A908109215
:1059D000AA081092AB088091A8089091A908A091FC
:1059E000AA08B091AB080596A11DB11D8093AC0823
:1059F0009093AD08A093AE08B093AF081092A208A0
:105A0000CF91DF9108950F931F93DF93CF93CDB77D
:105A1000DEB729970FB6F894DEBF0FBECDBF8F83D8
:105A2000798768871A82198280E091E19093B6089D
:105A30008093B508E5E9F8E01082118212821382A2
:105A4000E9E9F8E010821182128213828091B50890
:105A50009091B60860E070E044E252E00E94F9AB39
:105A6000E091B508F091B60881E08083E091B50837
:105A7000F091B60881E08183E091B508F091B60815
:105A800086E08283E091B508F091B6081382009118
:105A9000B5081091B6088091B0089091B108A09116
:105AA000B208B091B308BC01CD010E946383DC0150
:105AB000CB01F80184839583A683B7830091B50851
:105AC0001091B60880E090E00E94B885F8019187B7
:105AD00080870091B5081091B60880E090E80E9498
