:100000000C948D000C94B7000C94B7000C94B700BE
:100010000C94B7000C94B7000C94B7000C94B70084
:100020000C94B7000C94B7000C94B7000C94B70074
:100030000C94B7000C94C70D0C94B7000C94430DAE
:100040000C94B7000C949B0D0C94B7000C94B70063
:100050000C94170D0C946F0D0C94B7000C94EB0CD2
:100060000C94B7000C94CA0F0C9435120C944F11D9
:100070000C94B7000C94B7000C94B7000C94B70024
:100080000C94B7000C94B7000C94B7000C94B70014
:100090000C949E0F0C9409120C9423110C942E06B0
:1000A0000C94B7000C94B7000C94B7000C94B700F4
:1000B0000C94B7000C94B7000C94B7000C94B700E4
:1000C0000C94B7000C94B7000C94B7000C94720F0A
:1000D0000C94DD110C94F7100C94460F0C94B11194
:1000E0000C94CB100D0A4F4B0D0A003E00005345F7
:1000F0004E44204F4B00434F4E4E454354204F4BF0
:10010000004552524F52000D0A002B4350494E3ABF
:100110002052454144590000110B11241FBECFEF5E
:10012000D1E2DEBFCDBF12E0A0E0B2E0ECEFFFE233
:1001300000E00BBF02C007900D92A036B107D9F7BF
:1001400014E0A0E6B2E001C01D92AE3AB107E1F7BB
:1001500011E0CAE1D1E004C02297FE010E94F3132E
:10016000C831D107C9F70E9490070C94FC170C9472
:100170000000089508950895089508950895089534
:10018000DC0120E040E050E098E115C0FD01E40F03
:10019000F51FE08138E08E2F8227F82FF17080FD67
:1001A00029272695F13009F42068315011F0E695A1
:1001B000F2CF4F5F5F4F4617570741F7822F0895E1
:1001C000FC014083728361830895FC014083728344
:1001D00061830895EF92FF920F931F93CF93DF9364
:1001E000EC017B018A014115510511F40C811D813F
:1001F0004FB7F89420E030E018C0E885F9858A818F
:100200009B81E80FF91F80818C938A819B816C818F
:100210007D8101960E94A0139B838A832F5F3F4FAD
:100220008E819F8101979F838E83D701A20FB31F79
:100230002017310720F48E819F81892BF1F64FBF63
:10024000C901DF91CF911F910F91FF90EF90089519
:10025000CF92DF92EF92FF920F931F93CF93DF9392
:10026000EC016B017A014FB7F89400E010E018C080
:10027000E885F98588819981E80FF91F8C91808341
:10028000888199816C817D8101960E94A013998358
:1002900088830F5F1F4F8E819F8101969F838E837E
:1002A000D601A00FB11F0E151F0538F42E813F8116
:1002B0008C819D8128173907D8F24FBFC801DF9183
:1002C000CF911F910F91FF90EF90DF90CF90089505
:1002D0000F931F93DF93CF930F92CDB7DEB78C01AF
:1002E000FC01A081B18111968C911197887F803695
:1002F00009F4BDC0813670F5883209F462C08932D4
:1003000098F4803109F457C0813138F4882309F416
:1003100003C1883009F00CC14EC0883109F451C0C6
:10032000803209F005C1F8C0803409F496C08134E8
:1003300038F4803309F4F0C0883309F0F9C06FC095
:10034000803509F47AC0883509F455C0883409F03D
:10035000EFC0E2C0883909F4AEC08939B0F48837FB
:1003600009F485C0893738F4883609F480C08037AD
:1003700009F0DEC07CC0883809F49DC0803909F4DA
:1003800081C0803809F0D4C07DC0803B09F499C099
:10039000813B38F4803A09F4B5C0883A09F0C8C006
:1003A00090C0803C09F4AEC0883C09F4ABC0883BE7
:1003B00009F0BEC089C0F801848113968C9313970D
:1003C0007AC0F80184859585892B31F414968C9137
:1003D00014978F70806D9BC0C8010696BE016F5F39
:1003E0007F4F41E050E00E94EA008981D801ED9101
:1003F000FC91838382C013968C918983C8014596B2
:10040000BE016F5F7F4F41E050E00E942801D8019C
:10041000ED91FC9184818F70806D84837AC01496F5
:100420008C9114978F70806814968C931092600250
:1004300081E0D80113968C937BC013968C918983AD
:10044000C8014596BE016F5F7F4F41E050E00E94BA
:100450002801F801858181508583D80115968C91FA
:100460001597ED91FC91882309F447C042C085E0BF
:100470008093600214968C9114978F70806C149600
:100480008C9356C013968C918983C8014596BE0102
:100490006F5F7F4F41E050E00E942801F801818D9D
:1004A000928D238D348D821B930B0190F081E02D72
:1004B0000297F8F422C014968C9114978F7080687C
:1004C000DECF84E080936002C8010696BE016F5FB4
:1004D0007F4F41E050E00E94EA00D801ED91FC918D
:1004E0001197898183831C968D919C911D97892BEF
:1004F00021F084818F70806C03C084818F7080684C
:10050000848316C014968C9114978F70806C149607
:100510008C93109260020CC014968C9114978F707B
:10052000806D14968C931092600281E0F8018383B1
:100530000F90CF91DF911F910F910895FF920F932C
:100540001F93CF93DF93EC01F62E8A0103C0CE01F7
:100550000E946801809160028823C9F7D0936202EB
:10056000C093610283E0809360021B828C89880FB4
:1005700081608C838FB7F894188E1F8A1E8A1D8A1B
:100580001C8E1B8E8FBFFD82E881F98184818F7064
:10059000806A848303C0CE010E946801809160025A
:1005A0008823C9F7CE014596B8014F2D50E00E942F
:1005B000EA008B8191E08927DF91CF911F910F9104
:1005C000FF900895FF920F931F93CF93DF93EC0159
:1005D000F62E8A0103C0CE010E946801809160025C
:1005E0008823C9F7D0936202C093610282E08093AE
:1005F00060028C8990E0880F991F8C838FB7F894E4
:10060000198618861F821E821D861C868FBFCE010A
:100610000696B8014F2D50E00E942801E881F9812B
:1006200084818F70806A8483DF91CF911F910F91B5
:10063000FF900895AF92BF92CF92EF920F93DF9306
:10064000CF93CDB7DEB728970FB6F894DEBF0FBEB5
:10065000CDBF5C01FB0119821A828C2D6AE00E94D9
:100660009413382F3295307F8C2D0E949413390FBC
:100670003F773B838E2D0E949413382F3295307F25
:100680008E2D0E949413390F3F733C830D83822F6C
:100690000E949413382F3295307F822F0E9494133A
:1006A000390F3F733E83842F0E949413282F229585
:1006B000207F842F0E949413290F2F712F83E05DD8
:1006C000F740CF016AE070E00E94A013262F229528
:1006D000207FCF016AE070E00E94A013280F2887D6
:1006E000F5018181928168E0AE014F5F5F4F0E940A
:1006F000E20281E028960FB6F894DEBF0FBECDBFB0
:10070000CF91DF910F91EF90CF90BF90AF90089570
:100710002F923F924F925F926F927F928F929F9211
:10072000AF92BF92CF92DF92EF92FF920F931F93FF
:10073000DF93CF93CDB7DEB766970FB6F894DEBFE1
:100740000FBECDBF4C017C8B6B8B5E8B4D8B19012B
:10075000280137011982FC018181928161E08E01BB
:100760000F5F1F4FA8010E94E202F4018181928174
:1007700067E0A8010E949E024981842F90E08F7754
:10078000907004E0959587950A95E1F79C0113E038
:10079000220F331F1A95E1F7880F991F280F391F71
:1007A0004F70420FF50140834A81842F90E08F778C
:1007B0009070A4E095958795AA95E1F79C01F3E0E8
:1007C000220F331FFA95E1F7880F991F280F391F61
:1007D0004F70420FF60140834B81842F90E08F735E
:1007E000907074E0959587957A95E1F79C0163E0A8
:1007F000220F331F6A95E1F7880F991F280F391FC1
:100800004F70420FF30140838C818770F201808327
:100810004D81842F90E08F73907024E0959587959B
:100820002A95E1F79C0103E0220F331F0A95E1F7B7
:10083000880F991F280F391F4F70420FF101408315
:100840004E81842F90E08F719070B4E095958795DC
:10085000BA95E1F79C01A3E0220F331FAA95E1F7B7
:10086000880F991F280F391F4F70420FED89FE899D
:1008700040838F8190E0AC014F7050704053584FCF
:10088000E4E095958795EA95E1F79C0173E0220FE6
:10089000331F7A95E1F7880F991F280F391F420FF0
:1008A000531FEB89FC895183408381E066960FB624
:1008B000F894DEBF0FBECDBFCF91DF911F910F9196
:1008C000FF90EF90DF90CF90BF90AF909F908F9070
:1008D0007F906F905F904F903F902F9008958F92F0
:1008E0009F92AF92BF92CF92DF92EF92FF920F93BF
:1008F0001F93DF93CF93CDB7DEB728970FB6F89449
:10090000DEBF0FBECDBFB0E08B2EB2E09B2EBE018E
:10091000695F7F4FAE014F5F5F4F9E012E5F3F4F7C
:100920008E010D5F1F4FA4E0EA2EF12CEC0EFD1E90
:10093000F5E0CF2ED12CCC0EDD1EE6E0AE2EB12C94
:10094000AC0EBD1E0E9488038DB79EB740970FB6B0
:10095000F8949EBF0FBE8DBFEDB7FEB73196ADB711
:10096000BEB712969C928E92119782E392E0938387
:1009700082838F819885958384838981868317827A
:100980008A81808711868C81828713868D818487F6
:1009900015868E81868717860E94FC148DB79EB7B8
:1009A00040960FB6F8949EBF0FBE8DBFC401289627
:1009B0000FB6F894DEBF0FBECDBFCF91DF911F9170
:1009C0000F91FF90EF90DF90CF90BF90AF909F90EE
:1009D0008F9008952F923F924F925F926F927F92E5
:1009E0008F929F92AF92BF92CF92DF92EF92FF923F
:1009F0000F931F93DF93CF93CDB7DEB762970FB6F8
:100A0000F894DEBF0FBECDBF5C011B012A01390186
:100A100047011982FC018181928161E08E010F5FA3
:100A20001F4FA8010E94E202F5018181928167E0D7
:100A3000A8010E949E024A81842F90E08F779070D7
:100A400074E0959587957A95E1F79C0163E0220F14
:100A5000331F6A95E1F7880F991F280F391F4F70D0
:100A6000420FF60140834B81842F90E08F7390708A
:100A700004E0959587950A95E1F79C0113E0220F14
:100A8000331F1A95E1F7880F991F280F391F4F70F0
:100A9000420FF40140834D81842F90E08F7390705A
:100AA000A4E095958795AA95E1F79C01F3E0220FC4
:100AB000331FFA95E1F7880F991F280F391F4F70E0
:100AC000420FF30140834E81842F90E08F7190702C
:100AD00074E0959587957A95E1F79C0163E0220F84
:100AE000331F6A95E1F7880F991F280F391F4F7040
:100AF000420FF20140838F8190E0AC014F70507043
:100B00004053584F24E0959587952A95E1F79C012D
:100B100003E0220F331F0A95E1F7880F991F280F72
:100B2000391F420F531FF1015183408381E06296C8
:100B30000FB6F894DEBF0FBECDBFCF91DF911F91EE
:100B40000F91FF90EF90DF90CF90BF90AF909F906C
:100B50008F907F906F905F904F903F902F9008956F
:100B6000CF92DF92EF92FF920F931F93CF93DF9379
:100B7000EC016B017A014FB7F89400E010E018C067
:100B8000E885F98588819981E80FF91F8C91808328
:100B9000888199816C817D8101960E94A01399833F
:100BA00088830F5F1F4F8E819F8101969F838E8365
:100BB000D601A00FB11F0E151F0538F42E813F81FD
:100BC0008C819D8128173907D8F24FBFC801DF916A
:100BD000CF911F910F91FF90EF90DF90CF900895EC
:100BE000EF92FF920F931F93CF93DF93EC017B0162
:100BF0008A014115510511F40C811D814FB7F894FC
:100C000020E030E018C0E885F9858A819B81E80FF3
:100C1000F91F80818C938A819B816C817D810196F3
:100C20000E94A0139B838A832F5F3F4F8E819F81F9
:100C300001979F838E83D701A20FB31F201731071F
:100C400020F48E819F81892BF1F64FBFC901DF917E
:100C5000CF911F910F91FF90EF9008951F920F92E7
:100C60000FB60F920BB60F9211240F931F932F9371
:100C70003F934F935F936F937F938F939F93AF9324
:100C8000BF93EF93FF93DF93CF930F92CDB7DEB770
:100C900000916102109162020115110509F428C149
:100CA000F801A081B18111968C911197887F8036CF
:100CB00009F4BDC0813670F5883209F462C089320A
:100CC00098F4803109F457C0813138F4882309F44D
:100CD00003C1883009F00CC14EC0883109F451C0FD
:100CE000803209F005C1F8C0803409F496C081341F
:100CF00038F4803309F4F0C0883309F0F9C06FC0CC
:100D0000803509F47AC0883509F455C0883409F073
:100D1000EFC0E2C0883909F4AEC08939B0F4883731
:100D200009F485C0893738F4883609F480C08037E3
:100D300009F0DEC07CC0883809F49DC0803909F410
:100D400081C0803809F0D4C07DC0803B09F499C0CF
:100D5000813B38F4803A09F4B5C0883A09F0C8C03C
:100D600090C0803C09F4AEC0883C09F4ABC0883B1D
:100D700009F0BEC089C0F801848113968C93139743
:100D80007AC0F80184859585892B31F414968C916D
:100D900014978F70806D9BC0C8010696BE016F5F6F
:100DA0007F4F41E050E00E94EA008981D801ED9137
:100DB000FC91838382C013968C918983C8014596E8
:100DC000BE016F5F7F4F41E050E00E942801D801D3
:100DD000ED91FC9184818F70806D84837AC014962C
:100DE0008C9114978F70806814968C931092600287
:100DF00081E0D80113968C937BC013968C918983E4
:100E0000C8014596BE016F5F7F4F41E050E00E94F0
:100E10002801F801858181508583D80115968C9130
:100E20001597ED91FC91882309F447C042C085E0F5
:100E30008093600214968C9114978F70806C149636
:100E40008C9356C013968C918983C8014596BE0138
:100E50006F5F7F4F41E050E00E942801F801818DD3
:100E6000928D238D348D821B930B0190F081E02DA8
:100E70000297F8F422C014968C9114978F708068B2
:100E8000DECF84E080936002C8010696BE016F5FEA
:100E90007F4F41E050E00E94EA00D801ED91FC91C3
:100EA0001197898183831C968D919C911D97892B25
:100EB00021F084818F70806C03C084818F70806882
:100EC000848316C014968C9114978F70806C14963E
:100ED0008C93109260020CC014968C9114978F70B2
:100EE000806D14968C931092600281E0F8018383E8
:100EF0000F90CF91DF91FF91EF91BF91AF919F91B3
:100F00008F917F916F915F914F913F912F911F91A1
:100F10000F910F900BBE0F900FBE0F901F90189562
:100F200080E090E008950895FFCFEF920F93DC01E9
:100F3000663069F1673070F4633001F1643028F491
:100F40006130B1F06230C1F516C06430D1F0653067
:100F500099F51AC0693021F16A3028F46730D1F070
:100F6000683051F51AC06A30F1F06B3029F51EC0B7
:100F700080E290E01DC083E290E01AC086E290E03B
:100F800017C089E290E014C08CE290E011C08FE2BB
:100F900090E00EC082E390E00BC080E091E008C0DA
:100FA00083E091E005C086E091E002C089E091E035
:100FB00013969C938E93129711964C931197EC92E3
:100FC0001296ED91FC911397222369F4218181E01F
:100FD00090E0042E02C0880F991F0A94E2F78095D2
:100FE000822381830BC0218181E090E0042E02C026
:100FF000880F991F0A94E2F7282B21831296ED910E
:10100000FC911397002359F0228181E090E002C007
:10101000880F991F4A95E2F7282B22830BC0228163
:1010200081E090E002C0880F991F4A95E2F7809511
:10103000822382830F91EF900895EF920F93DC014A
:10104000663069F1673070F4633001F1643028F480
:101050006130B1F06230C1F516C06430D1F0653056
:1010600099F51AC0693021F16A3028F46730D1F05F
:10107000683051F51AC06A30F1F06B3029F51EC0A6
:1010800080E290E01DC083E290E01AC086E290E02A
:1010900017C089E290E014C08CE290E011C08FE2AA
:1010A00090E00EC082E390E00BC080E091E008C0C9
:1010B00083E091E005C086E091E002C089E091E024
:1010C00013969C938E93129711964C931197EC92D2
:1010D0001296ED91FC911397222369F4218181E00E
:1010E00090E0042E02C0880F991F0A94E2F78095C1
:1010F000822381830BC0218181E090E0042E02C015
:10110000880F991F0A94E2F7282B21831296ED91FC
:10111000FC911397002359F0228181E090E002C0F6
:10112000880F991F4A95E2F7282B22830BC0228152
:1011300081E090E002C0880F991F4A95E2F7809500
:10114000822382830F91EF900895FC01758364835D
:10115000578346830895FC018081A281B381218158
:10116000882351F08C9190E002C0959587952A953F
:10117000E2F78095817008958C9190E002C095957A
:1011800087952A95E2F781700895FC018081A281FC
:10119000B3812181882349F08C9190E002C095951C
:1011A00087952A95E2F7817008958C9190E002C0AE
:1011B000959587952A95E2F7809581700895FC01B1
:1011C0008081A281B3813181882371F412962C91A0
:1011D000129781E090E002C0880F991F3A95E2F7DC
:1011E000282B12962C93089512962C91129781E039
:1011F00090E002C0880F991F3A95E2F7809582230C
:1012000012968C930895FC018081A281B381318173
:10121000882379F412962C91129781E090E002C015
:10122000880F991F3A95E2F78095822312968C9346
:10123000089512962C91129781E090E002C0880FD9
:10124000991F3A95E2F7282B12962C930895FC01EA
:101250008081A281B3812181882341F08C9190E02B
:1012600002C0959587952A95E2F708C08C9190E089
:1012700002C0959587952A95E2F78095817021F0B7
:10128000CF010E94DF080895CF010E94030908954D
:10129000FC0182E592E091838083148A138A108A8C
:1012A0001786128A118A108E178A168A158A168E48
:1012B000158E128E118E148E138E12A211A210A2F0
:1012C000178E0895FC0182E592E091838083148A51
:1012D000138A108A1786128A118A108E178A168A24
:1012E000158A168E158E128E118E148E138E12A2E2
:1012F00011A210A2178E08950895FC018FB7F894DB
:10130000128A118A108A1786168A158A8FBF089545
:10131000FC01258D368D878D90A1281B390BC901C5
:101320000895FC01858996890895CF92DF92EF9206
:10133000FF920F931F93DF93CF930F92CDB7DEB73A
:101340007C018B016115710571F417C08983D70188
:10135000ED91FC910280F381E02DC701B60141E0DF
:1013600050E0099504C06E010894C11CD11CF8011D
:101370000F5F1F4F8491882349F70F90CF91DF9122
:101380001F910F91FF90EF90DF90CF900895FC0197
:1013900043875487658776870895AF92BF92CF922F
:1013A000DF92EF92FF920F931F93DF93CF930F92F1
:1013B000CDB7DEB78C015B016A014115510509F417
:1013C00047C06115710509F443C0EE24FF24F501FF
:1013D000EE0DFF1DE491E9834FB7F894D8015F96B5
:1013E0002D913C9190975D968D919C915E972817D9
:1013F000390718F020E030E022C0D8019196ED9135
:10140000FC91929759968D919C915A97E80FF91FEC
:101410008981808359968D919C915A975D966D91A3
:101420007C915E9701960E94A013F801928F818FA4
:10143000878D90A1019690A3878F21E030E04FBF68
:101440000894E11CF11CCE14DF0409F0C0CF02C0E7
:1014500020E030E0C9010F90CF91DF911F910F91F3
:10146000FF90EF90DF90CF90BF90AF900895EF92F4
:10147000FF920F931F93CF93DF93EC017B018A01BF
:101480004115510511F40C811D814FB7F89420E0EE
:1014900030E018C0E885F9858A819B81E80FF91F43
:1014A00080818C938A819B816C817D8101960E94D1
:1014B000A0139B838A832F5F3F4F8E819F8101976B
:1014C0009F838E83D701A20FB31F2017310720F40B
:1014D0008E819F81892BF1F64FBFC901DF91CF919A
:1014E0001F910F91FF90EF9008950F9640E050E00C
:1014F0000E94EA0008950F960E94EA000895CF9393
:10150000DF93DB010D900020E9F71197A61BB70BC5
:10151000EC01E881F9810280F381E02DAD010995AC
:10152000DF91CF910895EF92FF920F931F93DF9376
:10153000CF93CDB7DEB7CF5FD0400FB6F894DEBF04
:101540000FBECDBFC85FDE4FE880F980C850D140E4
:101550009E01245F3E4F8E010F5F1F4FC801C65F83
:10156000DE4F68817981CA50D140A9010E942D15B2
:10157000D8010D900020E9F71197A01BB10BF701DE
:1015800080819181FC0122813381C701B801AD01C5
:10159000F9010995C150DF4F0FB6F894DEBF0FBEB9
:1015A000CDBFCF91DF911F910F91FF90EF900895E4
:1015B0000F931F93CF93DF938C01EB01CE010E9419
:1015C000F713F801908F878B0097C1F3CE010E942B
:1015D000F713F80192A381A30097C1F3DF91CF9194
:1015E0001F910F910895DC01222311F010929B04AA
:1015F00020919B04E22FF0E018968D919C91199711
:10160000E817F90768F4EE0FFF1FEE0FFF1FEA0F50
:10161000FB1F42875387648775872F5F20939B0446
:1016200008957F928F929F92AF92BF92CF92DF9256
:10163000EF92FF920F931F93CF93DF93C3E6D2E015
:10164000772473943AE5832E912C2AE5A22EB12CAF
:10165000C12CD12C0F2EF0E0EF2EF0E0FF2EF0E0A9
:101660000F2FFEE31F2FF02D1B8E1A8E1B8A1A8A56
:101670001D8A1C8A198E188E798A188ACC5BDF4FD6
:1016800099828882C454D040188219821A821B829F
:101690001C821E821D821F82A886B986CA86DB86AE
:1016A00088E090E00E94F713998F888F009751F19E
:1016B00088E090E09B8F8A8FEC8EFD8E0E8F1F8FBF
:1016C00030E021E0E22FF0E08A8D9B8DE817F907EA
:1016D00060F43796EE0FFF1FEE0FFF1FEC0FFD1F9C
:1016E000E082F182028313832F5F3F5F373051F72F
:1016F00020939B04C95BDF4F84E0CB39D80709F006
:10170000B3CF01C0FFCFDF91CF911F910F91FF9019
:10171000EF90DF90CF90BF90AF909F908F907F9091
:101720000895FC01418360836130A1F0613028F0AD
:10173000623009F16330B1F52EC084E4858385E41D
:10174000868386E4878387E4828388E483831482A4
:101750008EE61FC080E8858381E8868384E88783DE
:1017600088E882838AE8838386E884838FE680879B
:101770001092850017C083EB828384EB8383CF01B3
:101780000996848380EB858381EB868382EB878354
:1017900080E7808707C01282138214821582168226
:1017A00017821086E781F0E010820895EF92FF9291
:1017B0000F931F938C01E62EF22E0E94910BD801FD
:1017C0001896EC911897F0E0808181608083EE2D6F
:1017D000F0E0EE0FFF1FE456FB4F118300831F96CE
:1017E000FC921F971296EC911297F0E08FEF808396
:1017F00051961C921E9250971F910F91FF90EF905F
:101800000895EF92FF920F931F938C01E62EF22E14
:101810000E94910BD8011896EC911897F0E0808106
:1018200081608083EE2DF0E0EE0FFF1FE456FB4F4A
:10183000118300831F96FC921F971296EC911297CA
:10184000F0E08FEF808351961C921E9250971F916B
:101850000F91FF90EF900895DC011296EC91129792
:10186000F0E060831596EC911597F0E080818E7F13
:1018700080831596EC911597F0E0808182608083DB
:101880001696EC91F0E08081877F80830895FC01BB
:10189000613051F0613018F0623089F40BC0E0859E
:1018A000F0E080818E7F04C0E085F0E080818D7F54
:1018B00080830895E085F0E080818B7F80830895A8
:1018C000FC01613051F0613018F0623089F40BC0D6
:1018D000E085F0E08081816004C0E085F0E08081F7
:1018E000826080830895E085F0E080818460808359
:1018F0000895FC01718B608B0895DC011A964D935D
:101900005D936D937C931D9752961D921D921D922F
:101910001C9255971796EC911797F0E01082169647
:10192000EC911697F0E08081887F11969C91892B2D
:1019300080830895DC011A964D935D936D937C939B
:101940001D9752961D921D921D921C92559751966D
:101950003C932E9350971796EC911797F0E01082D6
:101960001696EC911697F0E08081887F11969C91F5
:10197000892B80830895CF93DF93EC01EA81F0E017
:1019800020818A899B89AC89BD89820F911DA11D07
:10199000B11D8A8B9B8BAC8BBD8B2A853B854C857F
:1019A0005D85281739074A075B0790F4E889F989AC
:1019B000309709F009958F85882331F4EE81F0E0A6
:1019C0008081887F808304C01A8A1B8A1C8A1D8AB2
:1019D000DF91CF9108951F920F920FB60F920BB621
:1019E0000F9211242F933F934F935F936F937F93A5
:1019F0008F939F93AF93BF93EF93FF9380919C043A
:101A000090919D040E94BB0CFF91EF91BF91AF910B
:101A10009F918F917F916F915F914F913F912F9106
:101A20000F900BBE0F900FBE0F901F9018951F9236
:101A30000F920FB60F920BB60F9211242F933F9374
:101A40004F935F936F937F938F939F93AF93BF93C6
:101A5000EF93FF9380919E0490919F040E94BB0C92
:101A6000FF91EF91BF91AF919F918F917F916F9176
:101A70005F914F913F912F910F900BBE0F900FBE32
:101A80000F901F9018951F920F920FB60F920BB6E2
:101A90000F9211242F933F934F935F936F937F93F4
:101AA0008F939F93AF93BF93EF93FF938091A00485
:101AB0009091A1040E94BB0CFF91EF91BF91AF9157
:101AC0009F918F917F916F915F914F913F912F9156
:101AD0000F900BBE0F900FBE0F901F9018951F9286
:101AE0000F920FB60F920BB60F9211242F933F93C4
:101AF0004F935F936F937F938F939F93AF93BF9316
:101B0000EF93FF9380919C0490919D040E94BB0CE5
:101B1000FF91EF91BF91AF919F918F917F916F91C5
:101B20005F914F913F912F910F900BBE0F900FBE81
:101B30000F901F9018951F920F920FB60F920BB631
:101B40000F9211242F933F934F935F936F937F9343
:101B50008F939F93AF93BF93EF93FF9380919E04D6
:101B600090919F040E94BB0CFF91EF91BF91AF91A8
:101B70009F918F917F916F915F914F913F912F91A5
:101B80000F900BBE0F900FBE0F901F9018951F92D5
:101B90000F920FB60F920BB60F9211242F933F9313
:101BA0004F935F936F937F938F939F93AF93BF9365
:101BB000EF93FF938091A0049091A1040E94BB0C2D
:101BC000FF91EF91BF91AF919F918F917F916F9115
:101BD0005F914F913F912F910F900BBE0F900FBED1
:101BE0000F901F901895FC0170876783528741877B
:101BF0000895FC018FB7F89416861586148613860F
:101C0000128A118A8FBF0895FC01218D328D838D38
:101C1000948D281B390BC9010895FC018189928993
:101C20000895DC011596ED91FC91169782818F7BCA
:101C300082831596ED91FC91169782818F7782832E
:101C40000895DC011596ED91FC91169782818064D0
:101C500082831596ED91FC91169782818F7782830E
:101C60000895DC011596ED91FC91169782818F7E87
:101C700082831596ED91FC91169782818F7D8283E8
:101C80000895DC011596ED91FC9116978281806193
:101C900082831596ED91FC911697828180628283F2
:101CA0000895DC011596ED91FC91169782818F7E47
:101CB00082831596ED91FC911697828180628283D2
:101CC0000895DC011596ED91FC9116978281877F2E
:101CD00082830895DC011596ED91FC91169782811F
:101CE000886082830895DC011596ED91FC9116972A
:101CF000418170E09B0124703070C90180959095FE
:101D0000880F991F880F991F482341831596ED91DD
:101D1000FC9116978181220F331F220F331F822BD4
:101D200081831596ED91FC911697228163707070F6
:101D3000CB0180959095880F991F282322831596B3
:101D4000ED91FC9116978281660F771F862B828317
:101D50000895CF92DF92EF92FF920F931F93CF934C
:101D6000DF93EC016B017A014FB7F89400E010E0CB
:101D700018C0E885F98588819981E80FF91F8C9151
:101D80008083888199816C817D8101960E94A01356
:101D9000998388830F5F1F4F8E819F8101969F8358
:101DA0008E83D601A00FB11F0E151F0538F42E81AA
:101DB0003F818C819D8128173907D8F24FBFC80118
:101DC000DF91CF911F910F91FF90EF90DF90CF9017
:101DD00008958F929F92AF92BF92CF92DF92EF922F
:101DE000FF920F931F93DF93CF930F92CDB7DEB780
:101DF0006B017A014115510501F161157105E9F099
:101E000065E1A62EB12CA80EB91E00E010E04E012F
:101E10000894811C911CF601E00FF11FE491E98305
:101E2000C501B40141E050E00E9428019C010F5F10
:101E30001F4FE016F10679F702C020E030E0C9013B
:101E40000F90CF91DF911F910F91FF90EF90DF9056
:101E5000CF90BF90AF909F908F900895DF93CF93D6
:101E60000F92CDB7DEB7FC01A581B68116968C9195
:101E70008983CF010B96BE016F5F7F4F41E050E039
:101E80000E9428010F90CF91DF9108951F920F9229
:101E90000FB60F920BB60F9211242F933F934F93CF
:101EA0005F936F937F938F939F93AF93BF93EF93C2
:101EB000FF938091A8049091A9040E942E0FFF9196
:101EC000EF91BF91AF919F918F917F916F915F91B2
:101ED0004F913F912F910F900BBE0F900FBE0F901F
:101EE0001F9018951F920F920FB60F920BB60F927C
:101EF00011242F933F934F935F936F937F938F930F
:101F00009F93AF93BF93EF93FF938091A60490911B
:101F1000A7040E942E0FFF91EF91BF91AF919F9167
:101F20008F917F916F915F914F913F912F910F9082
:101F30000BBE0F900FBE0F901F9018951F920F921F
:101F40000FB60F920BB60F9211242F933F934F931E
:101F50005F936F937F938F939F93AF93BF93EF9311
:101F6000FF938091A4049091A5040E942E0FFF91ED
:101F7000EF91BF91AF919F918F917F916F915F9101
:101F80004F913F912F910F900BBE0F900FBE0F906E
:101F90001F9018951F920F920FB60F920BB60F92CB
:101FA00011242F933F934F935F936F937F938F935E
:101FB0009F93AF93BF93EF93FF938091A20490916F
:101FC000A3040E942E0FFF91EF91BF91AF919F91BB
:101FD0008F917F916F915F914F913F912F910F90D2
:101FE0000BBE0F900FBE0F901F901895CF93DF93ED
:101FF000EC014115510569F06115710551F04596E7
:102000000E9428019C01ED81FE8181818062818393
:1020100002C020E030E0C901DF91CF9108950F9315
:102020001F93DF93CF93CDB7DEB7CF5FD0400FB60E
:10203000F894DEBF0FBECDBF9E01265F3E4F8E01DE
:102040000F5F1F4FC801C85FDE4F68817981C8509C
:10205000D140A9010E942D15F80101900020E9F757
:102060003197E01BF10BCA5FDE4F88819981C65022
:10207000D140B801AF010E94F60FC150DF4F0FB63B
:10208000F894DEBF0FBECDBFCF91DF911F910F91AE
:102090000895DB010D900020E9F71197A61BB70BFF
:1020A000AD010E94F60F0895CF92DF92EF92FF925A
:1020B0000F931F93DF93CF930F92CDB7DEB77C01C1
:1020C0008B016115710549F412C08983C701B601FE
:1020D00041E050E00E94F60F04C06E010894C11C5C
:1020E000D11CF8010F5F1F4F8491882371F70F9067
:1020F000CF91DF911F910F91FF90EF90DF90CF90E4
:102100000895EF92FF920F931F93CF93DF93EC010B
:102110007B018A014115510511F40C811D814FB7D6
:10212000F89420E030E018C0E885F9858A819B8129
:10213000E80FF91F80818C938A819B816C817D815E
:1021400001960E94A0139B838A832F5F3F4F8E814D
:102150009F8101979F838E83D701A20FB31F201702
:10216000310720F48E819F81892BF1F64FBFC90181
:10217000DF91CF911F910F91FF90EF9008950B96F3
:102180000E94EA000895FC0187819085009711F074
:102190000E94030908951F920F920FB60F920BB67B
:1021A0000F9211242F933F934F935F936F937F93DD
:1021B0008F939F93AF93BF93EF93FF938091A80466
:1021C0009091A9040E94C310FF91EF91BF91AF912C
:1021D0009F918F917F916F915F914F913F912F913F
:1021E0000F900BBE0F900FBE0F901F9018951F926F
:1021F0000F920FB60F920BB60F9211242F933F93AD
:102200004F935F936F937F938F939F93AF93BF93FE
:10221000EF93FF938091A6049091A7040E94C310AE
:10222000FF91EF91BF91AF919F918F917F916F91AE
:102230005F914F913F912F910F900BBE0F900FBE6A
:102240000F901F9018951F920F920FB60F920BB61A
:102250000F9211242F933F934F935F936F937F932C
:102260008F939F93AF93BF93EF93FF938091A404B9
:102270009091A5040E94C310FF91EF91BF91AF917F
:102280009F918F917F916F915F914F913F912F918E
:102290000F900BBE0F900FBE0F901F9018951F92BE
:1022A0000F920FB60F920BB60F9211242F933F93FC
:1022B0004F935F936F937F938F939F93AF93BF934E
:1022C000EF93FF938091A2049091A3040E94C31006
:1022D000FF91EF91BF91AF919F918F917F916F91FE
:1022E0005F914F913F912F910F900BBE0F900FBEBA
:1022F0000F901F9018950F931F93DF93CF930F921A
:10230000CDB7DEB78C01DC0117968D919C911897A3
:10231000009711F00E94DF08F801818592850097EF
:1023200021F00E94AB088823B1F0C8014596BE0198
:102330006F5F7F4F41E050E00E94EA00D8011596A0
:10234000ED91FC911697882319F08981868303C04B
:1023500081818F7D81830F90CF91DF911F910F91AC
:1023600008951F920F920FB60F920BB60F92112481
:102370002F933F934F935F936F937F938F939F938D
:10238000AF93BF93EF93FF938091A8049091A9041A
:102390000E947B11FF91EF91BF91AF919F918F911F
:1023A0007F916F915F914F913F912F910F900BBE55
:1023B0000F900FBE0F901F9018951F920F920FB69F
:1023C0000F920BB60F9211242F933F934F935F936D
:1023D0006F937F938F939F93AF93BF93EF93FF93ED
:1023E0008091A6049091A7040E947B11FF91EF9128
:1023F000BF91AF919F918F917F916F915F914F911D
:102400003F912F910F900BBE0F900FBE0F901F901A
:1024100018951F920F920FB60F920BB60F921124C0
:102420002F933F934F935F936F937F938F939F93DC
:10243000AF93BF93EF93FF938091A4049091A50471
:102440000E947B11FF91EF91BF91AF919F918F916E
:102450007F916F915F914F913F912F910F900BBEA4
:102460000F900FBE0F901F9018951F920F920FB6EE
:102470000F920BB60F9211242F933F934F935F93BC
:102480006F937F938F939F93AF93BF93EF93FF933C
:102490008091A2049091A3040E947B11FF91EF917F
:1024A000BF91AF919F918F917F916F915F914F916C
:1024B0003F912F910F900BBE0F900FBE0F901F906A
:1024C0001895CF92DF92EF92FF920F931F93DF93B5
:1024D000CF93CDB7DEB760970FB6F894DEBF0FBECF
:1024E000CDBF6C01DC0190964D935D936D937C9311
:1024F00093977A018B01E4E0EE0CFF1C001F111F83
:10250000EA95D1F760E070E081EE90E0A8019701D4
:102510000E94B41329873A874B875C876D877E8733
:102520008F87988BDE011196FE01399688E0019025
:102530000D928150E1F729813A8116950795F7941C
:10254000E7948D819E81AF81B8858E159F05A00788
:10255000B10710F421503040D6011596ED91FC9151
:10256000169735831596ED91FC9116972483609606
:102570000FB6F894DEBF0FBECDBFCF91DF911F9194
:102580000F91FF90EF90DF90CF9008950F931F93DE
:10259000CF93DF938C01EB01CE010E94F713F8017A
:1025A000918780870097C1F3DF91CF911F910F91A1
:1025B0000895EF92FF920F931F938C017B010B966E
:1025C0000E94C612C8014596B7010E94C6121F910B
:1025D0000F91FF90EF900895EF92FF920F931F934A
:1025E000CF93DF93EC017901188A1F861C861B8626
:1025F0001E861D861C8A1B8A1A8A198A1A8E198EB3
:102600001E8A1D8A188E1F8A1E8E1D8E1C8E1B8E82
:10261000643078F5062F10E0C8014896A3E0880FD3
:10262000991FAA95E1F79E838D83633021F480E39F
:1026300091E09E838D83CE010B96BA010E94C61253
:10264000CE014596B7010E94C612ED81FE8188ED4C
:102650008183000F111F0E551B4FF801D183C083DA
:10266000198218828F819885009711F00E940309C2
:102670001F8EDF91CF911F910F91FF90EF900895E2
:10268000EF92FF920F931F93CF93DF93EC017901A9
:10269000188A1F861C861B861E861D861C8A1B8A1E
:1026A0001A8A198A1A8E198E1E8A1D8A188E1F8AF6
:1026B0001E8E1D8E1C8E1B8E643078F5062F10E04A
:1026C000C801489623E0880F991F2A95E1F79E8359
:1026D0008D83633021F480E391E09E838D83CE016E
:1026E0000B96BA010E94C612CE014596B7010E9410
:1026F000C612ED81FE8188ED8183000F111F0E55FA
:102700001B4FF801D183C083198218828F8198856D
:10271000009711F00E9403091F8EDF91CF911F9146
:102720000F91FF90EF900895991B79E004C0991FD5
:10273000961708F0961B881F7A95C9F7809508951B
:10274000AA1BBB1B51E107C0AA1FBB1FA617B707D7
:1027500010F0A61BB70B881F991F5A95A9F78095F3
:102760009095BC01CD01089597FB092E05260ED04A
:1027700057FD04D014D00AD0001C38F45095409571
:10278000309521953F4F4F4F5F4F0895F6F7909545
:102790008095709561957F4F8F4F9F4F0895A1E26F
:1027A0001A2EAA1BBB1BFD010DC0AA1FBB1FEE1FCB
:1027B000FF1FA217B307E407F50720F0A21BB30B16
:1027C000E40BF50B661F771F881F991F1A9469F792
:1027D00060957095809590959B01AC01BD01CF01EE
:1027E0000895EE0FFF1F0590F491E02D0994CF930B
:1027F000DF93BC018230910510F462E070E0A0919B
:10280000AC04B091AD04ED01E0E0F0E040E050E058
:1028100021C0888199818617970769F48A819B81F5
:10282000309719F09383828304C09093AD04809312
:10283000AC04FE0134C06817790738F4411551051E
:1028400019F08417950708F4AC01FE018A819B8179
:102850009C01E9012097E9F641155105A9F1CA014A
:10286000861B970B049708F4BA01E0E0F0E02AC059
:102870008D919C91119784179507F9F4641775074A
:1028800081F412968D919C911397309719F0938350
:10289000828304C09093AD048093AC04FD01329612
:1028A0004FC0CA01861B970BFD01E80FF91F61930A
:1028B000719302978D939C9343C0FD018281938114
:1028C0009C01D9011097A1F68091AA049091AB04C4
:1028D000892B41F480915C0290915D029093AB044E
:1028E0008093AA0440915E0250915F024115510508
:1028F00041F44DB75EB780915A0290915B02481B3C
:10290000590B2091AA043091AB0424173507B0F479
:10291000CA01821B930B8617970780F0AB014E5FAD
:102920005F4F8417950750F0420F531F5093AB042D
:102930004093AA04F9016193719302C0E0E0F0E0D2
:10294000CF01DF91CF910895CF93DF93009709F4E2
:1029500050C0EC0122971B821A82A091AC04B09166
:10296000AD04109709F140E050E0AC17BD0708F145
:10297000BB83AA83FE0121913191E20FF31FAE17B1
:10298000BF0779F48D919C911197280F391F2E5F05
:102990003F4F3983288312968D919C9113979B8387
:1029A0008A834115510571F4D093AD04C093AC04F2
:1029B00020C012968D919C911397AD01009711F054
:1029C000DC01D3CFFA01D383C28321913191E20F8D
:1029D000F31FCE17DF0769F488819981280F391F0B
:1029E0002E5F3F4FFA01318320838A819B8193833D
:1029F0008283DF91CF9108950F931F93DF93CF933D
:102A0000CDB7DEB72E970FB6F894DEBF0FBECDBFA1
:102A10000D891E8986E08C831A8309838FEF9FE7D7
:102A20009E838D839E01275E3F4FCE0101966F8965
:102A3000788DA9010E9456152F813885020F131F2A
:102A4000F80110822E960FB6F894DEBF0FBECDBFF0
:102A5000CF91DF911F910F9108950F931F93DF93F3
:102A6000CF93CDB7DEB72E970FB6F894DEBF0FBE6B
:102A7000CDBF8C0186E08C831A8309838FEF9FE79B
:102A80009E838D83CE0101960E945615EF81F885B5
:102A9000E00FF11F10822E960FB6F894DEBF0FBE26
:102AA000CDBFCF91DF911F910F9108952F923F924B
:102AB0004F925F926F927F928F929F92AF92BF924E
:102AC000CF92DF92EF92FF920F931F93DF93CF93FA
:102AD000CDB7DEB72B970FB6F894DEBF0FBECDBFD4
:102AE0003C012B015A01FC0117821682838181FD72
:102AF00003C06FEF7FEFC6C19AE0892E1E010894D4
:102B0000211C311CF3012381F20123FD859123FF58
:102B100081912F01882309F4B2C1853239F423FD54
:102B2000859123FF81912F01853229F490E0B30133
:102B30000E947217E7CF982FFF24EE249924FFE11B
:102B4000FF15D0F09B3269F09C3228F4903259F096
:102B5000933291F40EC09D3249F0903369F441E014
:102B600024C052E0F52A84E0F82A28C098E0F92A27
:102B700025C0E0E1FE2A22C0F7FC29C0892F80533E
:102B80008A3070F4F6FE05C0989C902C1124980EA3
:102B900015C0E89CE02C1124E80EF0E2FF2A0EC0DC
:102BA0009E3229F4F6FC6BC140E4F42A07C09C363F
:102BB00019F450E8F52A02C0983649F4F20123FDD1
:102BC000959123FF91912F01992309F0B8CF892F77
:102BD0008554833018F08052833038F444E050E05C
:102BE000A40EB51E5FE359830FC0933631F09337BF
:102BF00079F0933509F056C020C0F50180818983B2
:102C000042E050E0A40EB51E610101E010E012C0E8
:102C1000F501C080D180F6FC03C06FEF7FEF02C0EA
:102C2000692D70E042E050E0A40EB51EC6010E947E
:102C300067178C015FE7F52214C0F501C080D180D1
:102C4000F6FC03C06FEF7FEF02C0692D70E042E039
:102C500050E0A40EB51EC6010E945C178C0150E81E
:102C6000F52AF3FE07C01AC080E290E0B3010E948B
:102C70007217EA948E2D90E008171907A8F30EC07A
:102C8000F601F7FC8591F7FE81916F0190E0B301A9
:102C90000E947217E110EA940150104001151105CD
:102CA00079F7EAC0943611F0993669F5F7FE08C055
:102CB000F501208131814281538184E090E00AC096
:102CC000F501808191819C01442737FD4095542F67
:102CD00082E090E0A80EB91E9FE6F92257FF09C0D6
:102CE00050954095309521953F4F4F4F5F4FE0E80D
:102CF000FE2ACA01B901A1012AE030E00E949E1714
:102D0000D82ED21840C0953729F41F2D1F7E2AE0F7
:102D100030E01DC01F2D197F9F3661F0903720F4E1
:102D2000983509F0ACC00FC0903739F0983709F0EA
:102D3000A6C004C028E030E00AC0106114FD146091
:102D400020E130E004C014FD166020E132E017FFFE
:102D500008C0F501608171818281938144E050E077
:102D600008C0F50180819181BC0180E090E042E0E3
:102D700050E0A40EB51EA1010E949E17D82ED218B5
:102D80008FE7F82EF122F6FE0BC05EEFF522D91484
:102D900038F4F4FE07C0F2FC05C08FEEF82202C042
:102DA0001D2D01C0192DF4FE0DC0FE01ED0DF11D0C
:102DB0008081803319F499EEF92208C01F5FF2FE7A
:102DC00005C003C08F2D867809F01F5F0F2DF3FC1F
:102DD00014C0F0FE0FC01E1510F09D2C0BC09D2CD2
:102DE0009E0C911A1E2D06C080E290E0B3010E9455
:102DF00072171F5F1E15C0F304C01E1510F4E11AF0
:102E000001C0EE2404FF0FC080E390E0B3010E94F4
:102E1000721702FF1DC001FD03C088E790E00EC0DD
:102E200088E590E00BC0802F867891F001FF02C00A
:102E30008BE201C080E2F7FC8DE290E0B3010E94DA
:102E4000721706C080E390E0B3010E9472179A9453
:102E5000D914C0F3DA94F101ED0DF11D808190E0F9
:102E6000B3010E947217DD20A9F706C080E290E04E
:102E7000B3010E947217EA94EE20C1F743CEF3012A
:102E800066817781CB012B960FB6F894DEBF0FBE1B
:102E9000CDBFCF91DF911F910F91FF90EF90DF9009
:102EA000CF90BF90AF909F908F907F906F905F90EA
:102EB0004F903F902F900895FC0105906150704015
:102EC0000110D8F7809590958E0F9F1F0895FC01F3
:102ED0006150704001900110D8F7809590958E0F49
:102EE0009F1F08950F931F93CF93DF938C01EB01E6
:102EF0008B8181FF1BC082FF0DC02E813F818C81A1
:102F00009D812817390764F4E881F9810193F983D9
:102F1000E88306C0E885F985802F0995892B31F46F
:102F20008E819F8101969F838E8302C00FEF1FEFDA
:102F3000C801DF91CF911F910F910895FA01AA273F
:102F4000283051F1203181F1E8946F936E7F6E5FEC
:102F50007F4F8F4F9F4FAF4FB1E03ED0B4E03CD09A
:102F6000670F781F891F9A1FA11D680F791F8A1F7D
:102F7000911DA11D6A0F711D811D911DA11D20D0E4
:102F800009F468943F912AE0269F11243019305D9E
:102F90003193DEF6CF010895462F4770405D41938F
:102FA000B3E00FD0C9F7F6CF462F4F70405D4A33DC
:102FB00018F0495D31FD4052419302D0A9F7EACFA4
:102FC000B4E0A6959795879577956795BA95C9F7D3
:102FD00000976105710508959B01AC010A2E0694C6
:102FE0005795479537952795BA95C9F7620F731F7F
:0C2FF000841F951FA01D0895F894FFCFCA
:102FFC0000202020202020202020202020202020E5
:10300C0020202020202020202020202020202020B4
:10301C0020202020202020202020202020202020A4
:10302C00200025642F253032642F25303264202572
:10303C003032643A253032643A2530326400000074
:10304C0000007C0994079407C7092000AE04000017
:00000001FF
